:020000040003F7
:10C000001034002051C303006BC303006DC3030051
:10C010000000000000000000000000000000000020
:10C020000000000000000000000000006FC30300DB
:10C03000000000000000000071C3030073C3030090
:10C0400075C3030075C30300C3C4030075C30300B5
:10C0500075C303000000000045CA030075C3030058
:10C0600075C3030075C3030075C3030075C30300E4
:10C0700075C3030075C3030075C3030075C30300D4
:10C0800075C30300FBD1030075C3030075C3030030
:10C0900011D2030075C3030035EB030075C3030021
:10C0A00075C3030075C3030000000000000000001A
:10C0B0000000000000000000000000000000000080
:10C0C0000348854602F0A2FD00480047DDC1030099
:10C0D00010340020401E00BF00BF00BF00BF00BFE3
:10C0E00000BF00BF00BF00BF00BF00BF00BFF1D155
:10C0F00070470000401E00BF00BF00BF00BF00BF70
:10C1000000BF00BF00BF00BF00BF00BF00BFF1D134
:10C1100070470000056885F308884068FF2464B212
:10C12000EFF30585002D01D1A646004725460646BA
:10C1300021273FBAF0B40024002500260027F0B4E0
:10C14000F92040B2004700000A4610B50146714888
:10C1500000F03CFE10BD10B500F088FD10BD10B51C
:10C160006D4C86B01ECC03946C460EC4002807D0DC
:10C17000684618DF002803D00022114600F026FE92
:10C180000F20800313DF002803D00022114600F0A7
:10C190001DFE624B48226249082002F0AFFC0028D5
:10C1A00003D00022114600F011FE002004900590FB
:10C1B00001206946087404A860DF002803D000222B
:10C1C000114600F003FE574802F0ACFC002803D0F3
:10C1D0000022114600F0FAFD06B010BD08B5524825
:10C1E000C169B1294FD000245049032008600127BC
:10C1F0004F4DFE05AE604F480F21406989038842CC
:10C2000004D000221146104600F0E0FD0120000796
:10C21000006901218902884204D00022114610469B
:10C2200000F0D4FD44480090444B05220321002037
:10C2300001F015F8002803D00022114600F0C6FDD9
:10C240003A493F480C39086001F0FEFA01F042FB20
:10C2500000281CD0EE6001F04CFB002803D0002227
:10C26000114600F0B3FD20467840FFF778FF00F05C
:10C2700042F801F064FB002803D00022114600F0D0
:10C28000A5FDAE6009E001240021C161ACE72046B4
:10C290007840FFF764FF00F02EF82869C002C00F55
:10C2A00004D000202043274C07D101E00120F9E70A
:10C2B000A06801F020FA002809D1EE6001F0D6FA5A
:10C2C000002803D00022114600F080FDAE60A06877
:10C2D00001F011FA002806D001F0FCFA002802D182
:10C2E000A06801F0CFFABFF34F8F18491648C86015
:10C2F000BFF34F8FFEE70A4A10B5483214210820D9
:10C3000000F070FD002803D00022114600F05EFD11
:10C3100010BD0000EFBEADDE68EC030073EB030060
:10C320004023002057C10300000500405C07005077
:10C3300000050050001000109BD6030000210020D3
:10C340000C000300003000000400FA0500ED00E0DE
:10C350000321094802680A430260084802680A4348
:10C3600002600748804707480047FEE7FEE7FEE710
:10C37000FEE7FEE7FEE7000024050040540500400C
:10C3800089C30300C1C0030010B500F01DF80028E8
:10C3900005D01F491D484860C8131E4988611E48C2
:10C3A000018CC9B201290ED1818C09070BD1018DF5
:10C3B0000906090F042906D1808D0006000F02D15D
:10C3C00016490120886010BD1348018CC9B20129AB
:10C3D00017D1818C090714D1018D09060A0F03D1E9
:10C3E000828D1206120F0ED0090F012903D1828D02
:10C3F0001206120F07D0032903D1808D0006000F0B
:10C4000001D000207047012070470000DFFF07C007
:10C4100000050040006C0040C00F00F00006004026
:10C420001CB5A7490120C860A649487003206A4688
:10C4300010708968684688471CBD70B502240122C7
:10C44000A14D9F4E9F49030002F0F2FB05040C260C
:10C4500019200B004878012818D0022801D10320A8
:10C46000487070BD4878002802D00328F9D104E054
:10C470000420286032604A7070BD4C7070BD4878EE
:10C48000012806D0022804D00328F7D100F00EF9C5
:10C4900070BDFFF7C5FF70BD48780128FBD1487813
:10C4A000022800D0B2608878E861E6E710B500F0B5
:10C4B000C1FA002801D0002000E00120FFF7BDFFF5
:10C4C00010BDFEB5814CA0687E4D814E002700282E
:10C4D0000ED0706840070BD5A7607B4880690422A6
:10C4E000C0B2A88069460A700871A9686846884782
:10C4F000E069002806D07068000603D5E7610320D4
:10C50000FFF79BFF606A00280ED0706880050BD58E
:10C5100067626D4980390868086002216A461170B7
:10C520000190A96868468847FEBDFFB50446654985
:10C5300083B0002048708A60421E8A80617801269C
:10C5400032468A4063498A60617803228B006249DF
:10C550005B181A6022780C23920051180B605A4D18
:10C560006178E96021786961A1686962564F6179F3
:10C570004037002902D00E21F96200E0F8622379E9
:10C58000022B17D051494E4A012B44D004232B6073
:10C590008860C861F86A40084000F862581FA860C7
:10C5A000286196601660474846700C9800880028FD
:10C5B0003DD042E000F02CF9002803D100F003F94F
:10C5C000002852D14548694600680090A07800F0E4
:10C5D0006BF9002849D1401E2861A078A860F86A4C
:10C5E0003043F8623D483E4A40680190E07801A936
:10C5F00000F09AF9002838D1E078012100F0D5F94F
:10C60000E07800F017FA002801D0002000E00120B7
:10C61000FFF713FFC9E704232B608860C861F86A3D
:10C620003043F862E0782861A078A860B9E725492E
:10C630000C9A08781080401C087000212448C943D7
:10C640008160A12189004160264904200860264BB1
:10C6500006991A68FF2424048907090EA2430904D5
:10C660000A431A6021490860002007B0F0BD014666
:10C6700010B5144800244278012A01D0042403E0B4
:10C6800081700220FFF7D9FE204610BD10B5FF28AB
:10C6900003D20420FFF7D1FE06E00420FFF7CDFE11
:10C6A0000948006900F0DEF8002010BD05490020AF
:10C6B000487003490122CA604A6003490860704714
:10C6C0000020004004200020002500400021004000
:10C6D00000230040000500500007005078EC0300E4
:10C6E000ADC4030080E200E000E400E000E100E00F
:10C6F00031B5054C04E0401E00902046FFF7EAFCEF
:10C7000000980028F7D138BDE70300008207D30E58
:10C71000FF229A408907090E10B5994000280BDACC
:10C7200003071B0F083B9C080C4BA400E318DC69B3
:10C7300094430C43DC6107E08408094BA400E4182F
:10C74000236893430B432360C106C90E0120884030
:10C75000044908600449086010BD000000ED00E0D5
:10C7600000E400E080E200E000E100E08200F64842
:10C770001018026803231B049A430260026809042C
:10C780000A4302607047F0B50025ED43002A02D04D
:10C790000023042601E004230526EC4C04E09F005E
:10C7A000E7597F1C04D05B1CB342F8D32846F0BD88
:10C7B0005DB2261835759E00A151002AF6D1E11808
:10C7C00020310874F2E770B5E04D2035687D00280F
:10C7D00001D0082070BD0020DC49421E0B18401C0F
:10C7E000C0B21A752028F9D30024204600F0CDF9F4
:10C7F000641CE4B2052CF8D301210620FFF786FF64
:10C800000120D349C007486001206875002070BD31
:10C81000CE482030407D002800D00120704710B560
:10C82000044600F0A3F9002808D0C748A1000A1860
:10C830001068022188430843106010BD204600F0B4
:10C8400079F90028F9D0204600F09AF9C149820010
:10C8500051180A69520852000A6101218140BC48FE
:10C86000816010BD10B50446FFF7D9FF204600F0E7
:10C8700061F9002807D0204600F082F9B54A00216E
:10C88000800080180161B04A0220A1008918086068
:10C89000204600F075F9C0B200F077F90020AB49EE
:10C8A000C0430919087510BDF8B50446A7480D46E0
:10C8B0000019142141560026491C01D008262FE0FA
:10C8C000A97800291DD0012200212046FFF75BFF37
:10C8D000411C14D083009F482A781818697803698E
:10C8E0009D4F3B4003610369E706FF0C9207920BE3
:10C8F000C907C90A3B430A431343036104E0042602
:10C900000EE00121C94301758F4A0320A100891857
:10C9100008606A780120A0409049012A02D0C860CE
:10C920003046F8BD8860FBE7F8B5884F0D460446F1
:10C930003819142141560026C8171346401C01D04F
:10C94000082630E0EA7819462046FFF71CFF411C14
:10C9500028D07D4BAA78A100C918002A03D00A6804
:10C9600002239A4301E06A7892000A60E97800297C
:10C9700010D082007748297810180269784B1A4045
:10C980000261E206D20C8907890B0A4301690A4356
:10C99000026108E0381820302A78017C92011143A6
:10C9A000017400E004263046F8BDF3B581B00F46AF
:10C9B000019800F0DBF801240028644E019817D09C
:10C9C00000F0DEF880192030007C8009032802D0B6
:10C9D00001280BD005E06148006901998C40204294
:10C9E00004D003210198FFF7C1FEFEBD0221F9E743
:10C9F00000F0A0F80028F8D0019800F0C1F8054632
:10CA00008100C81D534AF93089180A6980B222434F
:10CA10000A615449401800210160002FE5D00198B7
:10CA200000F0AEF8800030580028DED04848AC4016
:10CA30004460FEBD49490969C140C807C00F00D024
:10CA400001207047F8B50025FF24013401262F4648
:10CA50000095204600F067F8002808D03C48406860
:10CA6000304204D03F480021201835430160241D86
:10CA700076007F1CA4B2042FEBD3FF207D3000F0A2
:10CA800052F8002807D038480021016040070543CC
:10CA90003248006900902D4C280713D0012700264A
:10CAA000384628420AD02B48B20011180869096993
:10CAB000C004C00E8903A258890F90477F00761CDE
:10CAC000042EEDD3002D1DDA2046203014214156CE
:10CAD000491C17D0067DB506AD0E284600F050F86B
:10CAE00080002458002C0DD0B6090121A940164A17
:10CAF000A80080180068009A8003800F114202D0BD
:10CB0000022802D0F8BD0328FCD1032E05D102284B
:10CB100007D002212846FFF729FE31462846A047C4
:10CB2000F8BD0321F6E70F4940180068012800D03E
:10CB3000002070470549081814214156042901D2E4
:10CB4000012070470020704700070050D8240020C3
:10CB50000063004000650040FFE0ECFF000500506E
:10CB6000FFE0FCFF006000407C6100400C490818B9
:10CB700014214156042901DB012070470020704731
:10CB8000074909181420085670470022D243830031
:10CB900003490428CA5002D3081820300274704791
:10CBA000D824002018225043864A002180180171A1
:10CBB00081604161022281610261C160704770B58C
:10CBC000804C182221780F2051430A19121D7E49EA
:10CBD000167813694D68012E0FD0032E0CD1012059
:10CBE0000007006981B2184601F0CCFF401928DF28
:10CBF000002801D10121A17070BDA80255685169BA
:10CC00002D1A0918926818181018012292029542DC
:10CC100002D2AA0829DFEBE7FF22013229DFE7E78A
:10CC2000F8B5684C069E65780A2D1DD027787D19C9
:10CC3000EDB20A2D01D30A3DEDB218277D432D191F
:10CC40002871AA6103C9EE60AB6069612861A178AF
:10CC50000020002904D1FFF7B2FF112800D10020E5
:10CC60006178491C6170F8BD0420F8BDF8B5554CD9
:10CC70000022A17801293FD10023A3700646214656
:10CC800008781827054678434118022E04D0032E51
:10CC900032D1091D0D202DE04B484668761C4660B8
:10CCA0008968B6028E4214D343606078401E60707B
:10CCB000681CC0B220700A2801D30A3820701820DE
:10CCC00068430119091D104600F06BF82846FFF76C
:10CCD00069FF607800280FD0A07800280CD1FFF7FA
:10CCE0006EFF002808D0112806D021781822514361
:10CCF0000919091D00F055F8F8BD70B50024324E31
:10CD00003048746004704470847025462846FFF7EC
:10CD100049FF6D1C0A2DF9D32B49346000200831DE
:10CD200074608200401C8C500228FAD3002070BD31
:10CD300010B5254B1A68022A09D00A601C469100DA
:10CD4000083400686050521C00201A6010BD042096
:10CD500010BDF8B507461D4616460C46084600F0BD
:10CD60001AF800280CD0601900F015F8002807D038
:10CD700033462246394601200095FFF751FFF8BDA2
:10CD80001020F8BD08B50B46002201460320009292
:10CD9000FFF746FF08BD800701D000207047012043
:10CDA000704738B50C46E268074B920008339D582F
:10CDB000097862680092024620460C306369A847F1
:10CDC00038BD00001025002010200020BFF34F8F39
:10CDD00003490248C860BFF34F8FFEE70400FA051D
:10CDE00000ED00E030B5CB0008339DB2930700247E
:10CDF000002B01D0072030BD574B9A605219DA60E2
:10CE00005C701C7058809980002030BDF7B5524C82
:10CE100082B060880F4681426ED800206946087053
:10CE20004F494E4E4868C005C00D18D0103840B26A
:10CE3000002807DA0207120F083A920892005118E8
:10CE4000C96904E08108474A890089180968800790
:10CE5000C00EC1400806850F012D01D10AE004254E
:10CE6000684636DF02280CD0002803D00022114685
:10CE7000FFF7ACFF22786078A188884203DA401C73
:10CE800002E072B6F6E70020C0B2904207D06678A2
:10CE90006078884201DA401C00E000206070012DBB
:10CEA0000BD062B66846007837DF022805D000282C
:10CEB00003D000221146FFF789FF2848864219D087
:10CEC000A068F50004994151029900290CD0002F67
:10CED0000AD060883A464643E068301801F068FEA0
:10CEE000A0682818878002E000212818818000208F
:10CEF00005B0F0BD0420FBE70920F9E70EB504E01A
:10CF000068468188029A0098904702AA01A968465B
:10CF100000F003F80028F3D00EBD70B50E4B0524C9
:10CF20001D785E78AE4215D01D781C789E88B4427C
:10CF300001DA641C00E000241C705C88DE686C432D
:10CF4000A41904609B68E800C418A4880C801858D1
:10CF500000241060204670BD20200020FFFF00004C
:10CF600000ED00E000E400E08307FF22DB0E9A40C2
:10CF70008907090E994000280BDA0007000F0838CE
:10CF80008308FB489B001B18D86990430843D8616D
:10CF900070478308F7489B001B18186890430843A4
:10CFA0001860704770B50124F34960040860F349C4
:10CFB00040108860F14940398860F14D6C602F2045
:10CFC000FFF798F8AC60EF4D00242F206C61FFF75D
:10CFD00091F82C7170BDF0B5EA4F2421BC68414333
:10CFE0000D1939694A1C09D024224A4316196B6865
:10CFF0007268934204D8D21A726029623861F0BD17
:10D000000A4602E00A46396A9B1B4E1C0BD02426B6
:10D010004E4337197E689E42F4D324264E43361978
:10D020007768FF1A77606B60296224214A431119DF
:10D030000862F0BD70B5D34C2269A568134611464D
:10D0400006E0814207D00A46242671434919096A3D
:10D050004E1CF6D170BD002EFCD08A420CD124208B
:10D0600043435819006A2061401C05D1C44B01207C
:10D070009860002363616071242041434819242390
:10D0800041685A43006A52191062421CE2D02422BD
:10D090005043401942685118416070BDF8B5B94C11
:10D0A0002569681C35D0B848002640686169401A77
:10D0B00007023F0A19E024204543A0682A18506857
:10D0C000B84214D8A3693F1A8619156A002B09D0F3
:10D0D000D16990699847002807D000221146FFF7D0
:10D0E00075FE02E09169D0698847681CE3D1A17898
:10D0F000E078814206D1401CC0B2E070022801D124
:10D100000020E0709F490006800D1C310E5000F099
:10D11000BDF9F8BDF8B504469A48002701690091A9
:10D1200046785CE09748F100C2688D1851E0601CB9
:10D1300007D0944A24209268604321468018046AEC
:10D1400024E02878182141436A68401CC0B2521874
:10D150002870A978884200D12F708A4B516824200A
:10D160009B684843C0181378012B34D1037D002BF2
:10D1700031D193688360D368C360136903615269D6
:10D18000C261804A5279002A00D087607D4B826854
:10D190005B6996469C46D31A1A027C4B120A9A4245
:10D1A00002D2C368D21808E0724663469A1A120285
:10D1B000C368120A934202D99A1A426000E047609B
:10D1C00087600122C7600275921E02620846FFF75F
:10D1D00002FF601CABD1287869788842A7D130461D
:10D1E000761EF6B200289DD16648016900988142FA
:10D1F00001D00120F8BD0020F8BD6549002008607D
:10D2000048608860C860624940390860486045E706
:10D21000FEB50020C0435B4D0290686901906846EE
:10D220002E6900F038F9074600F052F90446002F45
:10D2300008D002AA0199009800F092F90298FFF72D
:10D2400069FF06E00298FFF765FF002801D1002C76
:10D2500002D0304600F0ADF900206871FEBDFFB588
:10D260009807002481B01E4615460F4600280BD1B2
:10D27000002E09D0FFF796FE42490A9888610F7088
:10D28000324600208E6008E0072005B0F0BD242360
:10D290004343D4549B181C75401CB842F7DB242030
:10D2A0004743BB19032048700F461846CB60194608
:10D2B0001830002218232E465E43D3005B181C70E2
:10D2C0005C709D7058603018521C032AF5DB0020FA
:10D2D000C0433861BC70FC7001242E4824050460F2
:10D2E00003211420FFF740FE234880380460264CB9
:10D2F0000198A06003211120FFF736FE6068786175
:10D300000020C2E770B51F4CA568002D06D0002A8A
:10D3100006D0002804D00023247809E0082070BD3E
:10D32000072070BD24265E43AE5D002E04D05B1C3A
:10D33000A342F7DB042070BD242401265C432E5554
:10D3400064196170A2610360002070BD08494868DB
:10D35000C005C00D2ED0103840B200281CDA0207DC
:10D36000120F083A920892005118C96919E000009A
:10D3700000ED00E000E400E080E100E04013014047
:10D38000001001403020002000150140FFFF7F0009
:10D390004011014080E200E08108B24A890089180A
:10D3A00009688007C00EC1400806800F012803D01D
:10D3B000032803D0022070470020704701207047E7
:10D3C000FEB50446A848174682680D46002A0CD0D0
:10D3D00001788C4201D2052D01D20720FEBD2146E5
:10D3E00024235943535C012B01D00820FEBD88182B
:10D3F000407801281DD00026FFF7A8FFC0009A49F9
:10D400000190C9684018694600F019F9002812D047
:10D41000012101709549446049680830E2C0924991
:10D420000198C96841180098487000F02FF8002052
:10D43000FEBD2E46E0E70420FEBDF8B58A4D044649
:10D44000A868002809D029788C4201D30720F8BDAC
:10D4500024216143405C012801D00820F8BDFFF77A
:10D4600075FFC600E8686946301800F0E8F8002843
:10D470000AD0022101704460E868311800984870B1
:10D4800000F004F80020F8BD0420F8BD0120784920
:10D4900000050860704710B5734900238A78CC787E
:10D4A000A24212D0521CD2B28A70022A00D18B70D2
:10D4B0008A786D4B92001C339A58026048691018A4
:10D4C0000002000A4861012010BD0360002010BD69
:10D4D000F8B5654801690091457833E06248E90094
:10D4E000C0680E1834782AE0182060437168641C04
:10D4F0000818B178E4B2A14200D1002401780229D1
:10D5000002D003291BD113E0574A406824219268B6
:10D5100041438F18397D002911D0FFF78BFD002082
:10D5200038750CE024277843C0180275006A03E0C0
:10D530004D4900228B680869471CF3D10861707857
:10D54000A042D1D128466D1EEDB20028C6D1464872
:10D5500001690098814201D00120F8BD0020F8BD8A
:10D56000F7B5414C0025A76823691EE024215943E3
:10D57000C9194E68864202D9301A486017E0801BEC
:10D58000751900264E600E750E699C460B6AB646EC
:10D59000002E0AD0019E76193602360A8E60764633
:10D5A000CE6016680E6261461160591CDED123619F
:10D5B000FEBDF8B52C4801694A1C3DD024225143D8
:10D5C000826889184E6829494C6847690079E11BCF
:10D5D0000D022D0AED1C002815D10120254A00045A
:10D5E0005060244A403A5060214940008031086030
:10D5F000214908602149012008602F20FEF77AFDAB
:10D60000194901200871B54200D23546E8190002D7
:10D610001649000A4031086014494968001B091B7B
:10D620000902090A0002C91C000A814203D901202B
:10D630000F4940040860F8BDFFF7B4FCF8BD42781C
:10D640008378521C934200D100220378934201D187
:10D65000002070470A60416840781822504308183B
:10D660007047000000E400E0302000200015014079
:10D6700000E200E04013014000E100E00010014042
:10D6800010B50446082904D0002211461046FFF7C1
:10D690009DFB21686068884710BD1CB50191009012
:10D6A000024A08216846FFF7B1FB1CBD81D6030082
:10D6B00010B5B8480378012B03D1012901D102210B
:10D6C0000170100003D000221146FFF77FFB10BD50
:10D6D00010B5B04C48DF002803D000221146FFF7F8
:10D6E00075FBFFF70BFC2078022803D0032801D03C
:10D6F0000428EFD110BD38B50068401C19D00024B3
:10D70000684600F04FF900980178012910D141884E
:10D7100000290AD08168032000038068002200F0FD
:10D7200081F900994988814201D1012400E0002457
:10D73000204638BD10B5044696481C21001DFFF751
:10D7400021FB002803D000221146FFF73FFB914840
:10D7500000231C222146001DFFF7FBFA002803D0FE
:10D7600000221146FFF732FB10BD0FB4F8B5684632
:10D7700000F018F96846027E418B0123854CFF2595
:10D780008548002A12D0012A16D0032A2AD0002167
:10D79000022A36D0052A46D0042A4ED0062A01D1C4
:10D7A00004202070F8BC08BC04B0184741800999D7
:10D7B00081600370057110E04180089A079989180B
:10D7C000099A89188160A521017005710799C160C6
:10D7D0000899426101610A99816123706E48FFF7DF
:10D7E000A9FFDFE700990A7802704A8842808968B9
:10D7F0008160AA2101710799C160089901610999A5
:10D800000BE0009A1678A52E09D00670568846803F
:10D81000926882600571C16001614161DDE741800C
:10D8200081600570F6E700F069FD002803D0002252
:10D830001146FFF7CBFA0320B3E741808160057002
:10D84000009909790171C9E70EB5544A6B4607CAB8
:10D8500007C3FFF752FA002807D14E49FF20800284
:10D86000091D48606846FFF763FA0EBD10B500F069
:10D87000EFF9002805D100F01FFD0446FFF728FF4F
:10D88000204610BD70B511DF002803D000221146DC
:10D89000FFF79CFA424900200A68414B012180337E
:10D8A0000C468440144204D0C506ED0E0C46AC4034
:10D8B0001C60401C2028F3D303242403A06813DF3A
:10D8C000002803D000221146FFF780FAA06800F07C
:10D8D000A5F870BD08B5684600F064F800980178B6
:10D8E000A52904D00079AA2801D0002008BD012074
:10D8F00008BD10B500F09AFB002803D100F076FBBC
:10D9000000281BD06420FEF7F3FE00F015FB002872
:10D9100003D000221146FFF759FA00F087FB0028D8
:10D9200003D000221146FFF751FA00F03FFB04003C
:10D9300003D000221146FFF749FA204610BD00B57A
:10D94000164987B014220C3101A801F031F905986D
:10D95000009001A80FC8FFF708FFFFF7B9FE0020ED
:10D9600007B000BD38B50446684600F01BF80098C3
:10D9700001782170418861808168A16001792171FD
:10D98000C168E16001692161416961618069A061EB
:10D9900038BD0000542000200426002080EC030045
:10D9A00000E100E070B51B4905468868000A0002E6
:10D9B00024D0194C08782070C8788A780002104367
:10D9C0006080087920710846083000F019F8A060DE
:10D9D00010480C3000F014F8E0600E48103000F0F1
:10D9E0000FF820610B48143000F00AF86061094814
:10D9F000183000F005F8A0612C6070BD296070BD82
:10DA000010B5044601F0F8F80002E178000A0906B2
:10DA1000084310BD00FC03002026002010B5FEF7CF
:10DA200079FB10BD10B50446002A02D010880022F0
:10DA300010E00A48FBE7030A00020343A05C5840D9
:10DA400003061B0F43401803584083B21806C00C4E
:10DA50005840521C8A42EED310BD0000FFFF000068
:10DA600070B5FA4C1E4660781546012902D003298C
:10DA700016D108E0052813D1A369002B10D0324637
:10DA8000294604200BE002280AD1F148406880476B
:10DA900003206070A369002B02D0324629469847C4
:10DAA000280003D000221146FFF790F970BD00B5A1
:10DAB000E64987B00120087005206946087105987D
:10DAC000009001A80FC8FFF750FE07B000BD10B5C9
:10DAD000DE4C2078002801D0082010BD2069FFF717
:10DAE000ACFC002803D000221146FFF76FF90F218C
:10DAF000002289042069FFF763FC040003D00022A0
:10DB00001146FFF763F9204610BDD04910B5CF4844
:10DB10002431416102214170C1682430FFF732F99C
:10DB2000002803D000221146FFF750F910BDC74965
:10DB300010B5C6481C314161022141700320000329
:10DB400080680F218903081A4108C0481C30FFF77C
:10DB500019F9002803D000221146FFF737F910BD4C
:10DB6000704700B587B01422BA4901A801F020F827
:10DB70000598009001A80FC8FFF7F7FDA5E700B5CD
:10DB800087B0012168460171B04881886846C1802C
:10DB90000320000380680590AD48903841680291E9
:10DBA00081680391C0680490059800900A46049B20
:10DBB00002990198FFF7D9FD002086E730B5A44C03
:10DBC000A248903C87B02430E168FFF7DBF80028DA
:10DBD00003D000221146FFF7F9F89C48E2681C3098
:10DBE000416800230830FFF7B4F8050012D1142172
:10DBF00001A800F0F6FF0021684601719348818872
:10DC00006846C180E06804900598009001A80FC89C
:10DC1000FFF7ABFD284607B030BD00B587B0032144
:10DC200068460171894881886846C1808848903873
:10DC30004168029181680391C06804900598009042
:10DC40000A46049B02990198FFF78FFD00203CE7EC
:10DC50003EB5804A6B46143207CA07C37B4D002489
:10DC6000AC702946AC8024316846FFF761F8002883
:10DC700001D06C703EBD03207449000380682431DC
:10DC8000486024390A46526ACA610F218903091A79
:10DC9000490840186D49704A1C3148606B480021A2
:10DCA0001030FFF72FFB002803D000221146FFF7AA
:10DCB0008DF80F21002289042869FFF781FB0028D5
:10DCC00003D000221146FFF781F80120AC60687094
:10DCD00000203EBD5D498861704770B542685C4870
:10DCE0001468536891689038D26804604360C260D9
:10DCF00081600078440701D5840705D19C0703D1D2
:10DD00008C0701D1940701D0062070BD5B189A18CA
:10DD10004E4D0F239B02EA60994213D84F49504B56
:10DD20004B4CC60709D08868181A90420AD34D4850
:10DD300020604D4860604D480FE08968591A4908D5
:10DD4000914201D20C2070BD49492160494961606E
:10DD5000800701D5484800E04848A060687801285D
:10DD600002D00826304670BDFFF7B1FE0600FAD19A
:10DD70002168E8688847F5E770B5050004D0287A7F
:10DD8000800703D0102070BD0E2070BD2F4C60782E
:10DD9000032803D0042801D0052801D0082070BD35
:10DDA0006868E1688600A0688019884204D900206C
:10DDB000C043A0600C2070BDFFF789FE0028FAD197
:10DDC000A9683246A3686069FEF7C3FF0028F2D154
:10DDD000A1688919A160E2689142ECD0092070BD68
:10DDE00010B51A4C0820A168002900D010BD617838
:10DDF0000429FBD11648A178803800F05DF900288D
:10DE000002D00021A17010BD0521617010BDF8B5D0
:10DE10000E4C07466078032804D0042804D0082557
:10DE20002846F8BD04206070A068002801D00820B2
:10DE3000F8BDFFF74CFE0500FAD178688600A0789F
:10DE4000811980291CD90920F8BD0000602000201C
:10DE5000CC260020A0EC0300AFDA03000030000065
:10DE600000C003000BDB030063DB03007FDB030068
:10DE70002FDB030061DB03001BDC0300BDDB0300C1
:10DE80008B4AB9681018324600F092FEA0788019CB
:10DE9000A070C5E710B5874C6078052813D1E168FC
:10DEA000A06888420FD106206070FFF710FE00289E
:10DEB00008D16069E168406800F039F9002801D1B3
:10DEC0000721617010BD082010BD10B57948417858
:10DED000072901D0082010BD0069FFF7AEFA00281D
:10DEE00003D000221146FEF771FF71488030806830
:10DEF000804710BDF8B51C4617460D46064600F093
:10DF0000C1F8002817D001200003854207D9234615
:10DF1000291B301B1A46FFF7EDFF00280BD13A46AC
:10DF20002946304600F0B9F8002804D13A4629467F
:10DF3000304600F0A7F8F8BDF0B589B06846FFF7A5
:10DF400011FD039800282AD001210903069A4018E0
:10DF5000904226D9501A45081046039A0C46871855
:10DF60000246680016180019079003200003806815
:10DF7000039988420DD261190846042200F08DF8F9
:10DF800000280CD121460422084600F086F800281B
:10DF900005D1BA1B2B4630460799FFF7ABFF09B0F6
:10DFA000F0BD039A069800F078F8F8E700B58BB05A
:10DFB00004A8FFF7D7FC089800280DD00798002880
:10DFC0000CD007990A9840180190002108980091F8
:10DFD00080080290684618DF0BB000BD03200003E4
:10DFE00080680F218903091A4908ECE700B58BB056
:10DFF00004A8FFF7B7FC08980028EDD00F21079878
:10E00000890300280CD0079A0A9801918018029081
:10E0100003220898009280080390684618DFDBE727
:10E020000320000380680A1A5208EEE730B58FB06B
:10E030006846FFF797FC0398002814D001210903D4
:10E04000069A4018904214D9501A43081046039A71
:10E050005C0082180019611803242403A468039D3E
:10E06000AC4202D20E200FB030BD121AFFF742FFB1
:10E07000F9E703200BAB07C3039880080E900BA8A9
:10E0800018DFF0E71FB50323019090080390009379
:10E090000291684618DF04B010BD1FB5012301903E
:10E0A0009008039000930291684618DFF3E70000A0
:10E0B0004C2600206020002070B500250C290ED3CE
:10E0C00004464318008941000919581A0A38C2B297
:10E0D0001E48022A027002D30A318B4201D2092063
:10E0E00070BD1B4800F064FD1A481B4902888A4233
:10E0F00002D02388934218D14088884202D0618898
:10E10000814212D1144A0323521E20891B03A842C4
:10E110000BD9690009194989914204D09E896D1C67
:10E12000B6B2B142F3D1002070BD0B2070BD10B566
:10E130000022FFF777FC064A517812780902114352
:10E14000884201D00B2010BD002010BD8C20002083
:10E15000D826002080100010FFFF00000C22504342
:10E160006C4A00211150801881604160704710B5E1
:10E17000042819D20C21674A41438B1851589C68D6
:10E1800000290FD0114620310A7C521E0A74FFF775
:10E19000E5FF201F00F053FC002803D000221146A9
:10E1A000FEF714FE002010BD072010BD10B50800BA
:10E1B00003D000221146FEF709FE10BD70B5554D83
:10E1C0002E4620362FE0002421460C2041434819DA
:10E1D0000268002A24D0695801290ED0032907D0EB
:10E1E000042902D0052912D121E0FFF7C5FD0EE078
:10E1F00081684160FFF771FD03E0FFF708FEFFF75C
:10E20000EFFD002803D000221146FEF7DFFDE0B24B
:10E21000FFF7ADFF002803D000221146FEF7D6FD20
:10E22000641C042CD0D3307C0028CCD170BDFFF707
:10E2300031FEFFF74AFE70BD3EB501A9684600F009
:10E24000DFFB002813D1009802AC0378002B0ED01E
:10E2500030492031087C032809D02E4A00200C25A3
:10E2600045435559002D0CD0401C0428F7D3009885
:10E2700000F0E5FB002803D000221146FEF7A6FDC2
:10E280003EBD20700C2460431350087C401C087471
:10E290006846808881086846007A491E6043801875
:10E2A000416000991C4A091D816000210846FEF763
:10E2B000ADFD0028DBD13EBD164810B50021203051
:10E2C00001740C46E0B2FFF749FF641C042CF9D33B
:10E2D0001248FFF7FFFC00F046FB002803D00022A5
:10E2E0001146FEF773FD0E4800F028FB002803D00E
:10E2F00000221146FEF76AFD002010BD10B5002473
:10E30000E0B2FFF734FF641C042CF9D300F057FB94
:10E3100010BD0000E4260020BDE10300ADE10300D4
:10E3200039E203004F480021017050484E4A026014
:10E330008160C160016102224161426081610846E1
:10E3400070470020704710B500291FD000220A60D6
:10E35000464A5368002B1DD04B24E400A04217D836
:10E360005B1E5360D0689723401CD06010699B00EF
:10E3700014684343E3180B6001210C469369844001
:10E380002343814393610020116110BD0E2010BD15
:10E390000C2010BD042010BDF0B5344B84469968A4
:10E3A00000292BD05A691020511AC907C90F964667
:10E3B0001D680A4601279726B6004E43AE196645EA
:10E3C00006D13D469C698D406C4000209C6104E074
:10E3D0000E463946B1438E45EDD13D469C698D438D
:10E3E000394691400C420AD19968002907D0491E4C
:10E3F000996059682A46491C5960F1E70420F0BD2C
:10E400001A4A012113691268994397239B005943C3
:10E410001B1FC91850500020704770B500281CD031
:10E4200000291AD0114AD368002B18D05B1ED36084
:10E43000936897265B1C93605369B6001D46146869
:10E440007343E61806604B20C00018182058086077
:10E450000120A8435061002070BD0E2070BD042033
:10E4600070BD00008D20002038270020F02B0020F8
:10E4700010B5884CA1692069405CFEF7F8F80028C7
:10E4800002D1A169491CA16110BD10B5C020FEF7E1
:10E49000EEF8002805D17F498A69002A01D17E4A19
:10E4A0008A6010BD10B57B4CA1692069405CC02812
:10E4B00003D0DB2803D0042010BDDC2000E0DD20E9
:10E4C000FEF7D5F80028F7D1A169491CA16172496E
:10E4D000A16010BD10B5DB20FEF7C9F8002802D1FD
:10E4E0006C4A6E49916010BD70B56B4D6C4E694CB5
:10E4F00010E0A1692069415CC02903D0A169405C9A
:10E50000DB2803D1A068A84200D1A660A06880479C
:10E51000042813D0A06961698842EAD36148A060E9
:10E52000FFF7B3FF002809D101202070E368002B1A
:10E5300004D05D48A26900682169984770BD30B475
:10E54000544B5A6A002A09D0DC68002C06D00020FF
:10E55000D9695862D861A44630BC604730BC704766
:10E56000C02808D04B49DB2806D0CB694A6A9854AA
:10E57000521C4A627047E2E74C484860704710B549
:10E58000444CC02808D021464A6ACB69511CDC287B
:10E5900005D0DD2806D104E0FFF7D1FF04E0C0205C
:10E5A00000E0DB20985461624148606010BDC028E3
:10E5B00002D138493E484860704770B5054600783A
:10E5C000344C032804D12078022812D1FFF78CFFA5
:10E5D000287804280DD1E169002903D0626A206AF5
:10E5E000824207D3E368002B03D02F48626AC068D9
:10E5F000984770BD61682879884770BD2549C86013
:10E60000002070471FB5234C2078002802D000203E
:10E6100004B010BD244A01AB183207CA07C31D4815
:10E620000323801C0090234A002101A8FDF77DFFF1
:10E630000028EDD101212170EAE710B5154800212D
:10E6400001704088FEF722F810BD10B5002807D0F1
:10E65000104A1378012B05D0022B0FD0082010BDD3
:10E66000102010BD002393615161106102201070D1
:10E670000C489060FFF738FF002010BD042010BD4B
:10E68000044A1162D061002050620B4850600020A3
:10E69000704700009020002071E40300A5E403000F
:10E6A000D5E403008BE40300C0EC03007FE5030026
:10E6B00061E50300BBE50300AFE5030010B5E948E1
:10E6C000E84C007DE41CC000207000206070A07049
:10E6D000204600F0B9F9E07004212046FFF7B5FFAD
:10E6E00010BDF3B581B04B26029FF600DD4C054608
:10E6F000042F65D92878410662D5010660D569786E
:10E700000A07120F0E2A5BD14118AA78E878101870
:10E7100008180006000E53D10022B91E2846FFF744
:10E7200081F9E9191039CA7B8B7B110219438842A0
:10E7300046D12878012741076069490FC2B28A4251
:10E7400031D1401C4007400F6061FFF7B7FF677091
:10E750000298FFF755FE002803D000221146FEF76D
:10E7600035FBC04930461031FFF7EDFD00280AD0D7
:10E77000042804D0002211461046FEF727FBB948B2
:10E7800005212C3001E031462069FFF779FF002890
:10E7900003D000221146FEF719FBE168002901D0E1
:10E7A00000208847FEBD31462069FFF769FF002839
:10E7B00003D000221146FEF709FBFFF77FFFFEBDE5
:10E7C00031462069FFF75CFF0028F8D0002211468F
:10E7D000FEF7FCFAFEBD70B5A24C257821464B6AC7
:10E7E000002D12D00A46116AD269012D1ED0022DC9
:10E7F0001BD1002828D0022834D0032815D1207E30
:10E80000401C4007400FA06138E000280DD1184699
:10E81000FEF713FE002803D000221146FEF7D6FAB9
:10E82000A168002901D0A078884770BD0128FCD1DB
:10E83000891D1046FFF709FF002803D0002211466A
:10E84000FEF7C4FA02201AE000200246A0628649C0
:10E850001846FEF7B5FD0028E7D000221146FEF766
:10E86000B5FA70BDA06A052806D0401CA062891DBB
:10E870001046FFF7EAFE70BD0120A070002000F0F6
:10E88000ECF870BD37B568460078002808D001283C
:10E8900002D002284BD14FE00120FFF79CFF3EBD84
:10E8A0000299704C0198042921D341780807000F80
:10E8B00006D00E281BD102990198FFF712FF3EBD2A
:10E8C000019803788278C078591810180818C0B2D7
:10E8D000002200280BD19806410F207E401C4007E3
:10E8E000400F884203D1A2700320FFF774FF4B252D
:10E8F0002069ED00002801D0294614E05949284636
:10E900001031FFF720FD002808D0042804D0002291
:10E9100011461046FEF75AFA052102E02946206901
:10E9200001E050482C30FFF7ABFE0028C7D0002292
:10E930001146FEF74BFA3EBD0521F2E710B504463D
:10E940004848C4604948FFF759FE002803D0002218
:10E950001146FEF73BFA002C01D0002010BD0E201E
:10E9600010BD022037E770B53E4C0020E061206208
:10E97000A0626070207001206061A061A0700146FB
:10E9800020463B4A2430FEF7BDFC002810D1FFF79B
:10E99000C9FC00280DD1FFF735FE002809D14B2511
:10E9A0002146ED0010312846FFF7CDFC002801D0AC
:10E9B000032070BD29462069FFF762FE70BD10B5C7
:10E9C000284C0020A060E060FFF7BBFC002803D0CB
:10E9D00000221146FEF7FAF9FFF72FFE002803D0B8
:10E9E00000221146FEF7F2F9606AFEF726FD0428C0
:10E9F00004D1002211461046FEF7E8F9002010BDB0
:10EA000038B50D46040017D0002D15D0002015494B
:10EA100000904A78002A0DD0487069462046FFF7DA
:10EA2000FCFC02460098801F009028802068001D92
:10EA3000206002E0042200E00E22104638BD10B52E
:10EA4000001FFFF7A9FC10BD0178427880785118AB
:10EA50004018C043401CC0B27047024908700020F3
:10EA6000B9E60000B8200020DF4F000085E8030071
:10EA700063E9030010B508461146FDF765FB10BDBC
:10EA8000F8B5344C2078002837D02069002807D00A
:10EA90000026E068002805D00025002E04D013E0F1
:10EAA0000126F6E70125F8E7684651DF052806D07C
:10EAB000002806D000221146FEF788F904E001265E
:10EAC00002E0216900988847002D12D160886946CC
:10EAD0000880A06861DF052806D0002806D0002243
:10EAE0001146FEF773F904E0012502E0E168A06831
:10EAF0008847002ED8D0002DCFD0F8BD70B50029A2
:10EB000001D08C0701D0072070BD124C0125A160F7
:10EB100062801149636010DF0028F5D1257016204E
:10EB20002EDF70BD002803D00A490861002070471D
:10EB30000E20704710B507484068002807D080476E
:10EB4000002803D000221146FEF740F910BDFFF760
:10EB500097FF10BDEC20002075EA030010B50029D6
:10EB600004D0002211461046FEF730F9FFF788FF67
:10EB700010BD10B50021024A0846FEF747F910BD46
:10EB80005DEB030030B50B46014600202022012436
:10EB900009E00D46D5409D4205D31D469540491BD1
:10EBA0002546954040191546521E002DF1DC30BD1A
:10EBB00003460B439B0703D009E008C9121F08C096
:10EBC000042AFAD203E00B78491C0370401C521E41
:10EBD000F9D27047D2B201E00270401C491EFBD24C
:10EBE00070470022F6E710B513460A460446194658
:10EBF000FFF7F0FF204610BD001D0321401E0378E3
:10EC000012021A43491EF9D510467047064C0125D9
:10EC1000064E05E02046E36807C82B4398471034AA
:10EC2000B442F7D3FDF750FAE4EC030004ED03001F
:10EC300030B47446641E2578641CAB4200D21D4675
:10EC4000635D5B00E31830BC184702E008C8121F80
:10EC500008C1002AFAD170477047002001E001C1C5
:10EC6000121F002AFBD170470200000000000000C4
:10EC70000000000000000000000100000300000090
:10EC8000B1D60300000000000000000002000000F8
:10EC90000000000000000000000000000000000074
:10ECA0000400000000000000000000000000000060
:10ECB0000000000061DA0300000000000000000016
:10ECC0000100000000000000000000000200000041
:10ECD00000000000000000000B09080A010000000D
:10ECE00000509D0004ED0300002000200001000002
:10ECF0004AEC030004EE0300002100201013000082
:10ED00005AEC03000024F40001000000FFFF0000A3
:10ED100000000000000000000000000000000000F3
:10ED200000000000000000000000000000000000E3
:10ED300000000000000000000000000000000000D3
:10ED400000000000000000000000000000000000C3
:10ED500000000000000000000000000000000000B3
:10ED600000000000000000000000000000000000A3
:10ED70000000000000000000000000000000000093
:10ED80000000000000000000000000000000000083
:10ED90000000000000000000AFE5030071E4030084
:10EDA0000000000000000000000000000000000063
:10EDB0000000000000000000000000000000000053
:10EDC0000000000000000000000000000000000043
:10EDD0000000000000000000000000000000000033
:10EDE0000000000000000000000000000000000023
:10EDF0000000000000000000000000000000000013
:04EE0000000000000E
:020000041000EA
:0410140000C0030015
:040000050003C0C173
:00000001FF
