:020000040001F9
:10800000183F0020D1810100EB810100ED810100CA
:108010000000000000000000000000000000000060
:10802000000000000000000000000000EF810100DF
:108030000000000000000000F1810100F381010058
:10804000F5810100F5810100F5810100F581010054
:10805000F58101000000000051B80100C5A6010033
:10806000F5810100F5810100F58101008DD001004D
:10807000F5810100F5810100F5810100F581010024
:10808000F5810100BDD00100F5810100F5810100FD
:10809000E5D00100EDD0010019D10100F58101000A
:1080A000F5810100F58101000000000000000000E2
:1080B00000000000000000000000000000000000C0
:1080C00000F002F800F038F80CA030C80838241886
:1080D0002D18A246671EAB4654465D46AC4201D100
:1080E00000F02AF87E460F3E0FCCB64601263342FA
:1080F00000D0FB1AA246AB46334318476C1401006C
:108100008C1401000023002400250026103A01D31E
:1081100078C1FBD8520700D330C100D50B6070473F
:1081200010B5782902D101F095FD10BD002010BDD9
:108130001FB51FBD10B510BD02F038FA1146FFF78C
:10814000F7FF0AF0E6FC02F050FA03B4FFF7F2FF83
:1081500003BC02F085FA0000401E00BF00BF00BF54
:1081600000BF00BF00BF00BF00BF00BF00BF00BF17
:1081700000BFF1D170470000401E00BF00BF00BF2C
:1081800000BF00BF00BF00BF00BF00BF00BF00BFF7
:1081900000BFF1D17047000070B505460C46164689
:1081A00002E00FCC0FC5103E102EFAD2082E02D3DB
:1081B00003CC03C5083E042E07D301CC01C5361FEE
:1081C00003E021782970641C6D1C761EF9D270BD05
:1081D00003210C4802680A4302600B4802680A4304
:1081E00002600A4880470A480047FEE7FEE7FEE7CC
:1081F000FEE7FEE7FEE7000006480749054A074B91
:10820000704700002405004054050040A5D201003D
:10821000C1800100183B0020183F0020183B0020BF
:1082200010B5DE4900220B78D243012B06D0553819
:10823000242805D3DAA00861104610BDE4A0FAE7AF
:10824000ED4AEE4B00204400401C40B21A531E2859
:10825000F9DB0020487010228A70C8700120087174
:108260000870002010BDCD4900200870704700281C
:1082700004D0CA4AD1609060002070470020C043FB
:108280007047C6480069704710B5C4498A68002A1B
:1082900003D0C9689047002010BD0020C04310BD26
:1082A000F7B584B01546060023D0002D21D000205C
:1082B00028568100D248445805981E211E3001F0EE
:1082C0008EFE48B24000315E204605F0E0F8B34A29
:1082D0009369D469C0186141D16101249061002182
:1082E0006956601C081803913C2806DBAB48C5A101
:1082F00001610020C04307B0F0BD00200090604243
:1083000047B202970DE005981E21C0191E3001F0FA
:1083100066FE48B24000315E009808187F1C7FB2AC
:108320000090A742EFDD61000191491C009801F027
:1083300056FE0090039800198100B14840580099FA
:1083400005F0A5F8954FBA69FB6980185941F961A4
:10835000B86100200390029F11E03946059800F0B3
:10836000B2F84000315A0098081A00B2002800DC28
:108370004042039900B240187F1C7FB20390A7428D
:10838000EBDD019F7F1CF817009000202856001994
:1083900081009B4808184068039905F078F83A4630
:1083A000009B01F0DDFB7D4A9369D769C0187941D4
:1083B000A41C64B2D16190610E2C90DD28780F303E
:1083C0002870002097E7FEB59446744C0A46217841
:1083D0000025ED43002943D0074601202056874958
:1083E0004600B4398F530F463C37BA533A4661467C
:1083F0003C32915381491F308B530326A6577F4B44
:10840000F7003C330899DB19099A06C31E2101F0D5
:10841000E6FD6170022020561E211F3001F0DFFDB5
:108420004FB2A7700F21701C01F0D9FDE17004203C
:1084300020560F21401C01F0D2FD21710020694619
:10844000087008716D487900405EB721C900884204
:1084500037DB684600F074F8002803D02846FEBDDC
:1084600076A00CE0684600780028F8D07E48811598
:10847000E161A06100F02FF8002802D07BA020610C
:10848000ECE7864BA069E1690022C01A914103DB49
:1084900001206946087101E0684605716846007967
:1084A00001280ED1042020563C4AC10053482032F6
:1084B0003C30401801684068116050601046FFF77A
:1084C000E3FE0020FEBD401810B51E301E2101F055
:1084D00086FD48B210BD38B50020694608702F4CA3
:1084E000464802216A466156B438FFF7D9FE002596
:1084F000ED43002819D1414802216A466156783877
:10850000FFF7CEFE002810D13C4802216A46615692
:108510003C38FFF7C5FE002807D102216A466156A4
:108520003648FFF7BDFE002801D0284638BD684612
:1085300000783C2802D05AA02061F6E7002038BD20
:10854000F8B5070020D00120144E2C4D3870044699
:10855000604241B202203056FFF7B5FF4000295E6D
:10856000022030564200AA5E91420ADA2146FFF705
:10857000AAFF0221715640004900285E695E8842C8
:1085800005DD0020387006E00020C043F8BD641C03
:1085900064B20A2CDCDD0020F8BD0000C0230020FE
:1085A000636C69636B20616C676F726974686D20BE
:1085B0006F6E6C7920737570706F727473203835BC
:1085C0007E313230485A2073616D706C6500000056
:1085D000636C69636B20616C676F726974686D208E
:1085E000686173206265656E20696E697469616C8B
:1085F000697A656400000000FF7F0000EC3600200F
:10860000E8920200746865206E756D626572206F75
:108610006620666561747572657320696E20636C8F
:1086200069636B20616C676F726974686D20697330
:10863000206E6F742072696768740000636C6963F0
:108640006B20616C676F726974686D20686173205C
:108650006E6F74206265656E20696E697469616C05
:10866000697A656400000000FB4FCFFF636C6963AB
:108670006B20616C676F726974686D206661696CEC
:108680007320746F20636F6D707574652070656101
:108690006B2066656174757265000000C027090073
:1086A000746865206E756D626572206F6620666500
:1086B000617475726573206973206E6F74207269BE
:1086C00067687420696E20636C69636B20616C67F6
:1086D0006F726974686D00003B4880687047FFB531
:1086E00081B001980A9F002808DD0298002805DD66
:1086F0000398002802DD0498002803DC0120C04311
:1087000005B0F0BD304D00240C35200100972E58E7
:1087100001A80FC8B04706000FD020014019C0685B
:10872000804729490024886020014019406880471B
:10873000641C022CF8DB3046E2E7641C022CE4DB0C
:10874000F9E770B50025204E2C460C362001801923
:10875000406880474519641C022CF7DB284670BD31
:10876000002803D0184A03C2002070470020C043ED
:108770007047FFB583B0144E00240C9F0C360D9843
:108780000190200100978019856803A80FC8A847A9
:10879000050008D020018019C06880470A49886018
:1087A000284607B0F0BD641C022CE8DBF9E710B5E1
:1087B00005490A68002A03D049689047002010BD87
:1087C0000020C04310BD0000E823002070B505461E
:1087D00000200F3DC043514C049E152D01D350A1E4
:1087E00003E0E578002D02D05CA1E16070BDA180BE
:1087F000E2802381A67000206070207000F040FFAE
:108800000120E070002070BD4448C178002903D0E9
:108810000021C170084670475CA1C1600020C043C0
:1088200070473E48C0687047FEB53C4CE578012D66
:1088300001D056A03AE000256E463580064601205C
:1088400020565E4F45007E533E463C3671533146BE
:108850003C314A533C314B53C3003546B43508993B
:10886000EB18099A06C31E21401C01F0B8FB48B260
:108870006070002850D1294A6846183211460839DC
:1088800000F009FF6A460021515E0191401806B2CE
:10889000F1173046E369A26901F04AF9484A00231A
:1088A00001F05EF90746002E04DA46A0E0600020E1
:1088B000C043FEBD002E0EDD0321019800F0E5FF50
:1088C00001464A48022246600260816021690761D0
:1088D000C160FFF76CFF394F18203C370121374D3D
:1088E00061564200AE5A4B00EE52BD5AFD52334D16
:1088F0007835AE5AEE523C35AA5AEA52C3002A469F
:108900003C32D518CE0028CD9219491C28C2401CF3
:1089100040B261701E28E1DB0020FEBD182400205B
:1089200064697374616E636520616C676F726974EA
:10893000686D20646F6573206E6F7420737570703E
:108940006F72742074686520696E7075742073612D
:108950006D706C65207261746500000064697374E9
:10896000616E636520616C676F726974686D206801
:10897000617320616C7265616479206265656E2047
:10898000696E697469616C697A656400646973749D
:10899000616E636520616C676F726974686D2068D1
:1089A0006173206E6F74206265656E20696E6974F4
:1089B00069616C697A65642079657400C837002044
:1089C000102700006661696C656420746F20636124
:1089D0006C6C2066756E6374696F6E206765745F7A
:1089E000737465705F64617461000000A8390020D1
:1089F00010B5A021FD4801F0E6FA10BDFB4A03C204
:108A0000704710B5A021F94801F0DDFA10BDF74913
:108A100003C9084301D0012070470020704730B5DA
:108A2000F24A7D25136852686D0100245B1962418A
:108A3000C01A914101DB012030BD002030BDEB4B5D
:108A40000CCB801A994101DA012070470020704751
:108A5000E648017A4289490009180A8282890A8710
:108A6000C28960310A80002141818181C181017AFE
:108A7000491C01727047FFB5DC4A8C46516810688A
:108A8000127AC8235A43D3171418099E0A9D4B41E2
:108A900005E0FFF7DDFFC8210020641843412846A8
:108AA000321B9841C8270021D21B8841F1DACF48F8
:108AB000009942895118418182896146511881810A
:108AC000C28902995118C181FFBD00B5C74B187A00
:108AD000002802D100BDFFF7BBFF187A1428FAD393
:108AE00000BDF8B5C1480025417A0091BF4A002079
:108AF00028236B4301469F18147A06E04B00FE18AA
:108B00001023F35E1818491CC9B28C42F6D8002C09
:108B100006D0214601F063FA0646002210460CE01A
:108B20000121F7E7410079181023CB5EF11A0029E3
:108B300000DC991B8A18401CC0B28442F2D8AB4FAB
:108B4000002C10D02146104601F049FAA900CA199C
:108B500000996D1C4900511880318E82EDB2088158
:108B6000032DC3D3F8BD0121EDE730B59F4918228D
:108B7000084680304B7A1A24825E045F5B00121B29
:108B800059181C241E25045F455F80311023CB5EDD
:108B9000601B642B0BDD0C23CB5E642B07DD404395
:108BA000524393498018884201DD012030BD0020E6
:108BB00030BD10B58D487D240268640141681219EA
:108BC0000023594102604160417A012251404172C3
:108BD00043818381C381037210BD844A00238032A4
:108BE000136253629362D362203203C2704730B57E
:108BF0007E4A804DA0321368526800245B1962419E
:108C0000C01A914101DB012030BD002030BD774BFF
:108C1000A0330CCB801A994101DA01207047002063
:108C2000704770B515460E4600F0CDF90324640276
:108C3000A0420BDA304600F0C6F9A04206DA284618
:108C400000F0C1F9A04201DA012070BD002070BD22
:108C500010B5FFF73AFFFFF744FFFFF786FF634CBD
:108C6000A034A17A0843A072FFF7A3FFE07A401C6A
:108C7000E07210BD10B5FFF7B0FFFFF7B9FE10BDF1
:108C800010B5FFF7C4FE002807D0584CA034E07A96
:108C90000F2802D2FFF7DCFFF9E710BDFFB583B064
:108CA0001C4616460F460398FFF7BBFF002809D164
:108CB0004E49A0310889401C0881FFF7A8FEE5173E
:108CC000002803D107B0F0BDFFF7C2FF20462946B8
:108CD000FFF7A5FE0028F7D120462946FFF7AFFE93
:108CE0000028EFD132463946019500940398FFF7EA
:108CF000C2FEE7E73D49A0318A7A82700989018086
:108D000070473A493B4BA03103C90022C01851417A
:108D100063E710B50C46002803D110461946FFF74B
:108D20006DFE002C01D1FFF76CFE10BD2F48B03056
:108D3000806A401C072800DBC01F70472B49B031F8
:108D4000896A0818072800DBC01F002800DAC01D48
:108D5000704770B5254C0023B034A06A002815DB9D
:108D6000254D0022101FFFF7E9FF80000019910038
:108D700000266958865F521C7143CB18072AF1DB25
:108D8000AF208000834201DA012070BD002070BD59
:108D90001649B031886A002806DB800040188078C8
:108DA000002801D00120704700207047134A531457
:108DB00082180E485941B03002624162991F8162A7
:108DC000704710B5094A0B4CB032116A506A091944
:108DD0000023584111625062FFF7A8FF9062022001
:108DE000FFF7ACFF8000801810BD0000C0390020E4
:108DF000A086010060EA00004C240020402BFEFF0A
:108E000010B50024FFF7A5FF002805D00224FFF7C6
:108E1000BFFF002800D001242046E5E76C49086A1E
:108E2000496A704730B51546044685B00120194699
:108E30007D220090D2000023284600F091FE02908F
:108E40006449A000085801906846FFF7B0FC05B0DF
:108E500030BDF8B5FFF7E2FF06460F46FFF7D0FF3B
:108E60005D4C050004D0012D04D0022D05D010E08A
:108E7000002000E0012020800BE06088002801D164
:108E80000A2020800020205E002802DD401E208075
:108E900001250220205EA8420CD032463B462846DF
:108EA000FFF7C0FF0220205E32463B462946FFF70F
:108EB00030FF6580F8BD10B5FFF7E2FEFFF781FFD8
:108EC000FFF718FFFFF7C5FFFFF71BFF8CE770B533
:108ED000054602460C460B460020FFF7A3FF3E491D
:108EE000002048800880681C00214C41054621462E
:108EF000FFF75CFF28462146FFF7BCFE70BDFFB5BB
:108F000081B016460F460B9D0A9C01E0FFF7D3FF88
:108F100020462946FFF76BFE0028F7D12046294658
:108F2000FFF775FE002805D123B232463946019875
:108F3000FFF7B4FE05B0F0BD10B5FFF7BCFFFFF7BB
:108F4000BAFFFFF7B8FF4FE7002801DD1E2802DD5A
:108F50000920C04370472049091F0A68002A02D02F
:108F60000120C043704740420860002070477CB534
:108F7000194E0C46361F0546336807990698002B94
:108F800005D007DA5A423260FFF7A1FF08E002205D
:108F9000C0437CBD0191009021462846FFF7AFFFFA
:108FA00000207CBD10B50C4C241F2068002805D083
:108FB00001DDFFF7C1FF0020206015E70220C0435C
:108FC00012E706A07047002800DC4042704700000E
:108FD000703A0020402400203C2400206465707218
:108FE0006563617465640000FE490A78012A03D153
:108FF00002880B89D218028000200870488088807F
:10900000C880C8600881086548658865C86588614A
:10901000C8618862C8627047F7B5F24C08202178B1
:109020002346185E002909D0002806DD0099009A21
:109030000988491C1180401E2081FEBDEA4BEB4986
:1090400000284AD0062805DB8D56ED005D1928CD95
:1090500065642364019B00255D57281803B2E44D25
:1090600023815000285A6588401906B266808856C8
:10907000E0494000085AA1880025401800B2A080AD
:10908000E188491C09B2E180072B3ADB00F0A7FF19
:10909000A36B226CE76B616CD21AB9417D277F010B
:1090A0000023BA1A00B28B4112DB062E10DC032E0D
:1090B00009DD7910884206DA218A401A00B200F0F0
:1090C0000CFB642804DCFF2160695F3188420BDD02
:1090D00025700098FFF788FF13E08D56ED005B19AF
:1090E00028CBE563A363B5E72189491C21810121D0
:1090F0002170E5602169A161E061206AA062606A77
:10910000E06201980570FEBDF1B50022B54982B05C
:10911000B94B0A611646154610469956B54F06E0FA
:10912000B24B9B565B00FB5E1818521C52B28A422F
:10913000F6DB00F054FFAB49AF4F08610020044656
:10914000486111E0A94800574100AA48415AA54882
:10915000008A081A00B200F0C0FAA2494969411811
:10916000A048641C64B24161002038568442E9DBA7
:10917000002179569B4C0091606900F030FF6061DE
:10918000236A216900209B4A4700D75F9F4201DD87
:10919000761C76B27F008F4201DD6D1C6DB2401CE3
:1091A00040B21E28EFDB00980027401CFF43864298
:1091B0001BDD854219DDA069002811D0401A00B2DC
:1091C00000F08BFAFF219131884209DDA08BA18A42
:1091D000401A00B200F081FAFF214131884204DCDC
:1091E000FF216069D731884206DD00202070029897
:1091F000FFF7FAFE3846FEBD0020FEBDF7B586B08B
:109200000D46002669460E70FA2002907B480190B8
:109210004B2000017D27049014463F010698FFF77C
:1092200073FF002873D16F4864210269D01B00F0DE
:10923000D6FE734A2C30915F04F029F9714A00235D
:1092400000F076FC03C46C488357042B01DB02203A
:1092500002E0022B02DB0120286001E000212960EE
:109260006048694A0169914202DD644AB73A0AE0FE
:10927000664A914208DA521AD40FA218E124521019
:10928000A400121912B201920278002A06D15D4A96
:10929000263A914202DAFF215F310291002B36DD3E
:1092A000FA1703924F4A906CD16C03460B4324D1BA
:1092B00000252C463CE0002EF4D0022E28DB4B4843
:1092C0001F218019203841561E24CA0046490457E0
:1092D0008A18E000081813680168526840685B1A31
:1092E000029C8241E5171B1BAA4111DA3F4A9257A3
:1092F000D3003D4AD31814CB18E03C4B00241C5734
:10930000394BE4001C1918CC1D1A8C4110E0BEE04A
:10931000364988578919C20033482039831814CB3D
:109320001F23CB56D900401801684068551A844164
:109330000398791BA04102DA0020C04313E004988F
:10934000C117401BA14101DA00200CE00198C117B0
:10935000401BA14101DA022005E00298C117401B21
:10936000A141E9DA0120694608701E48C0680E284C
:109370000FDD00200856401C10D1254A2046002150
:10938000AA1A884163DA00206946087015480D2141
:10939000C160694600200856401C58D0002008567D
:1093A000002850DD32460698FFF736FE6846002357
:1093B000C356002B47DD0B490A4A086D496D401919
:1093C000614151658446106510468E46826DC16DBF
:1093D000D817D218034B41419A65D9650B466046B0
:1093E000714617E068240020B8380020A03700201C
:1093F000A03A00207C3800201824002052030000EE
:109400001E2400206C050000F70900002D07000055
:10941000B80B000000F0A4FB401BA1416422002314
:1094200000F086FB2A46234600F09AFB50230022D8
:109430001B1A8A4107DAC8230022C01A914102DAB6
:109440000020694608702846204307D110E006989E
:10945000FFF7CAFD002069460870A7E769460020AB
:109460000856A0492A464843C117234600F078FB16
:109470009D4972008852684601789C4800238155B6
:109480009B48761CC35676B29E4200DA13E709B0B9
:10949000F0BDF1B50021974C0D46974E284621624C
:1094A0004A00B25E491C101849B21E29F8DB1E2181
:1094B00000F095FD6562002720627800305A218C0B
:1094C000401A00B200F009F9616A7F1C40187FB2AF
:1094D00060621E2FF1DB1E2100F081FD6062A06A38
:1094E000002812D0218C401A00B200F0F6F8FF27B5
:1094F0000537B84209DDA08DA18C401A00B200F0FA
:10950000ECF8B84201DD257018E07C4B616B206BF4
:1095100003225700F75FFF18632F01D2401C03E0BE
:10952000814200DA01460020521C52B21B2AF0DBB5
:1095300061632063082907DD257065630098FFF7E4
:1095400053FD0020C043F8BD0020F8BDF7B58AB038
:109550000020684C0790E16CA06C049000200591FD
:1095600002900A98FFF795FF00287AD16049624B74
:1095700008702146624F0D6A0320012142009A5E65
:10958000441A64001C5FA24209DD441864001C5F99
:10959000A24204DB491C49B20329F1DD01E00329A1
:1095A00030DD58498A4214DD294699318A4203DC6C
:1095B0004B2109018A420CDB0499FA26059C002202
:1095C0008E195441C10079180A684968B61A8C414D
:1095D00004DB0299491C49B2029113E0079C0492F2
:1095E000641C64B207940591414C00216156464ABF
:1095F000464E50544C00029A3253002202923C4A8A
:10960000491C1170401C40B21B28B6DB079801288A
:1096100029DB0AA807C8FFF7F1FD364A0599049827
:10962000D164334D906400202856304A04462E4BB6
:1096300035490EE00E18203EF67F0E541618203ED7
:10964000F67F16544600F718203FFF8B401E9F53AD
:1096500040B20028EEDC0020087010701880641CF6
:109660002C700DB0F0BD234801780029F9D00A997B
:109670000289098889180A9A118000210181F0E77E
:109680001C480021C1608164C16441808180C18027
:10969000012141707047F8B5164F064678780128C9
:1096A00002D00020C043F8BD002425463480304657
:1096B000FFF74CFF0E4A0D49105704E00A575219A4
:1096C000641C15B264B28442F8DB0020F968305E95
:1096D00049194018F8602846F8BD002801DA4042D0
:1096E00000B2704740420F00B4370020AA37002074
:1096F00018240020682400207C38002049FCFFFF4B
:10970000B83800207E040000A0370020A03A0020D6
:10971000FFB58FB0F2480590189F40421C460B9051
:10972000381B401C40B20090002009900890029025
:1097300001900A900790069003901E46049040E026
:1097400010987500405F00F0C7F903994018039026
:10975000E448405F00F0C0F9069940180690E248DE
:10976000405F00F0B9F9029940180290DF48405F6D
:1097700000F0B2F9019940180190DD48405F00F017
:10978000ABF9079940180790D748415F0A98081825
:109790000A90D648415F099808180990D448415F5B
:1097A00008980818089010980B99405F884200DDCF
:1097B00001460B910599884200DB0846761C76B27B
:1097C0000590BE42BCDD0099029800F008FC0290B2
:1097D0000099019800F003FC01900099079800F0AF
:1097E000FEFB07900099069800F0F9FB069000999F
:1097F0000A9800F0F4FB0A900099099800F0EFFB3A
:1098000009900099089800F0EAFB08901DE06000BC
:10981000B5490C90095E0A98081A00F05DF90499A0
:109820004618B2490C98095E0998081A00F054F9D4
:109830000546AF490C98095E0898081A00F04CF9E3
:1098400028183018641C64B20490BC42DFDD029911
:1098500001987D2209180798D200091806985043EC
:1098600000F0BDFB04460099049800F0B8FB0546E3
:109870000099039800F0B3FB059A0B99891A0F9A87
:10988000131D31C3116013B0F0BDF3B5002193B0C7
:1098900008910D460E460F46079101240991F7E005
:1098A000944A105D00287DD0601E0F9092496000A0
:1098B000085E844601200590601E149940B2611A2A
:1098C0000DE08C4A0F90125C002A0CD08A4A4300AB
:1098D000D25E9444059A521C401E40B20592002864
:1098E00001DB8142EDDD6046059900F078FB0A90CE
:1098F00082480F99435601578B4253DC002B51DBB2
:109900001E294FDA00911E2276490BA8FFF700FFAF
:109910007B490B9840187D21C9004843794900F0E4
:109920005EFB119078490A9840187D21C900484390
:10993000FF21DF3100F053FB0A90744900200856E4
:1099400010906E486D4A0F9B0057D256C100D3004D
:109950006F486F4A4118D21803C913685268C01A79
:109960009141059AD31700F0FBF8014601900C983D
:1099700048437D21C90000F032FB01990090484323
:109980007D21C90000F02BFB12907D220B98D200A4
:1099900050430C9900F023FB05905E48019908188C
:1099A0007D2100E072E0C90048438B2100F017FBE5
:1099B000019058490098B93940187D21C9004843A1
:1099C000CB2100F00CFB009012987D21FF388138EC
:1099D000C9004843D72100F002FB12904E49059878
:1099E00040187D21C9004843FF21AA3100F0F7FA51
:1099F0000590ED210E988900401A7D21C900484349
:109A000040492A3100F0EBFA014633221198D24343
:109A100050430A9A17235A438218404B10985843D0
:109A2000121816230198DB435843121800981B1D87
:109A30005843121812984301181A1218059818233F
:109A4000584310186B2251434018364B34490022BA
:109A50009A5E4018C117D31700F06AF800902548A5
:109A6000019100570B46C117009A00F061F8089B5E
:109A7000079AC018514108900791099800217F1C4E
:109A8000484109900098019B2D185E41641C64B206
:109A90002548002141568C4200DA01E70022114698
:109AA0000998D21B814107DA03463A4628463146D7
:109AB00000F056F805460E46139A2846D31731464D
:109AC00000F036F8089B079AC0185141174A002346
:109AD00000F046F815B0F0BD002800DA40427047AB
:109AE000BC7F00007C380020C837002004380020EC
:109AF00040380020AA370020B4370020A0370020CB
:109B0000DFFAFFFFBB020000B8F7FFFF1A240020B6
:109B1000B8380020F6FDFFFF51FCFFFF7F76FFFF06
:109B2000086F07001C2400201824002010270000C4
:109B30004343514330B55C18010C130C0D4692B2EF
:109B40005D4380B251432C19054655430A0C090464
:109B50004D1962415843010C00044019514130BD78
:109B600070B500252C46AD1A9C4112DA00252C4612
:109B70002D1A8C4102DA00F0D0FB70BD0024404267
:109B80008C41214600F0C9FB002440428C41214613
:109B900019E000252C462D1A8C410ADA0024524285
:109BA0009C41234600F0B9FB002440428C412146F1
:109BB00070BD002452429C414042234600248C4107
:109BC000214600F0AAFB002452429C41234670BD6E
:109BD0000FB41CB5084B06AA7B4469460090059853
:109BE00000F079FC04460020694600F087FC20461E
:109BF0001CBC08BC04B0184721090000F8B50F468A
:109C00000188090502D5224C7C4402E0204C7C44AA
:109C10000E3405460021243508E016071209360FD8
:109C2000A65D6E541E0732431B09491C16461E438F
:109C3000F3D1224604780023240705D5702F06D0DF
:109C4000002901D00223113200F0E8FBF8BD012306
:109C50001032F9E770B504460D4621461068C0463B
:109C6000C0460023024629462046FFF7C7FF70BDC5
:109C7000D21DD308DB000CCBC0E730B4036820242E
:109C80001268234303600823C36130BC0023B5E797
:109C9000CCF70000F3B50446002081B020622046D6
:109CA000E1688847002872D0252802D06268A16840
:109CB000ABE0594F00267F442046E16888472028C2
:109CC000054608DB312D06D27819203800780028A7
:109CD00001D00643F0E7B00701D5042086430020F9
:109CE000E0610746A0612A2D0AD0284603F0F5FB63
:109CF000002827D0B8000019303D0090856119E098
:109D00000298BA00121902C8916102902046E168D7
:109D10008847012F054617D1E06900281FDA202067
:109D200086431CE000980A21806948430099401945
:109D3000303888612046E1688847054603F0CDFB4E
:109D40000028EFD1012F0AD02E2D08D12046E1683E
:109D500088470546202006437F1C022FC3DBA069ED
:109D6000002803DA4042A06101200643F00701D039
:109D7000102086436C2D0BD0682D09D04C2D3CD083
:109D80006A2D38D0742D38D07A2D36D016E040E0C8
:109D9000E1682F4620468847B842054609D16C2F16
:109DA00029D001208002E168064320468847054605
:109DB00004E06C2F1DD0FF2001300643002D28D079
:109DC00028464138192803D80120C002064320350F
:109DD000204626602946029A1646FEF7A1F9002879
:109DE00010D001280BD0F61DF008C00008300290FA
:109DF00055E74020E1E78020D5E70020D3E7361D76
:109E000002964CE762682846A1689047206A401C89
:109E100044E7206AFEBD000046F70000034610B587
:109E20000B439B070FD1042A0DD308C810C9121F7A
:109E3000A342F8D018BA21BA884201D9012010BD36
:109E40000020C04310BD002A03D0D30703D0521C0A
:109E500007E0002010BD03780C78401C491C1B1B38
:109E600007D103780C78401C491C1B1B01D1921EA2
:109E7000F1D1184610BD0000034670B502460B43F1
:109E80009B070FD10E4CE60100E008C208C91D1B5C
:109E90009D433542F9D0D9B21170521C00290DD022
:109EA0001B0AF8E70B78491C1370521C002B05D0D5
:109EB0000B78491C1370521C002BF3D170BD0000AD
:109EC0000101010130B5441C03E00178401C002968
:109ED0000DD08107F9D10B4BDD0104C8D11A914394
:109EE0002940FAD0001B0A0603D0C01E30BD001B5B
:109EF00030BD0A0401D0801E30BD0902FCD0401ED6
:109F000030BD000001010101F8B5042A2CD38307FC
:109F100012D00B78491C0370401C521E83070BD0D3
:109F20000B78491C0370401C521E830704D00B7829
:109F3000491C0370401C521E8B079B0F05D0C91A89
:109F4000DF002023DE1B08C90AE0FEF725F9F8BD73
:109F50001D4608C9FD401C46B4402C4310C0121FCA
:109F6000042AF5D2F308C91A521EF0D40B78491C02
:109F70000370401C521EEAD40B78491C0370401C2D
:109F8000012AE4D409780170F8BD01E004C0091F7A
:109F90000429FBD28B0701D50280801CC90700D0A1
:109FA0000270704700290BD0C30702D00270401C1A
:109FB000491E022904D3830702D50280801C891E12
:109FC000E3E70022EEE70022DFE7002203098B42ED
:109FD0002CD3030A8B4211D300239C464EE0034648
:109FE0000B433CD4002243088B4231D303098B42FC
:109FF0001CD3030A8B4201D394463FE0C3098B4232
:10A0000001D3CB01C01A524183098B4201D38B018A
:10A01000C01A524143098B4201D34B01C01A52412D
:10A0200003098B4201D30B01C01A5241C3088B4272
:10A0300001D3CB00C01A524183088B4201D38B005D
:10A04000C01A524143088B4201D34B00C01A5241FF
:10A05000411A00D201465241104670475DE0CA0FD6
:10A0600000D04942031000D34042534000229C4696
:10A0700003098B422DD3030A8B4212D3FC228901A0
:10A0800012BA030A8B420CD3890192118B4208D376
:10A09000890192118B4204D389013AD0921100E0D8
:10A0A0008909C3098B4201D3CB01C01A52418309EC
:10A0B0008B4201D38B01C01A524143098B4201D319
:10A0C0004B01C01A524103098B4201D30B01C01A44
:10A0D0005241C3088B4201D3CB00C01A52418308BE
:10A0E0008B4201D38B00C01A5241D9D243088B4214
:10A0F00001D34B00C01A5241411A00D201466346B7
:10A1000052415B10104601D34042002B00D549421A
:10A11000704763465B1000D3404201B50020C04643
:10A12000C04602BD7047704770470000F0B5FF257C
:10A130002D04C609C209FF2704462E400137CB096A
:10A140003E4348402A402B400746002A6BD0002B54
:10A1500069D0AA4267D0AB4265D0002800DA324607
:10A160000125ED0529432C4309022002090AD21AD0
:10A170004B0C7F24E31A434C000A7C44E35C7D24AF
:10A180002404121914145B00A218884201D3521C33
:10A1900000E0400049420C465C4324115C43DB0173
:10A1A0006415E318040A5C43C502200D0C464443C1
:10A1B0006419250A5D432303EC0C0D466543000337
:10A1C0000019EB184C42A34201D35B18401CD40584
:10A1D0002018002B07D05B00C91804D3401C0029AD
:10A1E00001D1400840003F2189048A4209D3002A56
:10A1F00008DC1106090F04D0032149074018C00FDD
:10A20000C007F0BD01224100120689187F225206C4
:10A210009142F6D205214907C84201D59010F0BD00
:10A22000FF20C005F0BD002F00DA32461648AA42D2
:10A2300007D2AB4205D21902090E17D0F80FC0079A
:10A24000F0BDFF2563002D06AB42F9D84900A942B5
:10A25000F6D8AB4201D1A942F2D0A94201D10021E6
:10A2600001E061004908D0050843F0BD1102090E64
:10A27000FBD0FF200243D005F0BD0A460146104640
:10A2800054E7000093F200000000C07F0102C215F5
:10A2900004D00123DB071943002A0ADB9E239A1A04
:10A2A00002D40846D0407047FF2241001206914276
:10A2B00001D900207047C017C04370471F22030C0C
:10A2C00002D10F2200041CD0030E01D10002083A73
:10A2D000030F01D10001121F830F01D18000921ED4
:10A2E000002801DB4000521ED205511802125118FD
:10A2F0001922904004D3491C002801D14908490083
:10A3000008467047C10FC90700D04042012292079A
:10A310001143D3E701218907D0E7FEB50546104672
:10A320000C46184373D0AE468C460020AD1A014649
:10A330009C4167D36646002701243D46B61A9D41DD
:10A3400002D313463A462124654676462F04360C3E
:10A350003E432D0CB61A9D4104D3150C1B042B4310
:10A3600012041034654676462F06360A3E432D0AFF
:10A37000B61A9D4104D3150E1B022B43120208345A
:10A38000654676462F0736093E432D09B61A9D418C
:10A3900004D3150F1B012B431201241D654676467D
:10A3A000AF07B6083E43AD08B61A9D4104D3950FDA
:10A3B0009B002B439200A41C65467646EF07760867
:10A3C0003E436D08B61A9D411AD392185B41641C36
:10A3D00016E00018764665464941B71A9D4101913D
:10A3E000009009D36046B11A98418E468446009881
:10A3F00001990025401C6941DD0752082A435B088A
:10A40000641EE6D57246634603B0F0BDFFE7002048
:10A410000146C046C0462A462346F5E7FFB5044636
:10A420000D4681B0243000902168880604D51022A2
:10A43000E0699143216000E00120A84201DD471B53
:10A4400000E000270498A1697A191018081AA06181
:10A450002078C00602D42046C046C046002608E048
:10A4600003986268A168805D9047206A401C761C52
:10A47000206204988642F3DB2078C0060AD5204685
:10A48000C046C04606E06268A16830209047206A56
:10A49000401C206238467F1E0028F4DC07E000984C
:10A4A0006268A168405D9047206A401C206228468F
:10A4B0006D1E0028F3DC2046C046C046207800060A
:10A4C00002D5022005B0F0BD0120FBE701694A1C5E
:10A4D00002610878704700B58FB0029100210591A4
:10A4E0000549019379440391114604906846FFF7AA
:10A4F000D1FB0FB000BD0000E5FFFFFF0A68107040
:10A50000521C0A607047000010B5FF231B06440070
:10A510009C421DD84C009C421AD80346124A0B4359
:10A5200007D4401A02D3EFF3008010BDEFF3008090
:10A5300010BD081A06D2EFF3008001219043C9072D
:10A54000084302E0EFF30080904380F3008810BDE1
:10A550000D231B041A4204D01146002000F006F817
:10A5600010BD00F01BF810BD00000090C80212D50D
:10A570004803400F002804D0C803C043012188408D
:10A580007047EFF300800001000903210907084329
:10A5900080F30088704700207047000010B5024823
:10A5A00000F02BF810BD00000000C07F754600F0E1
:10A5B00053F8AE46050069465346C008C0008546BC
:10A5C00018B020B5FDF718FE60BC00274908B64654
:10A5D0000026C0C5C0C5C0C5C0C5C0C5C0C5C0C5B2
:10A5E000C0C5403D49008D46704710B50446C04681
:10A5F000C0462046FDF7A9FD10BD10B50C46110759
:10A60000090F092904D00A290AD008290CD104E02D
:10A6100011460820FFF7AAFF06E0510606D501E023
:10A62000510601D50120C007214610BDD10607D52E
:10A6300001010909CC084907000E0006044309E09E
:10A64000410F20024907000A0143200E00061D2287
:10A65000D14101430846E7E700487047B43A00207B
:10A6600001491820ABBEFEE726000200704770B516
:10A670008C180578401C6B075B0F01D10378401CD8
:10A680002A1106D10278401C03E00678401C0E70A7
:10A69000491C5B1EF9D12B0705D40023521E0DD493
:10A6A0000B70491CFAE70378401CCB1A921C03E09C
:10A6B0001D780D70491C5B1C521EF9D5A142D8D3E0
:10A6C000002070BDF8B500263948006800286BD01E
:10A6D00000203749086037488668012036494860BD
:10A6E0004B210901714308460A21FFF76EFC2B211B
:10A6F000484307463149FFF768FC044605F0C8FEA9
:10A7000002282FD02E48006800280AD12D49087051
:10A7100000BF03E081002A4A5450401C0628F9DBA0
:10A720001CE028480078800025490C500621254867
:10A730000078401CFFF753FCC8B22249087000247F
:10A74000002004E081001E4A51580C19401C0628C4
:10A75000F8DB06212046FFF738FC044606F0E2FF4E
:10A76000241A02E000201649086017490C80A0B2A4
:10A7700005F040FD1549087015480068002812D002
:10A78000134801210268114803F0F6F9054600BF9D
:10A790002F46002F06D000BF00221146384603F096
:10A7A00031F900BF00BF00BF002002490860F8BDBA
:10A7B000007100400075004000700040FF03000081
:10A7C000C42C00206820002062200020602000208F
:10A7D0006420002010B502F097FD10BD014601482D
:10A7E0000160704718220020F8B504460F46514911
:10A7F0003846FFF7EAFB0D463C212846FFF7E5FB0C
:10A800002171E12109012846FFF7DFFB0E463C21BB
:10A810003046FFF7DAFB6071E12109012846FFF7B6
:10A82000D4FBA07143493846FFF7CFFB85B27D20AA
:10A83000000120801EE02088FF219131FFF7CFFB2F
:10A8400000290DD020886421FFF7C9FB00290AD018
:10A850002688F017800F801980108000301A02D1EE
:10A86000FF206F3001E0FF206E30281A85B220886B
:10A87000401C20802088FF219131FFF7B0FB002988
:10A880000DD020886421FFF7AAFB00290AD0268872
:10A89000F017800F801980108000301A02D1FF203D
:10A8A0006F3001E0FF206E30A842C4DD0020A070B0
:10A8B00020E02088FF219131FFF791FB00290DD086
:10A8C00020886421FFF78BFB002909D02688F01728
:10A8D000800F801980108000301A01D1012000E023
:10A8E00000200090A17808F0A1FA281A85B2A0787B
:10A8F000401CA0702088FF219131FFF770FB0029D8
:10A900000DD020886421FFF76AFB002909D0268832
:10A91000F017800F801980108000301A01D10120BB
:10A9200000E000200090A17808F080FAA842C0DD85
:10A93000E570F8BD805101000148007870470000C3
:10A94000372200200148007870470000382200209C
:10A95000F8B5002406F0F0FE044602F0FDF9FF23EE
:10A96000013300220221104602F01AFC9E48002307
:10A97000132219460090184602F045FA9A484030D2
:10A980000123132219460090002002F03CFA964859
:10A9900080300223132219460090002002F033FA7F
:10A9A0009148C0300323132219460090002002F082
:10A9B0002AFAFF23013300221146104602F0F0FB71
:10A9C0008A492046FFF701FBC0008749283945180E
:10A9D00001231C2219461520009502F014FA834920
:10A9E0002046FFF7F2FAC00055307F492839451854
:10A9F00002231C2219461520009502F004FA7B4917
:10AA00002046FFF7E2FAC000AA30774928394518F6
:10AA100003231C2219461520009502F0F4F97D212C
:10AA2000C9002046FFF7D1FA06460A21FFF7CDFA02
:10AA3000C8006D49283945180123242219461D20D4
:10AA4000009502F0E0F97D21C9002046FFF7BDFA2C
:10AA500006460A21FFF7B9FAC8005530624928397D
:10AA600045180223242219461D20009502F0CBF937
:10AA70007D21C9002046FFF7A8FA06460A21FFF704
:10AA8000A4FAC800AA3058492839451803232422BB
:10AA900019461D20009502F0B6F964212046FFF703
:10AAA00094FA06460A21FFF790FAC8004E49283961
:10AAB000451801232C2219462520009502F0A3F900
:10AAC00064212046FFF781FA06460A21FFF77DFA46
:10AAD000C800553044492839451802232C2219460C
:10AAE0002520009502F08FF964212046FFF76DFACA
:10AAF00006460A21FFF769FAC800AA303A49283900
:10AB0000451803232C2219462520009502F07BF9D5
:10AB10000A212046FFF759FA06460A21FFF755FA9F
:10AB2000C8003149283945180123342219462D20FF
:10AB3000009502F068F90A212046FFF746FA06461A
:10AB40000A21FFF742FAC80055302749283945182D
:10AB50000223342219462D20009502F054F90A21CF
:10AB60002046FFF732FA06460A21FFF72EFAC80000
:10AB7000AA301D49283945180323342219462D20AF
:10AB8000009502F040F90A212046FFF71EFAC8009E
:10AB900015492839451801233C22194635200095CE
:10ABA00002F031F90A212046FFF70FFAC8005530AC
:10ABB0000D492839451802233C22194635200095B5
:10ABC00002F021F90A212046FFF7FFF9C800AA3058
:10ABD00005492839451803233C221946352000959C
:10ABE00002F011F9F8BD00006030002010270000CD
:10ABF00038B50446642C11D102F0AEF8FF230133BE
:10AC000000220721104602F0CBFA0D4804233F2210
:10AC100000210090084602F0F6F810E002F09CF8DF
:10AC2000FF23013300220621104602F0B9FA04483E
:10AC300004233F2200210090084602F0E4F838BDCA
:10AC400038300020F8B500240025002606F0BEFDAF
:10AC5000054646242946614308466421FFF7B5F9B5
:10AC6000064602F079F8FF23013300220221104644
:10AC700002F096FA9E4800231322194600901846C7
:10AC800002F0C1F89A48403001231322194600907F
:10AC9000002002F0B8F896488030022313221946AB
:10ACA0000090002002F0AFF89148C0300323132237
:10ACB00019460090002002F0A6F8FF23013300227D
:10ACC0001146104602F06CFA8A493046FFF77DF9CA
:10ACD000C00087491439471801231C221946152042
:10ACE000009702F090F883493046FFF76EF9C000F4
:10ACF00055307F491439471802231C221946152064
:10AD0000009702F080F87B493046FFF75EF9C000FB
:10AD1000AA3077491439471803231C2219461520F5
:10AD2000009702F070F87D21C9003046FFF74DF919
:10AD30000A210090FFF749F9C8006D4914394718F6
:10AD40000123242219461D20009702F05CF87D2182
:10AD5000C9003046FFF739F90A210090FFF735F9AD
:10AD6000C800553062491439471802232422194675
:10AD70001D20009702F047F87D21C9003046FFF7FB
:10AD800024F90A210090FFF720F9C800AA30584999
:10AD9000143947180323242219461D20009702F076
:10ADA00032F864213046FFF710F90A210090FFF7CE
:10ADB0000CF9C8004E491439471801232C221946B2
:10ADC0002520009702F01FF864213046FFF7FDF8B8
:10ADD0000A210090FFF7F9F8C800553044491439AA
:10ADE000471802232C2219462520009702F00BF861
:10ADF00064213046FFF7E9F80A210090FFF7E5F8F3
:10AE0000C800AA303A491439471803232C2219469E
:10AE10002520009701F0F7FF0A213046FFF7D5F80B
:10AE20000A210090FFF7D1F8C800314914394718BA
:10AE30000123342219462D20009701F0E4FF0A2156
:10AE40003046FFF7C2F80A210090FFF7BEF8C800AD
:10AE500055302749143947180223342219462D202A
:10AE6000009701F0D0FF0A213046FFF7AEF80A2123
:10AE70000090FFF7AAF8C800AA301D4914394718F6
:10AE80000323342219462D20009701F0BCFF0A212C
:10AE90003046FFF79AF8C8001549143947180123BE
:10AEA0003C2219463520009701F0ADFF0A213046BB
:10AEB000FFF78BF8C80055300D49143947180223A5
:10AEC0003C2219463520009701F09DFF0A213046AB
:10AED000FFF77BF8C800AA30054914394718032347
:10AEE0003C2219463520009701F08DFFF8BD000087
:10AEF0004C30002010270000F8B5412401F02CFF51
:10AF0000FF23013300221146104602F049F9642163
:10AF10002046FFF764F806460A21FFF760F8C800EC
:10AF20006049451801232C2219462520009501F07F
:10AF30006AFF64212046FFF752F806460A21FFF710
:10AF40004EF8C80055305749451802232C2219469F
:10AF50002520009501F057FF64212046FFF73FF8B8
:10AF600006460A21FFF73BF8C800AA304D494518AC
:10AF700003232C2219462520009501F044FF0A21C5
:10AF80002046FFF72CF806460A21FFF728F8C800EC
:10AF9000444945180123342219462D20009501F01B
:10AFA00032FF0A212046FFF71AF806460A21FFF76A
:10AFB00016F8C80055303B4945180223342219467B
:10AFC0002D20009501F01FFF0A212046FFF707F80A
:10AFD00006460A21FFF703F8C800AA303149451890
:10AFE0000323342219462D20009501F00CFF0A217D
:10AFF0002046FEF7F4FFC8002A49451801233C22E9
:10B0000019463520009501F0FEFE0A212046FEF784
:10B01000E6FFC80055302349451802233C22194653
:10B020003520009501F0EFFE0A212046FEF7D7FFFC
:10B03000C800AA301B49451803233C221946352075
:10B04000009501F0E0FEFF230133002203211046AA
:10B0500002F0A6F80120144908701248203000239D
:10B060001F2219460090184601F0CDFE0D486030B1
:10B0700001231F2219460090002001F0C4FE094858
:10B08000A03002231F2219460090002001F0BBFED1
:10B090000448E03003231F2219460090002001F0ED
:10B0A000B2FEF8BD383000203822002008B501F08B
:10B0B00053FEFF23013300220521104602F070F8F1
:10B0C000044804233F2200210090084601F09BFE23
:10B0D00008BD000038300020FEB500BF00BF06F0FC
:10B0E00075FB044606F03AFB019064216143084673
:10B0F0000199FEF76AFFC5B201F02EFEFF2301336E
:10B1000000220221104602F04BF8B9480023132216
:10B1100019460090184601F076FEB54840300123EC
:10B12000132219460090002001F06DFEB0488030D7
:10B130000223132219460090002001F064FEAC485F
:10B14000C0300323132219460090002001F05BFE5B
:10B150003C2300220121104602F022F864212846F7
:10B16000FEF73DFF07460A21FEF739FF8800081861
:10B170009F4946180023222219461E20009601F0FE
:10B1800042FE0A212846FEF72AFF07460A21FEF75B
:10B1900026FF8800081896494618002327221946DA
:10B1A0002320009601F02FFE0A212846FEF717FF04
:10B1B000880008188E49461800232C22194628209A
:10B1C000009601F020FE8A483730002331221946CC
:10B1D00000902D2001F017FEFF23013300221146BD
:10B1E000104601F0DDFF83492046FEF7EEFEC00069
:10B1F0007F49461801231C2219461520009601F0AC
:10B2000002FE7C492046FEF7E0FEC000553078493A
:10B21000461802231C2219461520009601F0F3FD62
:10B2200074492046FEF7D1FEC000AA307049461886
:10B2300003231C2219461520009601F0E4FD7D2110
:10B24000C9002046FEF7C1FE07460A21FEF7BDFEF3
:10B25000C800674946180123242219461D2000967C
:10B2600001F0D1FD7D21C9002046FEF7AEFE074664
:10B270000A21FEF7AAFEC80055305D494618022390
:10B28000242219461D20009601F0BDFD7D21C90034
:10B290002046FEF79AFE07460A21FEF796FEC800F2
:10B2A000AA30534946180323242219461D2000962C
:10B2B00001F0A9FD64212046FEF787FE07460A211A
:10B2C000FEF783FEC8004A49461801232C2219467E
:10B2D0002520009601F097FD64212046FEF775FEBB
:10B2E00007460A21FEF771FEC8005530404946184E
:10B2F00002232C2219462520009601F084FD6421AA
:10B300002046FEF762FE07460A21FEF75EFEC800F1
:10B31000AA303749461803232C22194625200096C7
:10B3200001F071FD0A212046FEF74FFE07460A2173
:10B33000FEF74BFEC8002E49461801233422194659
:10B340002D20009601F05FFD0A212046FEF73DFE0C
:10B3500007460A21FEF739FEC80055302449461831
:10B360000223342219462D20009601F04CFD0A21BB
:10B370002046FEF72AFE07460A21FEF726FEC800F1
:10B38000AA301B4946180323342219462D20009663
:10B3900001F039FD0A212046FEF717FEC8001449C6
:10B3A000461801233C2219463520009601F02BFD5A
:10B3B0000A212046FEF709FEC80055300C49461800
:10B3C00002233C2219463520009601F01CFD0A217B
:10B3D0002046FEF7FAFDC800AA30054946180323A7
:10B3E0003C2219463520009601F00DFDFEBD0000FF
:10B3F000383000201027000038B506F073FC0446F2
:10B4000001F0AAFCFF23013300220121104601F0C4
:10B41000C7FEFE480023082219460090012001F0D3
:10B42000F2FCA0780A2820DBA0780A21FEF7D7FDDD
:10B4300081004018F549E139451800230F221946CB
:10B440000B20009501F0DFFCA0780A21FEF7C7FD74
:10B4500088000818ED49E1394518002315221946DE
:10B460001120009501F0CFFC18E0E848E1380023F6
:10B470000F22194600900B2001F0C5FCA0780A218C
:10B48000FEF7ADFD88000818E049E13945180023B2
:10B49000152219461120009501F0B5FCDB48AF38A4
:10B4A00000231B2219460090172001F0ACFCE07825
:10B4B0000A2820DBE0780A21FEF791FD8100401880
:10B4C000D249E13945180023212219461D20009553
:10B4D00001F099FCE0780A21FEF781FD8800081848
:10B4E000CA49E1394518002327221946232000952F
:10B4F00001F089FC18E0C548E138002321221946F3
:10B5000000901D2001F07FFCE0780A21FEF767FD26
:10B5100088000818BD49E13945180023272219463B
:10B520002320009501F06FFCB848A53800233B228A
:10B53000194600902D2001F066FCFF230133002204
:10B540001146104601F02CFEA0790A285EDBA07996
:10B550000A21FEF744FDC000AC49E139451801233A
:10B56000082219461846009501F04DFCA0790A21E1
:10B57000FEF735FDC0005530A449E13945180223D6
:10B58000082219460120009501F03DFCA0790A210E
:10B59000FEF725FDC000AA309C49E1394518032378
:10B5A000082219460120009501F02DFCA0790A21FE
:10B5B000FEF715FDC8009549E1394518012312220F
:10B5C00019460B20009501F01EFCA0790A21FEF718
:10B5D00006FDC80055308D49E13945180223122275
:10B5E00019460B20009501F00EFCA0790A21FEF708
:10B5F000F6FCC800AA308549E13945180323122218
:10B6000019460B20009501F0FEFB49E07F48E13828
:10B610000123082219460090184601F0F4FB7B48EC
:10B620008C380223082219460090012001F0EBFB20
:10B63000764837380323082219460090012001F08C
:10B64000E2FBA0790A21FEF7CAFCC8006F49E13984
:10B6500045180123122219460B20009501F0D3FB57
:10B66000A0790A21FEF7BBFCC80055306749E139D3
:10B6700045180223122219460B20009501F0C3FB46
:10B68000A0790A21FEF7ABFCC800AA305F49E13976
:10B6900045180323122219460B20009501F0B3FB35
:10B6A00001205B4908705948913801231922194635
:10B6B0000090152001F0A7FB54483C3802231922C2
:10B6C00019460090152001F09EFB504819300323C5
:10B6D000192219460090152001F095FB60790A287F
:10B6E0005EDB60790A21FEF77AFCC0004749E13948
:10B6F00045180123212219461A20009501F083FBE9
:10B7000060790A21FEF76BFCC00055303F49E139F2
:10B7100045180223212219461A20009501F073FBD7
:10B7200060790A21FEF75BFCC000AA303749E13995
:10B7300045180323212219461A20009501F063FBC6
:10B7400060790A21FEF74BFCC8003049E139451801
:10B7500001232B2219462420009501F054FB607927
:10B760000A21FEF73CFCC80055302849E13945184C
:10B7700002232B2219462420009501F044FB607916
:10B780000A21FEF72CFCC800AA302049E1394518EF
:10B7900003232B2219462420009501F034FB4DE0B1
:10B7A0001A48E13801232122194600901A2001F09D
:10B7B0002AFB16488C3802232122194600901A20B1
:10B7C00001F021FB1148373803232122194600904C
:10B7D0001A2001F018FB60790A21FEF700FCC8006E
:10B7E0000A49E139451801232B22194624200095E6
:10B7F00001F009FB60790A21FEF7F1FBC800553022
:10B800000249E139451802232B2203E019310020B7
:10B810003722002019462420009501F0F4FA6079BF
:10B820000A21FEF7DCFBC800AA30054945180323AE
:10B830002B2219462420009501F0E5FA38BD0000BE
:10B84000383000200149086070470000282200209D
:10B85000F0B587B0002600200690FF20013005904B
:10B860000125002415E0059807F060FF00280BD0A3
:10B8700000BF554840682840002805D0059807F0CB
:10B880004DFF3046284306466D000598001D059083
:10B89000641C042CE7D3FF207D3007F047FF00280D
:10B8A0000AD0FF207D3007F039FF0120C007064392
:10B8B00000BF4648006906903007000F00282AD0D4
:10B8C0000125002425E02846304000281FD000BF75
:10B8D0003F48512109014018A10040581F21090289
:10B8E0000840000A049000BF39485121090140185E
:10B8F000A1004058032109040840000C0390204691
:10B9000004F0E4FC074603990498B84700BF6D00B3
:10B91000641C042CD7D3F00FC007002852D0002499
:10B920004EE02C480057401C002848D02948005DB4
:10B930000490C021049888430746384604F00AFD65
:10B94000029004F0C3FC03900398002836D0C02175
:10B9500004980840801102900120B840054600BFBD
:10B9600005200007072109024018B90040580321AB
:10B9700009040840000C019006982840002802D0D5
:10B980000198022806D006982840002815D1019871
:10B99000032812D1029803280BD10198022801D163
:10B9A000032000E0022000903846009907F015FEC1
:10B9B00000BF3846039A0299904700BF00BF641C3D
:10B9C000062CAED307B0F0BD006300400005005068
:10B9D000006000405035002010B51D2007F07EFEAD
:10B9E0001C2007F07BFE1C2007F032FE1D2007F014
:10B9F0002FFE10BD10B51D2007F070FE1C2007F0B3
:10BA000027FE1C2007F06AFE10BD10B51D2007F0B0
:10BA100065FE1D2007F01CFE10BDF8B504460D465E
:10BA2000164632462946002002F04CFE0746A74241
:10BA300001D10020F8BD0B20FCE70000F8B5074657
:10BA40000C4615469C48006802F040F8002803D1D7
:10BA50009948006802F040FA98480068002804D02D
:10BA6000012872D0022871D10EE12078AB2800D0D5
:10BA70001FE10020924908809249914A1288881853
:10BA80002A462146FEF740FA8D4805808D48C07849
:10BA90008C49897809020843083000B28A49088035
:10BAA00008460088401B00B2088008460021415E1D
:10BAB000002960DC83484178009168460078C00620
:10BAC000C00F002810D000207C4908607D4AD27940
:10BAD0007C4B9B791B021A4310466A4612789206E9
:10BAE000D10F09F00FF8F8BD02207449086000205A
:10BAF00073490880734800790602724949790E43F8
:10BB00007048C0786F4989780902084302466D4938
:10BB100008313046FFF781FF002818D16949C979FB
:10BB2000684A9279120211430846012100F0D0F8C8
:10BB30006448C078634A92781202104301465F4A13
:10BB40006048083000F086F914E01EE0B0E0002004
:10BB50005A4908605B49C9795A4A927912021143DD
:10BB60000846002100F0B4F8584A0021084602F0C7
:10BB700003F8B8E708E00120504908600A4681044C
:10BB80004D48006802F072F993E04E494C4A128821
:10BB900088182A462146FEF7B7F949480088401917
:10BBA0004749088048480088401B00B24649088041
:10BBB00008460021415E00295EDC42484178009140
:10BBC00068460078C006C00F002810D000203B490E
:10BBD00008603C4AD2793B4B9B791B021A431046C2
:10BBE0006A4612789206D10F08F08CFF7BE702209C
:10BBF0003249086000203249088032480079060244
:10BC0000304949790E432F48C0782E498978090276
:10BC1000084302462B4908313046FFF7FEFE002854
:10BC200016D12849C979274A927912021143084648
:10BC3000012100F04DF82348C078224A9278120280
:10BC4000104301461D4A1F48083000F003F912E076
:10BC500000201A4908601B49C9791A4A92791202D0
:10BC600011430846002100F033F8184A0021084625
:10BC700001F082FF37E706E0104A012189040E48EF
:10BC8000006802F0F3F814E06178009168460078EB
:10BC9000C006C00F00280AD0E279A3791B021A431C
:10BCA00010466A4612789206D10F08F02BFF00E08A
:10BCB00000BF00BF00BF16E7AC200020BC20002062
:10BCC000C0200020902E0020C220002095580200A5
:10BCD00070B504460D4628460121484048400649B3
:10BCE0008870084604800120C8700221024809F0CB
:10BCF000A7FD002070BD00009620002070B504460E
:10BD0000002C01D1072070BDAB201749087000201E
:10BD10004870208900128870207AC870228900201B
:10BD2000216802F0CFFC054628120F4908714D71B9
:10BD30000E480088001288710C480078C87120896C
:10BD400060810A480088A08108480088401C074993
:10BD500008800120064988800846046001212046A9
:10BD600009F06EFD0020CEE7802000209420002006
:10BD7000A0200020F8B50546002D01D10720F8BD10
:10BD80000024042700BF0EE020012E494018807BCC
:10BD9000002800D006E0012021012A4A8918887372
:10BDA000002702E0641C002CEED000BF042F01D15C
:10BDB0000420E4E7AB20244908700020487028895B
:10BDC00000128870287AC8702A890020296802F039
:10BDD00079FC064630121C4908714E711B480088D8
:10BDE0000012887119480078C8712101154A891814
:10BDF0006868486021012868505028892101891805
:10BE00000881288921018918488100202101891889
:10BE1000C8730E4800882101891888810B48008862
:10BE2000401C0A49088001200949888020011146E8
:10BE300040180749086021018818012109F000FD18
:10BE400000209CE7802E00208020002094200020ED
:10BE5000A0200020F7B584B00446002C02D005983D
:10BE6000002802D1072007B0F0BD26786078039043
:10BE70000398039061480068002800D000BF5F4825
:10BE80000068002802D001284ED14EE0032E0CD1CC
:10BE9000A578E078000221790843C705FF0D3A46EE
:10BEA000611D284608F0A8FC3EE0062E22D10520A0
:10BEB000029000200190A01C009016E000984078AD
:10BEC000010200988078081880B2019001990098CA
:10BED00005F03EF80198C01C0099081800900199DF
:10BEE00002984018C01C80B2029002990598401A2E
:10BEF000E4D519E0012E04D1A578284608F0FEFB10
:10BF000012E0102E0AD1A578E078000221790843CA
:10BF1000C705FF0D284605F0C3FE05E00A2E03D134
:10BF2000A578284608F036FC62E0052E2BD006DC0A
:10BF3000012E09D0022E0CD0042E56D116E00A2E66
:10BF40002ED0FF2E51D130E0A578284608F0D6FB40
:10BF50004CE0A578E078000221790843C705FF0D81
:10BF60003A46611D284608F09FFC3FE0A578E0783E
:10BF7000000221790843C705FF0D3A46611D284696
:10BF800008F01AFC32E0A578E07800022179084335
:10BF9000C705FF0D3A46611D284608F0FFFA25E067
:10BFA000A578284608F0F6FB20E0059801281BD16B
:10BFB000E078012804D0022808D0032812D10BE031
:10BFC00001221146032006F097FA0CE0012202211B
:10BFD000032006F091FA06E001220321084606F04C
:10BFE0008BFA00E000BF00BF00E000BF00BF00BF51
:10BFF00000BF002106980160002034E79020002057
:10C0000038B50446042C29D169462E2000F082FB65
:10C01000002800D138BD68460078C106C90E0091DD
:10C0200068460178009101782E2000F05FFD00281D
:10C0300000D1EFE76946242000F06CFB002800D116
:10C04000E8E768460178BF20014000916846017822
:10C05000242000F04BFD002800D1DBE7002C32D17A
:10C060006946242000F056FB002800D1D2E768463C
:10C070000178BF20014000916846017840200143CB
:10C08000009168460178242000F030FD002800D19E
:10C09000C0E769462E2000F03DFB002800D1B9E73B
:10C0A00068460078C106C90E0091A1016846007873
:10C0B0000143C9B20091684601782E2000F016FDB8
:10C0C000002800D1A6E7012C32D16946242000F0D7
:10C0D00021FB002800D19DE768460178BF20014080
:10C0E000009168460178402001430091684601783C
:10C0F000242000F0FBFC002800D18BE769462E20AD
:10C1000000F008FB002800D184E768460078C106EB
:10C11000C90E0091A101684600780143C9B200919F
:10C12000684601782E2000F0E1FC002800D171E77C
:10C13000022C32D16946242000F0ECFA002800D10C
:10C1400068E768460178BF200140009168460178A1
:10C1500040200143009168460178242000F0C6FC8D
:10C16000002800D156E769462E2000F0D3FA0028B7
:10C1700000D14FE768460078C106C90E0091A101C1
:10C18000684600780143C9B20091684601782E20C4
:10C1900000F0ACFC002800D13CE7032C32D169460A
:10C1A000242000F0B7FA002800D133E76846017870
:10C1B000BF20014000916846017840200143009172
:10C1C00068460178242000F091FC002800D121E786
:10C1D00069462E2000F09EFA002800D11AE7684632
:10C1E0000078C106C90E0091A1016846007801439C
:10C1F000C9B20091684601782E2000F077FC002833
:10C2000000D107E7012005E77CB504460625E820B4
:10C2100013490870691C6B46114A12480AF016FE51
:10C22000002803D11049114801F09EFE684680782D
:10C23000010268464078014308B2208068460079D0
:10C2400001026846C078014308B260806846807980
:10C25000000269464979084300B2A08001207CBDF4
:10C2600024210020003000409C940200B105000011
:10C2700038B504466946392000F04CFA002800D150
:10C2800038BD684600784106490E0091684600783E
:10C2900040210840002802D120700120F0E76846C4
:10C2A000007820210840002841D068460078082105
:10C2B000084000281DD06846007804210840002866
:10C2C00003D02C2020700120DAE768460078022194
:10C2D0000840002803D02A2020700120D0E76846BB
:10C2E0000078C007C00F002863D0292020700120EB
:10C2F000C6E76846007804210840002803D02420BF
:10C3000020700120BCE76846007802210840002820
:10C3100003D0222020700120B2E768460078C007D1
:10C32000C00F002845D0212020700120A8E76846D2
:10C3300000780821084000281DD0684600780421B4
:10C340000840002803D01C202070012098E7684690
:10C35000007802210840002803D01A202070012014
:10C360008EE768460078C007C00F002821D019204A
:10C370002070012084E768460078042108400028E6
:10C3800003D01420207001207AE76846007802214B
:10C390000840002803D012202070012070E7684672
:10C3A0000078C007C00F002803D0112020700120A2
:10C3B00066E7002064E700007CB505460024002104
:10C3C00001916946402000F023F801A800F05FF8D1
:10C3D00068460078012801D1202001906846007944
:10C3E000801081000191002407E006216143074A83
:10C3F0008818FFF709FF601CC4B2684600798442C0
:10C40000F3DB6846007928707CBD0000582F0020BF
:10C4100038B505460C4669462F2000F07BF9002808
:10C4200000D138BD802D0DD16946087880210840A3
:10C430000090002802D001202070F2E70020207038
:10C440000120EEE7402D0DD16946087840210840D3
:10C450000090002802D001202070E2E70020207028
:10C460000120DEE7202D10D101D1012000E00020C5
:10C470006946097808400090002802D00120207009
:10C48000CFE7002020700120CBE70020C9E738B5B6
:10C49000044669462F2000F03DF9002800D138BD40
:10C4A00068460078C106C90E009168460078207081
:10C4B0000120F4E710B504462146312000F02AF9A6
:10C4C000002800D110BD0120FCE7000038B504466B
:10C4D0000D460A480078032804D0002005F0AFFC80
:10C4E00009F092FF00200AF017FC6846FFF7E2FF10
:10C4F00000F0F4F800200AF0D5FB38BD84210020BC
:10C5000038B504460D4600200AF006FC6846FFF7E1
:10C51000AFFE00200AF0C6FB68460078242802D04F
:10C520002C2801D100BF00E000BF00BF38BD0000D3
:10C5300038B50022114610460AF01EFC0446002CB5
:10C5400000D138BD00200AF0E7FB69460F2000F05B
:10C55000E1F8002803D143A1B62001F005FD6846AB
:10C560000078332803D03FA1B72001F0FDFC002163
:10C57000202000F0BBFA002803D13AA1B92001F035
:10C58000F3FC0021212000F0B1FA002803D135A1ED
:10C59000BA2001F0E9FC0021222000F0A7FA0028CF
:10C5A00003D130A1BB2001F0DFFC0021232000F0EB
:10C5B0009DFA002803D12BA1BC2001F0D5FC00215D
:10C5C000242000F093FA002803D126A1BD2001F019
:10C5D000CBFC0021252000F089FA002803D121A1FD
:10C5E000BE2001F0C1FC0420FFF70AFD002803D1A2
:10C5F0001CA1BF2001F0B8FC072000F0ADF8002816
:10C6000003D118A1C22001F0AFFC022000F0E6F92E
:10C61000002803D113A1C32001F0A6FC052000F0DF
:10C6200047FA002803D10FA1C52001F09DFC01208D
:10C6300000F0E9F8012000F0ADF8002803D109A1CD
:10C64000C72001F091FC0220FFF7DAFC002000F087
:10C65000BFF8002000F088F900200AF023FB012039
:10C660006FE700002E2E5C2E2E5C2E2E5C2E2E5C94
:10C670002E2E5C2E2E5C636F6D706F6E656E747304
:10C680005C49646561536F757263655C7372635C6A
:10C69000696465615F68616C5F6163632E6300005C
:10C6A00038B504466946242000F034F8002800D14B
:10C6B00038BD68460178F72001400091E1006846E6
:10C6C00000780143C9B2009168460178242000F047
:10C6D0000DFA002800D1EBE70120E9E708B569462B
:10C6E000242000F017F8002800D108BD6846007823
:10C6F0004106490E0091684601788020014300916F
:10C7000068460178242000F0F1F9002800D1ECE718
:10C710000120EAE770B504460D460226802020433A
:10C7200009490870094B0A46314609480AF08EFB50
:10C73000002803D10749392001F016FC034840784E
:10C740002870012070BD0000242100202C21002031
:10C75000003000409C94020038B504466946202011
:10C76000FFF7D8FF002800D138BD68460178F820CF
:10C77000014000916107490F68460078014300912C
:10C7800068460178202000F0B1F9002800D1EBE7DD
:10C790000120E9E738B5044669462320FFF7BAFFD0
:10C7A000002800D138BD684600784106490E009146
:10C7B000E101684600780143C9B2009168460178FA
:10C7C000232000F093F9002800D1EBE70120E9E7EE
:10C7D00038B5044669463820FFF79CFF002800D191
:10C7E00038BD68460178C020014000916846017854
:10C7F000214300910178382000F078F9002800D119
:10C80000EEE70120ECE738B5044669462320FFF740
:10C8100081FF002800D138BD68460178CF20014053
:10C8200000912101684600780143C9B20091684631
:10C830000178232000F05AF9002800D1EBE701200D
:10C84000E9E710B504467F2C01DD002010BD21462C
:10C85000332000F04BF9002800D1F7E70120F5E77D
:10C8600038B5044669462220FFF754FF002800D15E
:10C8700038BD00210091684601782143009101787C
:10C88000222000F033F9002800D1F1E70120EFE782
:10C8900010B504467F2C01DD002010BD214632205A
:10C8A00000F024F9002800D1F7E70120F5E71CB5D6
:10C8B000044601A93020FFF72DFF002800D11CBD40
:10C8C00069462420FFF726FF002800D1F7E7012C56
:10C8D00011D168460179BF20014001916846017974
:10C8E00040200143019168460178FB2001400091FE
:10C8F000684600780090022C13D168460179BF2069
:10C900000140019168460179402001430191684648
:10C910000178FB200140009168460078042108431B
:10C920000090002C0ED168460179BF200140019192
:10C930006846017901910178FB2001400091684629
:10C940000078009068460179302000F0CFF8002888
:10C9500000D1B4E768460178242000F0C7F8002829
:10C9600000D1ACE70120AAE738B50446694630207B
:10C97000FFF7D0FE002800D138BD6846017840207E
:10C9800001400091684601782143009101783020F0
:10C9900000F0ACF8002800D1EEE70120ECE738B554
:10C9A000044669463020FFF7B5FE002800D138BDA7
:10C9B000684600788106890E0091A10168460078DA
:10C9C0000143C9B2009168460178302000F08EF82A
:10C9D000002800D1EBE70120E9E700001CB5044680
:10C9E00001A92020FFF796FE002800D11CBD694652
:10C9F0002320FFF78FFE002800D1F7E76846007973
:10CA0000F0210840002806D12848007808406946EF
:10CA1000097908430190002C04D0012C1ED0022C6F
:10CA20002FD109E0684600792049087068460079EE
:10CA30000107090F019126E068460179F7200140BE
:10CA400001916846017901910178F7200140009138
:10CA50006846007808210843009014E06846017990
:10CA6000F7200140019168460179082001430191B6
:10CA700068460178F72001400091684600780090F0
:10CA800001E00020B2E700BF68460179202000F0F5
:10CA90002DF8002800D1A9E768460178232000F08E
:10CAA00025F8002800D1A1E701209FE720210020E0
:10CAB00038B5044669462020FFF72CFE002800D137
:10CAC00038BD684600780107090F009121016846CA
:10CAD00000780143C9B2009168460178202000F037
:10CAE00005F8002800D1EBE70120E9E770B504461E
:10CAF0000D4602200B49087000200B4908700B48B6
:10CB0000047045700A4B02460648017809480AF04D
:10CB10009DF9002803D10849522001F025FA01208F
:10CB200070BD000035210020342100202421002088
:10CB30002C210020003000409C940200C206D20E3E
:10CB400001219140014A11607047000080E200E03D
:10CB5000C206D20E01219140014A116070470000C7
:10CB600000E100E0C206D20E01219140014A1160AD
:10CB70007047000000E200E010B5002819DA1A4AF8
:10CB800003071B0F083B9B089B00D2588307DC0E52
:10CB9000FF23A3409A438B071B0E8407E40EA34098
:10CBA0001A43114B0407240F083CA408A4001A518F
:10CBB00018E00E4A03231B02D21883089B00D258A8
:10CBC0008307DC0EFF23A3409A438B071B0E8407C9
:10CBD000E40EA3401A43054B032424021B198408C6
:10CBE000A4001A5110BD00001CED00E000E100E0BF
:10CBF00010B5002819DA1A4A03071B0F083B9B08D7
:10CC00009B00D2588307DC0EFF23A3409A438B0777
:10CC10001B0E8407E40EA3401A43114B0407240F94
:10CC2000083CA408A4001A5118E00E4A03231B0272
:10CC3000D21883089B00D2588307DC0EFF23A34041
:10CC40009A438B071B0E8407E40EA3401A43054B3F
:10CC5000032424021B198408A4001A5110BD0000EB
:10CC60001CED00E000E100E010B5002819DA1A4AD6
:10CC700003071B0F083B9B089B00D2588307DC0E61
:10CC8000FF23A3409A438B071B0E8407E40EA340A7
:10CC90001A43114B0407240F083CA408A4001A519E
:10CCA00018E00E4A03231B02D21883089B00D258B7
:10CCB0008307DC0EFF23A3409A438B071B0E8407D8
:10CCC000E40EA3401A43054B032424021B198408D5
:10CCD000A4001A5110BD00001CED00E000E100E0CE
:10CCE00010B5002819DA1A4A03071B0F083B9B08E6
:10CCF0009B00D2588307DC0EFF23A3409A438B0787
:10CD00001B0E8407E40EA3401A43114B0407240FA3
:10CD1000083CA408A4001A5118E00E4A03231B0281
:10CD2000D21883089B00D2588307DC0EFF23A34050
:10CD30009A438B071B0E8407E40EA3401A43054B4E
:10CD4000032424021B198408A4001A5110BD0000FA
:10CD50001CED00E000E100E070B5002418E0204682
:10CD6000B030002100F084F90021084600F080F97D
:10CD70000021122000F07CF9202505E0012100208F
:10CD800000F076F9681CC5B2602DF7DB601CC4B2F8
:10CD9000042CE4DB70BDFFB581B006460F46344677
:10CDA00010E03D4609E02946204600F0DDF801216B
:10CDB000002000F05DF9681CC5B204988542F2DDE0
:10CDC000601CC4B203988442EBDD05B0F0BD10B521
:10CDD00000218D2000F04CF90021102000F048F9CE
:10CDE0000021AE2000F044F910BD10B500218D20C7
:10CDF00000F03EF90021142000F03AF90021AF20A4
:10CE000000F036F910BDFFB583B006460F461C464C
:10CE1000002002902046E117490F0918C910C900E7
:10CE2000611A05D1E117490F091849050D0E06E0F1
:10CE30002046E117490F0918C910491CCDB23D46DB
:10CE400017E02946304600F08FF801960BE0029972
:10CE50004A1C02920C9A505C012100F009F90198D9
:10CE6000401CC0B20190059901988842EFDD681C12
:10CE7000C5B2A542E5DD07B0F0BD10B501211D200A
:10CE800006F0F6FB01211C2006F0F2FB1D2006F047
:10CE900025FC1C2006F022FC642006F0E9F90021A4
:10CEA000AE2000F0E5F80021084600F0E1F800218E
:10CEB000122000F0DDF80021084600F0D9F800212A
:10CEC000B02000F0D5F80021812000F0D1F8002139
:10CED000FF2000F0CDF80021A12000F0C9F80021CA
:10CEE000A62000F0C5F80021A82000F0C1F800211C
:10CEF0001F2000F0BDF80021C82000F0B9F8002183
:10CF0000D32000F0B5F80021084600F0B1F8002168
:10CF1000D52000F0ADF80021802000F0A9F8002114
:10CF2000D92000F0A5F800211F2000F0A1F8002171
:10CF3000DA2000F09DF80021122000F099F800217D
:10CF4000DB2000F095F80021402000F091F800214E
:10CF50008D2000F08DF80021142000F089F80021C8
:10CF6000AF2000F085F810BD70B504460D46204690
:10CF70002030C6B22846B030002100F079F8F02108
:10CF80003140091108461030002100F071F83007D7
:10CF9000000F002100F06CF870BD0000FFB581B0FB
:10CFA00007460D460026002403982038C6B27F2F7E
:10CFB00002DD0027A81CC5B20498102824D12946F8
:10CFC0003846FFF7D1FF002408E031010919184A5B
:10CFD000505C012100F04CF8601CC4B2082CF4DB5A
:10CFE000681CC1B23846FFF7BFFF002409E03101D9
:10CFF000091908310E4A505C012100F039F8601C13
:10D00000C4B2082CF3DB11E029463846FFF7ACFF29
:10D01000002409E006217143064A8918085D0121B0
:10D0200000F026F8601CC4B2062CF3DB05B0F0BD9E
:10D030005C8A020034880200FFB581B004460F46C6
:10D04000154600260FE0AA5D39462046049BFFF7EF
:10D05000A5FF20460830C4B2782C02DD0024B81C9D
:10D06000C7B2701CC6B2A85D0028ECD105B0F0BDF7
:10D0700070B504460D46002D03D0E0B200F0F1F982
:10D0800002E0E0B200F0D7F970BD000000200749CF
:10D0900008600120064948600004064988600B20AA
:10D0A00001218140044A116000BF704740B1004037
:10D0B00000B0004000B3004080E100E010B5002067
:10D0C000074908600021064841608160C160002076
:10D0D00003494039086048600AF0F0FA10BD0000CA
:10D0E0004011014010B50AF099F910BD10B508487B
:10D0F0000078012148400649087006480068002869
:10D1000004D00846007803490968884710BD00002C
:10D11000A8220020AC22002070B50C48006800282E
:10D1200010D00A4800688047044600BF2546002DFD
:10D1300006D000BF00221146284600F063FC00BF65
:10D1400000BF01E005F0C6F870BD0000A02300207C
:10D1500070B500250024042006F0D0FA00BF16E0C8
:10D160006006040E042006F0C9FA07200B4909697D
:10D17000C140C907C90F002902D00120044301E0C2
:10D18000FE200440042006F06BFA681CC5B2082D8E
:10D19000E6DB042006F0B2FA204670BD0005005020
:10D1A000F8B505460E461F4600200090062006F002
:10D1B00057FA032000F016F8684605704670002103
:10D1C000817000F035F8002404E0FFF7C1FF044946
:10D1D0000855641CBC42F8D3062006F08FFAF8BD4F
:10D1E0003830002070B504460025042006F038FAD7
:10D1F00000BF14E0042006F033FA8020204000280D
:10D2000003D0032006F07AFA02E0032006F028FAA1
:10D210006006040E042006F071FA681CC5B2082DE1
:10D22000E8DB042006F01CFA032006F067FA70BD64
:10D2300070B50546002400BF03E0285DFFF7D2FF6C
:10D24000641C032CF9D3002070BD10B5062006F035
:10D25000A3F9042006F0A0F9032006F09DF90720A9
:10D2600000218A0005231B0704021B1984001A51A0
:10D2700000BF10BD10B503461A46002001218907E2
:10D2800000E089089142FCD808E04418944203D891
:10D290004418121B4C002018400889080029F4D1BA
:10D2A00010BD000010B505F0B9F8002805D01048F1
:10D2B00010494860C8131049886105F081F80028BA
:10D2C00002D001200D49886005F0DEF800280ED05C
:10D2D0000B480068012807D00A480949086000BFC8
:10D2E000074800680128FBD1C0200549486110BDEE
:10D2F000DFFF07C000050040006C00400006004052
:10D3000000EC06407593000010B51A48007800281C
:10D3100017D118484079012813DA16488079002877
:10D3200027DD14488079401E1249887108468079AB
:10D3300000281ED110494872084600780D498870AF
:10D3400017E00C484079401E0A4948710846407968
:10D35000002801D100F012F806488078012802D197
:10D3600006F08CFE05E003488078022801D106F023
:10D370002DFE10BD2E2200201832002010B5FFF720
:10D3800026FD00201049087008468078152813D023
:10D39000084680781F280FD00846807816280BD0C2
:10D3A00008468078172807D008468078182803D0C8
:10D3B00008468078192803D100200349887102E0CB
:10D3C00005200149887110BD2E22002003480078F5
:10D3D000012800D170470020FCE700002E22002029
:10D3E00010B50348FEF72EFA01200AF05BFC10BDD1
:10D3F000A17B0200F8B505462C461D2006F028F951
:10D40000002615E0274680200740802F03D11C20EE
:10D4100006F064F902E01C2006F01AF96006040E1A
:10D420001D2006F05BF91D2006F012F9701CC6B233
:10D43000082EE7DBF8BD10B50446FEF7CDFA7820DC
:10D44000FFF7D8FFFEF7E1FA0020FFF7D3FFFEF762
:10D45000DCFA2046FFF7CEFFFEF7D7FAFEF7CAFA4E
:10D4600010BD10B50446FEF7B7FA7820FFF7C2FFEB
:10D47000FEF7CBFA4020FFF7BDFFFEF7C6FA2046C5
:10D48000FFF7B8FFFEF7C1FAFEF7B4FA10BDF8B522
:10D4900004148BB2264682B25E430D141046371434
:10D4A0005843360480190021794116466E433714DB
:10D4B00036048019794126466E438919F8BD30B487
:10D4C0007446641E2578641CAB4204D3635D5B0024
:10D4D000E31830BC18471D46F8E730380A2801D257
:10D4E000012070470020704770B505460C4616466F
:10D4F00000204B4908804B4805604B48006800F00D
:10D50000E5FA002803D14848006800F0E5FC0C2D3E
:10D510005BD009DC2B00FFF7D2FF0C20252B303528
:10D520003A3F44494E565772122D60D008DC2846C7
:10D530000D380300FFF7C3FF054A4B50555A6300EF
:10D54000152D57D004DC132D52D0142D57D150E097
:10D55000162D08D0642D52D132E06004000C3349FE
:10D5600008804DE000BFA00020183049088047E047
:10D57000A00020182D49088042E0A00020182B4967
:10D5800008803DE06004000C2849088038E0600411
:10D59000000C2649088033E06004000C2349088011
:10D5A0002EE06004000C2149088029E06004000C92
:10D5B0001E49088024E06004000C1C4908801FE01C
:10D5C0001A490C801CE000BF00BF00BF00BF600410
:10D5D000000C1649088013E0A004000C13490880D1
:10D5E0000EE06004000C1149088009E000BF00BF94
:10D5F00000BF00BF6004000C0C49088000E000BFC1
:10D6000000BF08480068FF2808D0002004F0CEFFC3
:10D61000002231460448006800F028FC70BD00007C
:10D620000A210020042100200C21002008210020D4
:10D63000F8B504460F4615460026002028702068DD
:10D64000002809D02A463946204605F0EAFC06465D
:10D65000002E01D03046F8BD6079002808D0294658
:10D66000384600F05BFC0646002E01D03046F2E75B
:10D67000A07900280ED002212A78501C2870B954B5
:10D6800001212A78501C2870B954A1792A78501C9D
:10D690002870B954A06800280BD00020A168085653
:10D6A0002A4639460AF010FA0646002E01D03046C6
:10D6B000D1E7A08900280CDD3B4606220221204646
:10D6C0000C3000950AF00DFD0646002E01D03046C4
:10D6D000C1E7A08A00280CDD3B4607220321204633
:10D6E000143000950AF0FDFC0646002E01D03046AD
:10D6F000B1E7A08B00280CDD3B4615221421204603
:10D700001C3000950AF0EDFC0646002E01D0304694
:10D71000A1E7606A002809D02A463946606A03F00A
:10D72000CBF90646002E01D0304694E7A06A0028C7
:10D7300009D02A463946A06A05F032FA0646002E7C
:10D7400001D0304687E73020005D002809DD2A46F9
:10D750003946204608F07AFE0646002E01D03046B3
:10D7600079E7304677E7014688790422104000289F
:10D7700001D1072070470020FCE7000030B5A5B0BC
:10D78000342118A8FCF71FFC02201890002118A8CB
:10D7900041710521817134210BA8FCF714FC012192
:10D7A00010A8018011491191242102A8FCF70BFC5B
:10D7B00001216846017540200690B42007900020A2
:10D7C0000B4B02AA0BA9009018A801F053F80446CD
:10D7D00000BF2546002D06D000BF00221146284676
:10D7E00000F010F900BF00BF25B030BD08200020B8
:10D7F0005137020070B50024F82521462A460A4810
:10D8000005F084FF00BFFF20913005F031FD00BF1F
:10D8100021462A460448001F05F078FF00BFFF207C
:10D82000913005F025FD70BD0C05005070B5054622
:10D83000002408E028462041C107C90F204609F00E
:10D84000F5F8601CC4B2052CF4DB70BD10B50C48B3
:10D850000068002803D10BA1A12000F085FB002463
:10D8600008E00C216143064A1268505C012105F072
:10D8700033FD641C124800788442F2D3002010BDAE
:10D88000402300202E2E5C2E2E5C2E2E5C2E2E5C35
:10D890002E2E5C2E2E5C636F6D706F6E656E7473D2
:10D8A0005C6C69627261726965735C627574746FD5
:10D8B0006E5C6170705F627574746F6E2E630000D1
:10D8C00044230020F0B585B006460D461746052FC7
:10D8D00002D2072005B0F0BD05F038FE002806D1C1
:10D8E00005F00CFE0446002C01D02046F2E7174854
:10D8F0000660174805701748076000201649086041
:10D900001649086016E00C20684380190390144AF9
:10D9100007CA6B4607C303984068019003990878CB
:10D92000104A694605F04EFD0446002C01D0204601
:10D93000D0E700BF2846691ECDB20028E3D10A4ACD
:10D9400000210A4800F0E0F9C4E70000402300206D
:10D95000442300204823002050230020542300208B
:10D96000DC920200411D0200C10E02004C23002087
:10D97000F8B504460F4612480078844203DD11A131
:10D98000BE2000F0F1FA1E480068002803D10DA166
:10D99000BF2000F0E9FA0C206043194909684518D6
:10D9A000287805F091FD06466878012800D100E04E
:10D9B000002070400121484038700020F8BD000070
:10D9C000442300202E2E5C2E2E5C2E2E5C2E2E5CF0
:10D9D0002E2E5C2E2E5C636F6D706F6E656E747391
:10D9E0005C6C69627261726965735C627574746F94
:10D9F0006E5C6170705F627574746F6E2E63000090
:10DA00004023002000BF00BF00BF00BF00BFBFF326
:10DA10004F8F00BF00BF00BF06480749C86000BF66
:10DA200000BF00BFBFF34F8F00BF00BF00BF00BFEC
:10DA300000BFFDE70400FA0500ED00E070B5054603
:10DA40000C46002C01D1072070BD20468107890FAC
:10DA5000002901D1012100E00021002901D1072086
:10DA6000F2E713480460134805700020124908705B
:10DA7000124908600F4800781422504301460C48B0
:10DA80000068FCF7A0FA0020C0430D49886006201A
:10DA9000012181400B4A116000BF0121FFF720F9ED
:10DAA000062001218140084A116000BF0020CBE719
:10DAB0009C230020982300209923002094230020F9
:10DAC0000063004080E200E000E100E001460B4816
:10DAD0000068002801D10820704709480078814279
