:020000040001F9
:10800000183C0020D1810100EB810100ED810100CD
:108010000000000000000000000000000000000060
:10802000000000000000000000000000EF810100DF
:108030000000000000000000F1810100F381010058
:10804000F5810100F5810100F5810100F581010054
:10805000F58101000000000039B70100D9A5010039
:10806000F5810100F5810100F581010091C5010054
:10807000F5810100F5810100F5810100F581010024
:10808000F5810100C1C50100F5810100F581010004
:1080900023C601002DC6010059C60100F58101006B
:1080A000F5810100F58101000000000000000000E2
:1080B00000000000000000000000000000000000C0
:1080C00000F002F800F038F80CA030C80838241886
:1080D0002D18A246671EAB4654465D46AC4201D100
:1080E00000F02AF87E460F3E0FCCB64601263342FA
:1080F00000D0FB1AA246AB463343184710C200001B
:1081000030C200000023002400250026103A01D3CD
:1081100078C1FBD8520700D330C100D50B6070473F
:1081200010B5782902D101F095FD10BD002010BDD9
:108130001FB51FBD10B510BD02F0C2F91146FFF703
:10814000F7FF07F0E5FC02F0DAF903B4FFF7F2FFFE
:1081500003BC02F00FFA0000401E00BF00BF00BFCA
:1081600000BF00BF00BF00BF00BF00BF00BF00BF17
:1081700000BFF1D170470000401E00BF00BF00BF2C
:1081800000BF00BF00BF00BF00BF00BF00BF00BFF7
:1081900000BFF1D17047000070B505460C46164689
:1081A00002E00FCC0FC5103E102EFAD2082E02D3DB
:1081B00003CC03C5083E042E07D301CC01C5361FEE
:1081C00003E021782970641C6D1C761EF9D270BD05
:1081D00003210C4802680A4302600B4802680A4304
:1081E00002600A4880470A480047FEE7FEE7FEE7CC
:1081F000FEE7FEE7FEE7000006480749054A074B91
:1082000070470000240500405405004019C90100D2
:10821000C180010018380020183C002018380020C8
:1082200010B5DE4900220B78D243012B06D0553819
:10823000242805D3DAA00861104610BDE4A0FAE7AF
:10824000ED4AEE4B00204400401C40B21A531E2859
:10825000F9DB0020487010228A70C8700120087174
:108260000870002010BDCD4900200870704700281C
:1082700004D0CA4AD1609060002070470020C043FB
:108280007047C6480069704710B5C4498A68002A1B
:1082900003D0C9689047002010BD0020C04310BD26
:1082A000F7B584B01546060023D0002D21D000205C
:1082B00028568100D248445805981E211E3001F0EE
:1082C00018FE48B24000315E204604F0AEFBB34ACF
:1082D0009369D469C0186141D16101249061002182
:1082E0006956601C081803913C2806DBAB48C5A101
:1082F00001610020C04307B0F0BD00200090604243
:1083000047B202970DE005981E21C0191E3001F0FA
:10831000F0FD48B24000315E009808187F1C7FB223
:108320000090A742EFDD61000191491C009801F027
:10833000E0FD0090039800198100B1484058009971
:1083400004F073FB954FBA69FB6980185941F961D4
:10835000B86100200390029F11E03946059800F0B3
:10836000B2F84000315A0098081A00B2002800DC28
:108370004042039900B240187F1C7FB20390A7428D
:10838000EBDD019F7F1CF817009000202856001994
:1083900081009B4808184068039904F046FB3A4660
:1083A000009B01F0DDFB7D4A9369D769C0187941D4
:1083B000A41C64B2D16190610E2C90DD28780F303E
:1083C0002870002097E7FEB59446744C0A46217841
:1083D0000025ED43002943D0074601202056874958
:1083E0004600B4398F530F463C37BA533A4661467C
:1083F0003C32915381491F308B530326A6577F4B44
:10840000F7003C330899DB19099A06C31E2101F0D5
:1084100070FD6170022020561E211F3001F069FDA1
:108420004FB2A7700F21701C01F063FDE1700420B2
:1084300020560F21401C01F05CFD2171002069468F
:10844000087008716D487900405EB721C900884204
:1084500037DB684600F074F8002803D02846FEBDDC
:1084600076A00CE0684600780028F8D07E48811598
:10847000E161A06100F02FF8002802D07BA020610C
:10848000ECE7864BA069E1690022C01A914103DB49
:1084900001206946087101E0684605716846007967
:1084A00001280ED1042020563C4AC10053482032F6
:1084B0003C30401801684068116050601046FFF77A
:1084C000E3FE0020FEBD401810B51E301E2101F055
:1084D00010FD48B210BD38B50020694608702F4C19
:1084E000464802216A466156B438FFF7D9FE002596
:1084F000ED43002819D1414802216A466156783877
:10850000FFF7CEFE002810D13C4802216A46615692
:108510003C38FFF7C5FE002807D102216A466156A4
:108520003648FFF7BDFE002801D0284638BD684612
:1085300000783C2802D05AA02061F6E7002038BD20
:10854000F8B5070020D00120144E2C4D3870044699
:10855000604241B202203056FFF7B5FF4000295E6D
:10856000022030564200AA5E91420ADA2146FFF705
:10857000AAFF0221715640004900285E695E8842C8
:1085800005DD0020387006E00020C043F8BD641C03
:1085900064B20A2CDCDD0020F8BD0000B822002007
:1085A000636C69636B20616C676F726974686D20BE
:1085B0006F6E6C7920737570706F727473203835BC
:1085C0007E313230485A2073616D706C6500000056
:1085D000636C69636B20616C676F726974686D208E
:1085E000686173206265656E20696E697469616C8B
:1085F000697A656400000000FF7F0000EC33002012
:10860000D0400200746865206E756D626572206FDF
:108610006620666561747572657320696E20636C8F
:1086200069636B20616C676F726974686D20697330
:10863000206E6F742072696768740000636C6963F0
:108640006B20616C676F726974686D20686173205C
:108650006E6F74206265656E20696E697469616C05
:10866000697A656400000000FB4FCFFF636C6963AB
:108670006B20616C676F726974686D206661696CEC
:108680007320746F20636F6D707574652070656101
:108690006B2066656174757265000000C027090073
:1086A000746865206E756D626572206F6620666500
:1086B000617475726573206973206E6F74207269BE
:1086C00067687420696E20636C69636B20616C67F6
:1086D0006F726974686D00003B4880687047FFB531
:1086E00081B001980A9F002808DD0298002805DD66
:1086F0000398002802DD0498002803DC0120C04311
:1087000005B0F0BD304D00240C35200100972E58E7
:1087100001A80FC8B04706000FD020014019C0685B
:10872000804729490024886020014019406880471B
:10873000641C022CF8DB3046E2E7641C022CE4DB0C
:10874000F9E770B50025204E2C460C362001801923
:10875000406880474519641C022CF7DB284670BD31
:10876000002803D0184A03C2002070470020C043ED
:108770007047FFB583B0144E00240C9F0C360D9843
:108780000190200100978019856803A80FC8A847A9
:10879000050008D020018019C06880470A49886018
:1087A000284607B0F0BD641C022CE8DBF9E710B5E1
:1087B00005490A68002A03D049689047002010BD87
:1087C0000020C04310BD0000E022002070B5054627
:1087D00000200F3DC043514C049E152D01D350A1E4
:1087E00003E0E578002D02D05CA1E16070BDA180BE
:1087F000E2802381A67000206070207000F040FFAE
:108800000120E070002070BD4448C178002903D0E9
:108810000021C170084670475CA1C1600020C043C0
:1088200070473E48C0687047FEB53C4CE578012D66
:1088300001D056A03AE000256E463580064601205C
:1088400020565E4F45007E533E463C3671533146BE
:108850003C314A533C314B53C3003546B43508993B
:10886000EB18099A06C31E21401C01F042FB48B2D6
:108870006070002850D1294A6846183211460839DC
:1088800000F009FF6A460021515E0191401806B2CE
:10889000F1173046E369A26901F04AF9484A00231A
:1088A00001F05EF90746002E04DA46A0E0600020E1
:1088B000C043FEBD002E0EDD0321019800F0E5FF50
:1088C00001464A48022246600260816021690761D0
:1088D000C160FFF76CFF394F18203C370121374D3D
:1088E00061564200AE5A4B00EE52BD5AFD52334D16
:1088F0007835AE5AEE523C35AA5AEA52C3002A469F
:108900003C32D518CE0028CD9219491C28C2401CF3
:1089100040B261701E28E1DB0020FEBD1023002064
:1089200064697374616E636520616C676F726974EA
:10893000686D20646F6573206E6F7420737570703E
:108940006F72742074686520696E7075742073612D
:108950006D706C65207261746500000064697374E9
:10896000616E636520616C676F726974686D206801
:10897000617320616C7265616479206265656E2047
:10898000696E697469616C697A656400646973749D
:10899000616E636520616C676F726974686D2068D1
:1089A0006173206E6F74206265656E20696E6974F4
:1089B00069616C697A65642079657400C834002047
:1089C000102700006661696C656420746F20636124
:1089D0006C6C2066756E6374696F6E206765745F7A
:1089E000737465705F64617461000000A8360020D4
:1089F00010B5A021FD4801F070FA10BDFB4A03C27A
:108A0000704710B5A021F94801F067FA10BDF74989
:108A100003C9084301D0012070470020704730B5DA
:108A2000F24A7D25136852686D0100245B1962418A
:108A3000C01A914101DB012030BD002030BDEB4B5D
:108A40000CCB801A994101DA012070470020704751
:108A5000E648017A4289490009180A8282890A8710
:108A6000C28960310A80002141818181C181017AFE
:108A7000491C01727047FFB5DC4A8C46516810688A
:108A8000127AC8235A43D3171418099E0A9D4B41E2
:108A900005E0FFF7DDFFC8210020641843412846A8
:108AA000321B9841C8270021D21B8841F1DACF48F8
:108AB000009942895118418182896146511881810A
:108AC000C28902995118C181FFBD00B5C74B187A00
:108AD000002802D100BDFFF7BBFF187A1428FAD393
:108AE00000BDF8B5C1480025417A0091BF4A002079
:108AF00028236B4301469F18147A06E04B00FE18AA
:108B00001023F35E1818491CC9B28C42F6D8002C09
:108B100006D0214601F0EDF90646002210460CE091
:108B20000121F7E7410079181023CB5EF11A0029E3
:108B300000DC991B8A18401CC0B28442F2D8AB4FAB
:108B4000002C10D02146104601F0D3F9A900CA1913
:108B500000996D1C4900511880318E82EDB2088158
:108B6000032DC3D3F8BD0121EDE730B59F4918228D
:108B7000084680304B7A1A24825E045F5B00121B29
:108B800059181C241E25045F455F80311023CB5EDD
:108B9000601B642B0BDD0C23CB5E642B07DD404395
:108BA000524393498018884201DD012030BD0020E6
:108BB00030BD10B58D487D240268640141681219EA
:108BC0000023594102604160417A012251404172C3
:108BD00043818381C381037210BD844A00238032A4
:108BE000136253629362D362203203C2704730B57E
:108BF0007E4A804DA0321368526800245B1962419E
:108C0000C01A914101DB012030BD002030BD774BFF
:108C1000A0330CCB801A994101DA01207047002063
:108C2000704770B515460E4600F0CDF90324640276
:108C3000A0420BDA304600F0C6F9A04206DA284618
:108C400000F0C1F9A04201DA012070BD002070BD22
:108C500010B5FFF73AFFFFF744FFFFF786FF634CBD
:108C6000A034A17A0843A072FFF7A3FFE07A401C6A
:108C7000E07210BD10B5FFF7B0FFFFF7B9FE10BDF1
:108C800010B5FFF7C4FE002807D0584CA034E07A96
:108C90000F2802D2FFF7DCFFF9E710BDFFB583B064
:108CA0001C4616460F460398FFF7BBFF002809D164
:108CB0004E49A0310889401C0881FFF7A8FEE5173E
:108CC000002803D107B0F0BDFFF7C2FF20462946B8
:108CD000FFF7A5FE0028F7D120462946FFF7AFFE93
:108CE0000028EFD132463946019500940398FFF7EA
:108CF000C2FEE7E73D49A0318A7A82700989018086
:108D000070473A493B4BA03103C90022C01851417A
:108D100063E710B50C46002803D110461946FFF74B
:108D20006DFE002C01D1FFF76CFE10BD2F48B03056
:108D3000806A401C072800DBC01F70472B49B031F8
:108D4000896A0818072800DBC01F002800DAC01D48
:108D5000704770B5254C0023B034A06A002815DB9D
:108D6000254D0022101FFFF7E9FF80000019910038
:108D700000266958865F521C7143CB18072AF1DB25
:108D8000AF208000834201DA012070BD002070BD59
:108D90001649B031886A002806DB800040188078C8
:108DA000002801D00120704700207047134A531457
:108DB00082180E485941B03002624162991F8162A7
:108DC000704710B5094A0B4CB032116A506A091944
:108DD0000023584111625062FFF7A8FF9062022001
:108DE000FFF7ACFF8000801810BD0000C0360020E7
:108DF000A086010060EA000044230020402BFEFF13
:108E000010B50024FFF7A5FF002805D00224FFF7C6
:108E1000BFFF002800D001242046E5E76C49086A1E
:108E2000496A704730B51546044685B00120194699
:108E30007D220090D2000023284600F091FE02908F
:108E40006449A000085801906846FFF7B0FC05B0DF
:108E500030BDF8B5FFF7E2FF06460F46FFF7D0FF3B
:108E60005D4C050004D0012D04D0022D05D010E08A
:108E7000002000E0012020800BE06088002801D164
:108E80000A2020800020205E002802DD401E208075
:108E900001250220205EA8420CD032463B462846DF
:108EA000FFF7C0FF0220205E32463B462946FFF70F
:108EB00030FF6580F8BD10B5FFF7E2FEFFF781FFD8
:108EC000FFF718FFFFF7C5FFFFF71BFF8CE770B533
:108ED000054602460C460B460020FFF7A3FF3E491D
:108EE000002048800880681C00214C41054621462E
:108EF000FFF75CFF28462146FFF7BCFE70BDFFB5BB
:108F000081B016460F460B9D0A9C01E0FFF7D3FF88
:108F100020462946FFF76BFE0028F7D12046294658
:108F2000FFF775FE002805D123B232463946019875
:108F3000FFF7B4FE05B0F0BD10B5FFF7BCFFFFF7BB
:108F4000BAFFFFF7B8FF4FE7002801DD1E2802DD5A
:108F50000920C04370472049091F0A68002A02D02F
:108F60000120C043704740420860002070477CB534
:108F7000194E0C46361F0546336807990698002B94
:108F800005D007DA5A423260FFF7A1FF08E002205D
:108F9000C0437CBD0191009021462846FFF7AFFFFA
:108FA00000207CBD10B50C4C241F2068002805D083
:108FB00001DDFFF7C1FF0020206015E70220C0435C
:108FC00012E706A07047002800DC4042704700000E
:108FD000703700203823002034230020646570722D
:108FE0006563617465640000FE490A78012A03D153
:108FF00002880B89D218028000200870488088807F
:10900000C880C8600881086548658865C86588614A
:10901000C8618862C8627047F7B5F24C08202178B1
:109020002346185E002909D0002806DD0099009A21
:109030000988491C1180401E2081FEBDEA4BEB4986
:1090400000284AD0062805DB8D56ED005D1928CD95
:1090500065642364019B00255D57281803B2E44D25
:1090600023815000285A6588401906B266808856C8
:10907000E0494000085AA1880025401800B2A080AD
:10908000E188491C09B2E180072B3ADB00F031FF8F
:10909000A36B226CE76B616CD21AB9417D277F010B
:1090A0000023BA1A00B28B4112DB062E10DC032E0D
:1090B00009DD7910884206DA218A401A00B200F0F0
:1090C0000CFB642804DCFF2160695F3188420BDD02
:1090D00025700098FFF788FF13E08D56ED005B19AF
:1090E00028CBE563A363B5E72189491C21810121D0
:1090F0002170E5602169A161E061206AA062606A77
:10910000E06201980570FEBDF1B50022B54982B05C
:10911000B94B0A611646154610469956B54F06E0FA
:10912000B24B9B565B00FB5E1818521C52B28A422F
:10913000F6DB00F0DEFEAB49AF4F086100200446CD
:10914000486111E0A94800574100AA48415AA54882
:10915000008A081A00B200F0C0FAA2494969411811
:10916000A048641C64B24161002038568442E9DBA7
:10917000002179569B4C0091606900F0BAFE606155
:10918000236A216900209B4A4700D75F9F4201DD87
:10919000761C76B27F008F4201DD6D1C6DB2401CE3
:1091A00040B21E28EFDB00980027401CFF43864298
:1091B0001BDD854219DDA069002811D0401A00B2DC
:1091C00000F08BFAFF219131884209DDA08BA18A42
:1091D000401A00B200F081FAFF214131884204DCDC
:1091E000FF216069D731884206DD00202070029897
:1091F000FFF7FAFE3846FEBD0020FEBDF7B586B08B
:109200000D46002669460E70FA2002907B480190B8
:109210004B2000017D27049014463F010698FFF77C
:1092200073FF002873D16F4864210269D01B00F0DE
:1092300060FE734A2C30915F03F0F7FB714A002304
:1092400000F076FC03C46C488357042B01DB02203A
:1092500002E0022B02DB0120286001E000212960EE
:109260006048694A0169914202DD644AB73A0AE0FE
:10927000664A914208DA521AD40FA218E124521019
:10928000A400121912B201920278002A06D15D4A96
:10929000263A914202DAFF215F310291002B36DD3E
:1092A000FA1703924F4A906CD16C03460B4324D1BA
:1092B00000252C463CE0002EF4D0022E28DB4B4843
:1092C0001F218019203841561E24CA0046490457E0
:1092D0008A18E000081813680168526840685B1A31
:1092E000029C8241E5171B1BAA4111DA3F4A9257A3
:1092F000D3003D4AD31814CB18E03C4B00241C5734
:10930000394BE4001C1918CC1D1A8C4110E0BEE04A
:10931000364988578919C20033482039831814CB3D
:109320001F23CB56D900401801684068551A844164
:109330000398791BA04102DA0020C04313E004988F
:10934000C117401BA14101DA00200CE00198C117B0
:10935000401BA14101DA022005E00298C117401B21
:10936000A141E9DA0120694608701E48C0680E284C
:109370000FDD00200856401C10D1254A2046002150
:10938000AA1A884163DA00206946087015480D2141
:10939000C160694600200856401C58D0002008567D
:1093A000002850DD32460698FFF736FE6846002357
:1093B000C356002B47DD0B490A4A086D496D401919
:1093C000614151658446106510468E46826DC16DBF
:1093D000D817D218034B41419A65D9650B466046B0
:1093E000714617E060230020B8350020A03400202B
:1093F000A03700207C3500201023002052030000FD
:10940000162300206C050000F70900002D0700005E
:10941000B80B000000F0A4FB401BA1416422002314
:1094200000F086FB2A46234600F09AFB50230022D8
:109430001B1A8A4107DAC8230022C01A914102DAB6
:109440000020694608702846204307D110E006989E
:10945000FFF7CAFD002069460870A7E769460020AB
:109460000856A0492A464843C117234600F078FB16
:109470009D4972008852684601789C4800238155B6
:109480009B48761CC35676B29E4200DA13E709B0B9
:10949000F0BDF1B50021974C0D46974E284621624C
:1094A0004A00B25E491C101849B21E29F8DB1E2181
:1094B00000F01FFD6562002720627800305A218C81
:1094C000401A00B200F009F9616A7F1C40187FB2AF
:1094D00060621E2FF1DB1E2100F00BFD6062A06AAE
:1094E000002812D0218C401A00B200F0F6F8FF27B5
:1094F0000537B84209DDA08DA18C401A00B200F0FA
:10950000ECF8B84201DD257018E07C4B616B206BF4
:1095100003225700F75FFF18632F01D2401C03E0BE
:10952000814200DA01460020521C52B21B2AF0DBB5
:1095300061632063082907DD257065630098FFF7E4
:1095400053FD0020C043F8BD0020F8BDF7B58AB038
:109550000020684C0790E16CA06C049000200591FD
:1095600002900A98FFF795FF00287AD16049624B74
:1095700008702146624F0D6A0320012142009A5E65
:10958000441A64001C5FA24209DD441864001C5F99
:10959000A24204DB491C49B20329F1DD01E00329A1
:1095A00030DD58498A4214DD294699318A4203DC6C
:1095B0004B2109018A420CDB0499FA26059C002202
:1095C0008E195441C10079180A684968B61A8C414D
:1095D00004DB0299491C49B2029113E0079C0492F2
:1095E000641C64B207940591414C00216156464ABF
:1095F000464E50544C00029A3253002202923C4A8A
:10960000491C1170401C40B21B28B6DB079801288A
:1096100029DB0AA807C8FFF7F1FD364A0599049827
:10962000D164334D906400202856304A04462E4BB6
:1096300035490EE00E18203EF67F0E541618203ED7
:10964000F67F16544600F718203FFF8B401E9F53AD
:1096500040B20028EEDC0020087010701880641CF6
:109660002C700DB0F0BD234801780029F9D00A997B
:109670000289098889180A9A118000210181F0E77E
:109680001C480021C1608164C16441808180C18027
:10969000012141707047F8B5164F064678780128C9
:1096A00002D00020C043F8BD002425463480304657
:1096B000FFF74CFF0E4A0D49105704E00A575219A4
:1096C000641C15B264B28442F8DB0020F968305E95
:1096D00049194018F8602846F8BD002801DA4042D0
:1096E00000B2704740420F00B4340020AA3400207A
:1096F00010230020602300207C35002049FCFFFF60
:10970000B83500207E040000A0340020A0370020DF
:10971000FFB58FB0F2480590189F40421C460B9051
:10972000381B401C40B20090002009900890029025
:1097300001900A900790069003901E46049040E026
:1097400010987500405F00F0C7F903994018039026
:10975000E448405F00F0C0F9069940180690E248DE
:10976000405F00F0B9F9029940180290DF48405F6D
:1097700000F0B2F9019940180190DD48405F00F017
:10978000ABF9079940180790D748415F0A98081825
:109790000A90D648415F099808180990D448415F5B
:1097A00008980818089010980B99405F884200DDCF
:1097B00001460B910599884200DB0846761C76B27B
:1097C0000590BE42BCDD0099029800F092FB029029
:1097D0000099019800F08DFB01900099079800F026
:1097E00088FB07900099069800F083FB069000998B
:1097F0000A9800F07EFB0A900099099800F079FB26
:1098000009900099089800F074FB08901DE0600032
:10981000B5490C90095E0A98081A00F05DF90499A0
:109820004618B2490C98095E0998081A00F054F9D4
:109830000546AF490C98095E0898081A00F04CF9E3
:1098400028183018641C64B20490BC42DFDD029911
:1098500001987D2209180798D200091806985043EC
:1098600000F047FB04460099049800F042FB0546CF
:109870000099039800F03DFB059A0B99891A0F9AFD
:10988000131D31C3116013B0F0BDF3B5002193B0C7
:1098900008910D460E460F46079101240991F7E005
:1098A000944A105D00287DD0601E0F9092496000A0
:1098B000085E844601200590601E149940B2611A2A
:1098C0000DE08C4A0F90125C002A0CD08A4A4300AB
:1098D000D25E9444059A521C401E40B20592002864
:1098E00001DB8142EDDD6046059900F002FB0A9044
:1098F00082480F99435601578B4253DC002B51DBB2
:109900001E294FDA00911E2276490BA8FFF700FFAF
:109910007B490B9840187D21C9004843794900F0E4
:10992000E8FA119078490A9840187D21C900484307
:10993000FF21DF3100F0DDFA0A907449002008565B
:1099400010906E486D4A0F9B0057D256C100D3004D
:109950006F486F4A4118D21803C913685268C01A79
:109960009141059AD31700F0FBF8014601900C983D
:1099700048437D21C90000F0BCFA0199009048439A
:109980007D21C90000F0B5FA12907D220B98D2001B
:1099900050430C9900F0ADFA05905E480199081803
:1099A0007D2100E072E0C90048438B2100F0A1FA5C
:1099B000019058490098B93940187D21C9004843A1
:1099C000CB2100F096FA009012987D21FF38813863
:1099D000C9004843D72100F08CFA12904E490598EF
:1099E00040187D21C9004843FF21AA3100F081FAC7
:1099F0000590ED210E988900401A7D21C900484349
:109A000040492A3100F075FA014633221198D243B9
:109A100050430A9A17235A438218404B10985843D0
:109A2000121816230198DB435843121800981B1D87
:109A30005843121812984301181A1218059818233F
:109A4000584310186B2251434018364B34490022BA
:109A50009A5E4018C117D31700F06AF800902548A5
:109A6000019100570B46C117009A00F061F8089B5E
:109A7000079AC018514108900791099800217F1C4E
:109A8000484109900098019B2D185E41641C64B206
:109A90002548002141568C4200DA01E70022114698
:109AA0000998D21B814107DA03463A4628463146D7
:109AB00000F056F805460E46139A2846D31731464D
:109AC00000F036F8089B079AC0185141174A002346
:109AD00000F046F815B0F0BD002800DA40427047AB
:109AE000BC7F00007C350020C834002004350020F5
:109AF00040350020AA340020B4340020A0340020D7
:109B0000DFFAFFFFBB020000B8F7FFFF12230020BF
:109B1000B8350020F6FDFFFF51FCFFFF7F76FFFF09
:109B2000086F0700142300201023002010270000D6
:109B30004343514330B55C18010C130C0D4692B2EF
:109B40005D4380B251432C19054655430A0C090464
:109B50004D1962415843010C00044019514130BD78
:109B600070B500252C46AD1A9C4112DA00252C4612
:109B70002D1A8C4102DA00F05AFB70BD00244042DD
:109B80008C41214600F053FB002440428C41214689
:109B900019E000252C462D1A8C410ADA0024524285
:109BA0009C41234600F043FB002440428C41214667
:109BB00070BD002452429C414042234600248C4107
:109BC000214600F034FB002452429C41234670BDE4
:109BD0000FB41CB5084B06AA7B4469460090059853
:109BE00000F003FC04460020694600F011FC20460A
:109BF0001CBC08BC04B0184735080000F8B50F4677
:109C00000188090502D5224C7C4402E0204C7C44AA
:109C10000E3405460021243508E016071209360FD8
:109C2000A65D6E541E0732431B09491C16461E438F
:109C3000F3D1224604780023240705D5702F06D0DF
:109C4000002901D00223113200F072FBF8BD01237C
:109C50001032F9E770B504460D4621461068C0463B
:109C6000C0460023024629462046FFF7C7FF70BDC5
:109C7000D21DD308DB000CCBC0E730B4036820242E
:109C80001268234303600823C36130BC0023B5E797
:109C9000B4A50000F3B50446002081B02062204640
:109CA000E1688847002872D0252802D06268A16840
:109CB000ABE0594F00267F442046E16888472028C2
:109CC000054608DB312D06D27819203800780028A7
:109CD00001D00643F0E7B00701D5042086430020F9
:109CE000E0610746A0612A2D0AD0284602F0C3FE93
:109CF000002827D0B8000019303D0090856119E098
:109D00000298BA00121902C8916102902046E168D7
:109D10008847012F054617D1E06900281FDA202067
:109D200086431CE000980A21806948430099401945
:109D3000303888612046E1688847054602F09BFE7E
:109D40000028EFD1012F0AD02E2D08D12046E1683E
:109D500088470546202006437F1C022FC3DBA069ED
:109D6000002803DA4042A06101200643F00701D039
:109D7000102086436C2D0BD0682D09D04C2D3CD083
:109D80006A2D38D0742D38D07A2D36D016E040E0C8
:109D9000E1682F4620468847B842054609D16C2F16
:109DA00029D001208002E168064320468847054605
:109DB00004E06C2F1DD0FF2001300643002D28D079
:109DC00028464138192803D80120C002064320350F
:109DD000204626602946029A1646FEF7A1F9002879
:109DE00010D001280BD0F61DF008C00008300290FA
:109DF00055E74020E1E78020D5E70020D3E7361D76
:109E000002964CE762682846A1689047206A401C89
:109E100044E7206AFEBD00002EA50000F8B5042A24
:109E20002CD3830712D00B78491C0370401C521EA0
:109E300083070BD00B78491C0370401C521E83070C
:109E400004D00B78491C0370401C521E8B079B0FDB
:109E500005D0C91ADF002023DE1B08C90AE0FEF77F
:109E60009BF9F8BD1D4608C9FD401C46B4402C4373
:109E700010C0121F042AF5D2F308C91A521EF0D4DA
:109E80000B78491C0370401C521EEAD40B78491C05
:109E90000370401C012AE4D409780170F8BD01E088
:109EA00004C0091F0429FBD28B0701D50280801C46
:109EB000C90700D00270704700290BD0C30702D039
:109EC0000270401C491E022904D3830702D5028078
:109ED000801C891EE3E70022EEE70022DFE7002274
:109EE00003098B422CD3030A8B4211D300239C46D7
:109EF0004EE003460B433CD4002243088B4231D34F
:109F000003098B421CD3030A8B4201D394463FE0E2
:109F1000C3098B4201D3CB01C01A524183098B4242
:109F200001D38B01C01A524143098B4201D34B012B
:109F3000C01A524103098B4201D30B01C01A52418E
:109F4000C3088B4201D3CB00C01A524183088B4215
:109F500001D38B00C01A524143088B4201D34B00FE
:109F6000C01A5241411A00D2014652411046704770
:109F70005DE0CA0F00D04942031000D34042534075
:109F800000229C4603098B422DD3030A8B4212D335
:109F9000FC22890112BA030A8B420CD38901921167
:109FA0008B4208D3890192118B4204D389013AD0A4
:109FB000921100E08909C3098B4201D3CB01C01A79
:109FC000524183098B4201D38B01C01A524143098C
:109FD0008B4201D34B01C01A524103098B4201D37A
:109FE0000B01C01A5241C3088B4201D3CB00C01AE7
:109FF000524183088B4201D38B00C01A5241D9D2FF
:10A0000043088B4201D34B00C01A5241411A00D27F
:10A010000146634652415B10104601D34042002B7B
:10A0200000D54942704763465B1000D3404201B5FA
:10A030000020C046C04602BD704770477047000010
:10A04000F0B5FF252D04C609C209FF2704462E409E
:10A050000137CB093E4348402A402B400746002A9F
:10A060006BD0002B69D0AA4267D0AB4265D00028E4
:10A0700000DA32460125ED0529432C43090220026E
:10A08000090AD21A4B0C7F24E31A434C000A7C4481
:10A09000E35C7D242404121914145B00A218884286
:10A0A00001D3521C00E0400049420C465C4324119D
:10A0B0005C43DB016415E318040A5C43C502200D10
:10A0C0000C4644436419250A5D432303EC0C0D46FA
:10A0D000654300030019EB184C42A34201D35B18FF
:10A0E000401CD4052018002B07D05B00C91804D3EE
:10A0F000401C002901D1400840003F2189048A42C8
:10A1000009D3002A08DC1106090F04D003214907EE
:10A110004018C00FC007F0BD012241001206891887
:10A120007F2252069142F6D205214907C84201D545
:10A130009010F0BDFF20C005F0BD002F00DA3246C0
:10A140001648AA4207D2AB4205D21902090E17D00F
:10A15000F80FC007F0BDFF2563002D06AB42F9D80C
:10A160004900A942F6D8AB4201D1A942F2D0A94296
:10A1700001D1002101E061004908D0050843F0BD8C
:10A180001102090EFBD0FF200243D005F0BD0A46A4
:10A190000146104654E7000067A100000000C07FA0
:10A1A0000102C21504D00123DB071943002A0ADB90
:10A1B0009E239A1A02D40846D0407047FF224100DD
:10A1C0001206914201D900207047C017C043704762
:10A1D0001F22030C02D10F2200041CD0030E01D158
:10A1E0000002083A030F01D10001121F830F01D1B1
:10A1F0008000921E002801DB4000521ED20551183B
:10A20000021251181922904004D3491C002801D190
:10A210004908490008467047C10FC90700D04042AD
:10A22000012292071143D3E701218907D0E7FEB548
:10A23000054610460C46184373D0AE468C460020A7
:10A24000AD1A01469C4167D36646002701243D466E
:10A25000B61A9D4102D313463A46212465467646F6
:10A260002F04360C3E432D0CB61A9D4104D3150C19
:10A270001B042B4312041034654676462F06360A1B
:10A280003E432D0AB61A9D4104D3150E1B022B43E3
:10A2900012020834654676462F0736093E432D09DB
:10A2A000B61A9D4104D3150F1B012B431201241D27
:10A2B00065467646AF07B6083E43AD08B61A9D41DF
:10A2C00004D3950F9B002B439200A41C6546764651
:10A2D000EF0776083E436D08B61A9D411AD39218CF
:10A2E0005B41641C16E00018764665464941B71A82
:10A2F0009D410191009009D36046B11A98418E4664
:10A300008446009801990025401C6941DD075208E8
:10A310002A435B08641EE6D57246634603B0F0BD6F
:10A32000FFE700200146C046C0462A462346F5E71F
:10A33000FFB504460D4681B02430009021688806A0
:10A3400004D51022E0699143216000E00120A84279
:10A3500001DD471B00E000270498A1697A19101855
:10A36000081AA0612078C00602D42046C046C04624
:10A37000002608E003986268A168805D9047206A23
:10A38000401C761C206204988642F3DB2078C006CD
:10A390000AD52046C046C04606E06268A168302063
:10A3A0009047206A401C206238467F1E0028F4DC5B
:10A3B00007E000986268A168405D9047206A401CF1
:10A3C000206228466D1E0028F3DC2046C046C046A9
:10A3D0002078000602D5022005B0F0BD0120FBE781
:10A3E00001694A1C02610878704700B58FB002917C
:10A3F0000021059105490193794403911146049088
:10A400006846FFF747FC0FB000BD0000E5FFFFFF07
:10A410000A681070521C0A607047000010B5FF23D4
:10A420001B0644009C421DD84C009C421AD803468F
:10A43000124A0B4307D4401A02D3EFF3008010BD39
:10A44000EFF3008010BD081A06D2EFF3008001215F
:10A450009043C907084302E0EFF30080904380F384
:10A46000008810BD0D231B041A4204D011460020A1
:10A4700000F006F810BD00F01BF810BD00000090C1
:10A48000C80212D54803400F002804D0C803C043B7
:10A49000012188407047EFF300800001000903218B
:10A4A0000907084380F300887047002070470000C8
:10A4B00010B5024800F02BF810BD00000000C07F6E
:10A4C000754600F053F8AE46050069465346C0088D
:10A4D000C000854618B020B5FDF78EFE60BC002791
:10A4E0004908B6460026C0C5C0C5C0C5C0C5C0C560
:10A4F000C0C5C0C5C0C5403D49008D46704710B5B8
:10A500000446C046C0462046FDF71FFE10BD10B5EC
:10A510000C461107090F092904D00A290AD0082975
:10A520000CD104E011460820FFF7AAFF06E051060F
:10A5300006D501E0510601D50120C007214610BD16
:10A54000D10607D501010909CC084907000E00060C
:10A55000044309E0410F20024907000A0143200E8D
:10A5600000061D22D14101430846E7E70048704735
:10A57000B437002001491820ABBEFEE726000200D8
:10A58000704770B58C180578401C6B075B0F01D1C4
:10A590000378401C2A1106D10278401C03E006789B
:10A5A000401C0E70491C5B1EF9D12B0705D40023FB
:10A5B000521E0DD40B70491CFAE70378401CCB1ACD
:10A5C000921C03E01D780D70491C5B1C521EF9D5CE
:10A5D000A142D8D3002070BDF8B5002639480068E4
:10A5E00000286BD000203749086037488668012072
:10A5F000364948604B210901714308460A21FFF79B
:10A600006EFC2B21484307463149FFF768FC04469E
:10A6100003F014FC02282FD02E48006800280AD12D
:10A620002D49087000BF03E081002A4A5450401CA5
:10A630000628F9DB1CE028480078800025490C50EA
:10A64000062125480078401CFFF753FCC8B2224978
:10A6500008700024002004E081001E4A51580C19A3
:10A66000401C0628F8DB06212046FFF738FC04468C
:10A6700004F006F8241A02E0002016490860174981
:10A680000C80A0B203F064FB1549087015480068FF
:10A69000002812D0134801210268114802F016FC6C
:10A6A000054600BF2F46002F06D000BF00221146EE
:10A6B000384602F099FB00BF00BF00BF00200249EE
:10A6C0000860F8BD00710040007500400070004057
:10A6D000FF030000BC2B00200820002002200020E7
:10A6E0000020002004200020F8B504460F46514900
:10A6F0003846FFF7F4FB0D463C212846FFF7EFFBF9
:10A700002171E12109012846FFF7E9FB0E463C21B2
:10A710003046FFF7E4FB6071E12109012846FFF7AD
:10A72000DEFBA07143493846FFF7D9FB85B27D2097
:10A73000000120801EE02088FF219131FFF7D9FB26
:10A7400000290DD020886421FFF7D3FB00290AD00F
:10A750002688F017800F801980108000301A02D1EF
:10A76000FF206F3001E0FF206E30281A85B220886C
:10A77000401C20802088FF219131FFF7BAFB00297F
:10A780000DD020886421FFF7B4FB00290AD0268869
:10A79000F017800F801980108000301A02D1FF203E
:10A7A0006F3001E0FF206E30A842C4DD0020A070B1
:10A7B00020E02088FF219131FFF79BFB00290DD07D
:10A7C00020886421FFF795FB002909D02688F0171F
:10A7D000800F801980108000301A01D1012000E024
:10A7E00000200090A17805F0C1FA281A85B2A0785F
:10A7F000401CA0702088FF219131FFF77AFB0029CF
:10A800000DD020886421FFF774FB002909D0268829
:10A81000F017800F801980108000301A01D10120BC
:10A8200000E000200090A17805F0A0FAA842C0DD69
:10A83000E570F8BD80510100F8B5002403F02AFF4F
:10A84000044601F035FDFF230133002202211046AA
:10A8500001F078FF9E480023132219460090184605
:10A8600001F053FD9A48403001231322194600900D
:10A87000002001F04AFD9648803002231322194639
:10A880000090002001F041FD9148C03003231322C5
:10A8900019460090002001F038FDFF23013300220B
:10A8A0001146104601F04EFF8A492046FFF717FB7C
:10A8B000C00087492839451801231C221946152054
:10A8C000009501F022FD83492046FFF708FBC000F8
:10A8D00055307F492839451802231C221946152076
:10A8E000009501F012FD7B492046FFF7F8FAC00001
:10A8F000AA3077492839451803231C221946152008
:10A90000009501F002FD7D21C9002046FFF7E7FA1E
:10A9100006460A21FFF7E3FAC8006D4928394518B1
:10A920000123242219461D20009501F0EEFC7D2113
:10A93000C9002046FFF7D3FA06460A21FFF7CFFAEF
:10A94000C800553062492839451802232422194687
:10A950001D20009501F0D9FC7D21C9002046FFF79C
:10A96000BEFA06460A21FFF7BAFAC800AA305849CB
:10A97000283945180323242219461D20009501F08B
:10A98000C4FC64212046FFF7AAFA06460A21FFF715
:10A99000A6FAC8004E492839451801232C22194629
:10A9A0002520009501F0B1FC64212046FFF797FABD
:10A9B00006460A21FFF793FAC80055304449283962
:10A9C000451802232C2219462520009501F09DFCF4
:10A9D00064212046FFF783FA06460A21FFF77FFA33
:10A9E000C800AA303A492839451803232C221946B1
:10A9F0002520009501F089FC0A212046FFF76FFA17
:10AA000006460A21FFF76BFAC80031492839451874
:10AA10000123342219462D20009501F076FC0A21ED
:10AA20002046FFF75CFA06460A21FFF758FAC800ED
:10AA300055302749283945180223342219462D203C
:10AA4000009501F062FC0A212046FFF748FA06460D
:10AA50000A21FFF744FAC800AA301D4928394518D1
:10AA60000323342219462D20009501F04EFC0A21C3
:10AA70002046FFF734FAC800154928394518012344
:10AA80003C2219463520009501F03FFC0A21204662
:10AA9000FFF725FAC80055300D492839451802231B
:10AAA0003C2219463520009501F02FFC0A21204652
:10AAB000FFF715FAC800AA300549283945180323BD
:10AAC0003C2219463520009501F01FFCF8BD00001E
:10AAD000482E00201027000038B50446642C11D100
:10AAE00001F0E6FBFF23013300220721104601F0AD
:10AAF00029FE0D4804233F2200210090084601F062
:10AB000004FC10E001F0D4FBFF23013300220621F6
:10AB1000104601F017FE044804233F220021009054
:10AB2000084601F0F2FB38BD202E0020F8B50024C5
:10AB30000025002603F0D6FD05464624294661433C
:10AB400008466421FFF7CBF9064601F0B1FBFF236D
:10AB5000013300220221104601F0F4FD9E4800233B
:10AB6000132219460090184601F0CFFB9A48403056
:10AB70000123132219460090002001F0C6FB9648DD
:10AB800080300223132219460090002001F0BDFB03
:10AB90009148C0300323132219460090002001F091
:10ABA000B4FBFF23013300221146104601F0CAFD19
:10ABB0008A493046FFF793F9C0008749143947188E
:10ABC00001231C2219461520009701F09EFB8349A2
:10ABD0003046FFF784F9C00055307F4914394718D3
:10ABE00002231C2219461520009701F08EFB7B4999
:10ABF0003046FFF774F9C000AA3077491439471876
:10AC000003231C2219461520009701F07EFB7D21AD
:10AC1000C9003046FFF763F90A210090FFF75FF99A
:10AC2000C8006D49143947180123242219461D20F4
:10AC3000009701F06AFB7D21C9003046FFF74FF90C
:10AC40000A210090FFF74BF9C800553062491439CA
:10AC500047180223242219461D20009701F055FBB6
:10AC60007D21C9003046FFF73AF90A210090FFF72D
:10AC700036F9C800AA30584914394718032324224A
:10AC800019461D20009701F040FB64213046FFF774
:10AC900026F90A210090FFF722F9C8004E4914391D
:10ACA000471801232C2219462520009701F02DFB7F
:10ACB00064213046FFF713F90A210090FFF70FF9DE
:10ACC000C800553044491439471802232C2219462C
:10ACD0002520009701F019FB64213046FFF7FFF8AB
:10ACE0000A210090FFF7FBF8C800AA303A4914394E
:10ACF000471803232C2219462520009701F005FB55
:10AD00000A213046FFF7EBF80A210090FFF7E7F839
:10AD1000C8003149143947180123342219462D201F
:10AD2000009701F0F2FA0A213046FFF7D8F80A211D
:10AD30000090FFF7D4F8C800553027491439471858
:10AD40000223342219462D20009701F0DEFA0A2151
:10AD50003046FFF7C4F80A210090FFF7C0F8C8009A
:10AD6000AA301D49143947180323342219462D20CF
:10AD7000009701F0CAFA0A213046FFF7B0F8C80080
:10AD800015491439471801233C22194635200097EC
:10AD900001F0BBFA0A213046FFF7A1F8C800553090
:10ADA0000D491439471802233C22194635200097D3
:10ADB00001F0ABFA0A213046FFF791F8C800AA303B
:10ADC00005491439471803233C22194635200097BA
:10ADD00001F09BFAF8BD0000342E0020102700007F
:10ADE000F8B5412401F064FAFF2301330022114633
:10ADF000104601F0A7FC64212046FFF77AF80646CA
:10AE00000A21FFF776F8C8006049451801232C2273
:10AE100019462520009501F078FA64212046FFF7B5
:10AE200068F806460A21FFF764F8C800553057490C
:10AE3000451802232C2219462520009501F065FAB9
:10AE400064212046FFF755F806460A21FFF751F81E
:10AE5000C800AA304D49451803232C221946252045
:10AE6000009501F052FA0A212046FFF742F8064603
:10AE70000A21FFF73EF8C80044494518012334224F
:10AE800019462D20009501F040FA0A212046FFF7CF
:10AE900030F806460A21FFF72CF8C80055303B4928
:10AEA00045180223342219462D20009501F02DFA71
:10AEB0000A212046FFF71DF806460A21FFF719F878
:10AEC000C800AA30314945180323342219462D20E1
:10AED000009501F01AFA0A212046FFF70AF8C80087
:10AEE0002A49451801233C2219463520009501F0D6
:10AEF0000CFA0A212046FEF7FCFFC8005530234912
:10AF0000451802233C2219463520009501F0FDF931
:10AF10000A212046FEF7EDFFC800AA301B4945185C
:10AF200003233C2219463520009501F0EEF9FF235A
:10AF3000013300220321104601F004FC01201449D2
:10AF400008701248203000231F221946009018462E
:10AF500001F0DBF90D48603001231F2219460090F3
:10AF6000002001F0D2F90948A03002231F2219461F
:10AF70000090002001F0C9F90448E03003231F22AB
:10AF800019460090002001F0C0F9F8BD202E0020E5
:10AF9000C821002008B501F08BF9FF2301330022FE
:10AFA0000521104601F0CEFB044804233F22002176
:10AFB0000090084601F0A9F908BD0000202E0020ED
:10AFC000FEB500BF00BF03F08DFB044603F074FB29
:10AFD00001906421614308460199FEF780FFC5B2E4
:10AFE00001F066F9FF23013300220221104601F02F
:10AFF000A9FBB9480023132219460090184601F016
:10B0000084F9B548403001231322194600900020EE
:10B0100001F07BF9B04880300223132219460090DA
:10B02000002001F072F9AC48C03003231322194606
:10B030000090002001F069F93C2300220121104614
:10B0400001F080FB64212846FEF753FF07460A21E2
:10B05000FEF74FFF880008189F4946180023222258
:10B0600019461E20009601F050F90A212846FEF7E5
:10B0700040FF07460A21FEF73CFF88000818964962
:10B0800046180023272219462320009601F03DF997
:10B090000A212846FEF72DFF880008188E49461819
:10B0A00000232C2219462820009601F02EF98A4808
:10B0B000373000233122194600902D2001F025F968
:10B0C000FF23013300221146104601F03BFB834968
:10B0D0002046FEF704FFC0007F49461801231C22CA
:10B0E00019461520009601F010F97C492046FEF71C
:10B0F000F6FEC00055307849461802231C22194636
:10B100001520009601F001F974492046FEF7E7FE8C
:10B11000C000AA307049461803231C221946152086
:10B12000009601F0F2F87D21C9002046FEF7D7FE17
:10B1300007460A21FEF7D3FEC800674946180123D7
:10B14000242219461D20009601F0DFF87D21C90058
:10B150002046FEF7C4FE07460A21FEF7C0FEC800DF
:10B1600055305D4946180223242219461D200096B9
:10B1700001F0CBF87D21C9002046FEF7B0FE07465E
:10B180000A21FEF7ACFEC800AA3053494618032333
:10B19000242219461D20009601F0B7F864212046AC
:10B1A000FEF79DFE07460A21FEF799FEC8004A49B0
:10B1B000461801232C2219462520009601F0A5F8F7
:10B1C00064212046FEF78BFE07460A21FEF787FE24
:10B1D000C80055304049461802232C221946252024
:10B1E000009601F092F864212046FEF778FE0746AB
:10B1F0000A21FEF774FEC800AA3037494618032317
:10B200002C2219462520009601F07FF80A212046BD
:10B21000FEF765FE07460A21FEF761FEC8002E49CB
:10B2200046180123342219462D20009601F06DF8AE
:10B230000A212046FEF753FE07460A21FEF74FFE7D
:10B24000C8005530244946180223342219462D20BF
:10B25000009601F05AF80A212046FEF740FE074604
:10B260000A21FEF73CFEC800AA301B4946180323FA
:10B27000342219462D20009601F047F80A21204675
:10B28000FEF72DFEC8001449461801233C2219463A
:10B290003520009601F039F80A212046FEF71FFEFE
:10B2A000C80055300C49461802233C221946352067
:10B2B000009601F02AF80A212046FEF710FEC80089
:10B2C000AA300549461803233C221946352000962A
:10B2D00001F01BF8FEBD0000202E0020102700000A
:10B2E00038B503F06FFB044600F0E2FFFF230133A3
:10B2F00000220121104601F025FAFE480023082211
:10B3000019460090012001F000F8A0780A2820DBFF
:10B31000A0780A21FEF7EDFD81004018F549E139DA
:10B32000451800230F2219460B20009500F0EDFF71
:10B33000A0780A21FEF7DDFD88000818ED49E13903
:10B3400045180023152219461120009500F0DDFF55
:10B3500018E0E848E13800230F22194600900B203E
:10B3600000F0D3FFA0780A21FEF7C3FD880008187B
:10B37000E049E139451800231522194611200095AE
:10B3800000F0C3FFDB48AF3800231B2219460090B2
:10B39000172000F0BAFFE0780A2820DBE0780A21C5
:10B3A000FEF7A7FD81004018D249E1394518002376
:10B3B000212219461D20009500F0A7FFE0780A2100
:10B3C000FEF797FD88000818CA49E139451800239F
:10B3D000272219462320009500F097FF18E0C54862
:10B3E000E13800232122194600901D2000F08DFF36
:10B3F000E0780A21FEF77DFD88000818BD49E13993
:10B4000045180023272219462320009500F07DFFD0
:10B41000B848A53800233B22194600902D2000F0A3
:10B4200074FFFF23013300221146104601F08AF910
:10B43000A0790A285EDBA0790A21FEF75AFDC00038
:10B44000AC49E139451801230822194618460095F0
:10B4500000F05BFFA0790A21FEF74BFDC0005530DC
:10B46000A449E13945180223082219460120009514
:10B4700000F04BFFA0790A21FEF73BFDC000AA3087
:10B480009C49E139451803230822194601200095FB
:10B4900000F03BFFA0790A21FEF72BFDC80095497B
:10B4A000E13945180123122219460B20009500F0BE
:10B4B0002CFFA0790A21FEF71CFDC80055308D49EC
:10B4C000E13945180223122219460B20009500F09D
:10B4D0001CFFA0790A21FEF70CFDC800AA3085499F
:10B4E000E13945180323122219460B20009500F07C
:10B4F0000CFF49E07F48E1380123082219460090FB
:10B50000184600F002FF7B488C38022308221946B7
:10B510000090012000F0F9FE764837380323082216
:10B5200019460090012000F0F0FEA0790A21FEF7F4
:10B53000E0FCC8006F49E139451801231222194681
:10B540000B20009500F0E1FEA0790A21FEF7D1FC66
:10B55000C80055306749E1394518022312221946BF
:10B560000B20009500F0D1FEA0790A21FEF7C1FC66
:10B57000C800AA305F49E139451803231222194651
:10B580000B20009500F0C1FE01205B49087059486E
:10B5900091380123192219460090152000F0B5FEBC
:10B5A00054483C380223192219460090152000F017
:10B5B000ACFE50481930032319221946009015207B
:10B5C00000F0A3FE60790A285EDB60790A21FEF7AD
:10B5D00090FCC0004749E139451801232122194652
:10B5E0001A20009500F091FE60790A21FEF781FC97
:10B5F000C00055303F49E139451802232122194640
:10B600001A20009500F081FE60790A21FEF771FC96
:10B61000C000AA303749E1394518032321221946D1
:10B620001A20009500F071FE60790A21FEF761FC96
:10B63000C8003049E139451801232B22194624203E
:10B64000009500F062FE60790A21FEF752FCC80006
:10B6500055302849E139451802232B221946242068
:10B66000009500F052FE60790A21FEF742FCC80006
:10B67000AA302049E139451803232B2219462420FA
:10B68000009500F042FE4DE01A48E13801232122E6
:10B69000194600901A2000F038FE16488C38022314
:10B6A0002122194600901A2000F02FFE1148373849
:10B6B00003232122194600901A2000F026FE60790B
:10B6C0000A21FEF716FCC8000A49E1394518012392
:10B6D0002B2219462420009500F017FE60790A21DC
:10B6E000FEF707FCC80055300249E139451802232E
:10B6F0002B2203E0012F0020C7210020194624201F
:10B70000009500F002FE60790A21FEF7F2FBC80006
:10B71000AA300549451803232B22194624200095F9
:10B7200000F0F3FD38BD0000202E00200149086024
:10B7300070470000B8210020F0B587B00026002037
:10B740000690FF20013005900125002415E00598A2
:10B7500004F022FE00280BD000BF55484068284066
:10B76000002805D0059804F00FFE30462843064611
:10B770006D000598001D0590641C042CE7D3FF2084
:10B780007D3004F009FE00280AD0FF207D3004F04F
:10B79000FBFD0120C007064300BF46480069069034
:10B7A0003007000F00282AD00125002425E0284674
:10B7B000304000281FD000BF3F48512109014018E8
:10B7C000A10040581F2109020840000A049000BF50
:10B7D0003948512109014018A100405803210904AA
:10B7E0000840000C0390204602F00EFB0746039928
:10B7F0000498B84700BF6D00641C042CD7D3F00F29
:10B80000C007002852D000244EE02C480057401CAE
:10B81000002848D02948005D0490C021049888433E
:10B820000746384602F0F8FA029002F0EDFA03906B
:10B830000398002836D0C021049808408011029057
:10B840000120B840054600BF052000070721090276
:10B850004018B9004058032109040840000C019029
:10B8600006982840002802D00198022806D00698A1
:10B870002840002815D10198032812D102980328E6
:10B880000BD10198022801D1032000E00220009092
:10B890003846009904F0D7FC00BF3846039A029955
:10B8A000904700BF00BF641C062CAED307B0F0BDAC
:10B8B000006300400005005000600040543200204A
:10B8C00010B51D2004F040FD1C2004F03DFD1C209F
:10B8D00004F0F4FC1D2004F0F1FC10BD10B51D2097
:10B8E00004F032FD1C2004F0E9FC1C2004F02CFDC7
:10B8F00010BD10B51D2004F027FD1D2004F0DEFC56
:10B9000010BD0000F8B50546002D01D10720F8BD97
:10B910000024042700BF0EE020012E494018807B40
:10B92000002800D006E0012021012A4A89188873E6
:10B93000002702E0641C002CEED000BF042F01D1D0
:10B940000420E4E7AB2024490870002048702889CF
:10B9500000128870287AC8702A890020296801F0AE
:10B96000C9FE064630121C4908714E711B480088FA
:10B970000012887119480078C8712101154A891888
:10B980006868486021012868505028892101891879
:10B9900008812889210189184881002021018918FE
:10B9A000C8730E4800882101891888810B480088D7
:10B9B000401C0A490880012009498880200111465D
:10B9C00040180749086021018818012105F040F955
:10B9D00000209CE7A82C0020182000202C2000200C
:10B9E0003820002038B50446042C29D169462E2081
:10B9F00000F066FA002800D138BD68460078C1061C
:10BA0000C90E009168460178009101782E2000F05F
:10BA100091FB002800D1EFE76946242000F050FA9E
:10BA2000002800D1E8E768460178BF200140009176
:10BA300068460178242000F07DFB002800D1DBE778
:10BA4000002C32D16946242000F03AFA002800D1B7
:10BA5000D2E768460178BF2001400091684601782E
:10BA600040200143009168460178242000F062FBE9
:10BA7000002800D1C0E769462E2000F021FA0028F6
:10BA800000D1B9E768460078C106C90E0091A1014E
:10BA9000684600780143C9B20091684601782E20BB
:10BAA00000F048FB002800D1A6E7012C32D16946FE
:10BAB000242000F005FA002800D19DE768460178AF
:10BAC000BF20014000916846017840200143009169
:10BAD00068460178242000F02DFB002800D18BE778
:10BAE00069462E2000F0ECF9002800D184E7684672
:10BAF0000078C106C90E0091A10168460078014393
:10BB0000C9B20091684601782E2000F013FB00288E
:10BB100000D171E7022C32D16946242000F0D0F91F
:10BB2000002800D168E768460178BF2001400091F5
:10BB3000684601784020014300916846017824203E
:10BB400000F0F8FA002800D156E769462E2000F0F0
:10BB5000B7F9002800D14FE768460078C106C90E42
:10BB60000091A101684600780143C9B2009168467E
:10BB700001782E2000F0DEFA002800D13CE7032CEB
:10BB800032D16946242000F09BF9002800D133E728
:10BB900068460178BF200140009168460178402046
:10BBA0000143009168460178242000F0C3FA002880
:10BBB00000D121E769462E2000F082F9002800D14B
:10BBC0001AE768460078C106C90E0091A1016846CF
:10BBD00000780143C9B20091684601782E2000F038
:10BBE000A9FA002800D107E7012005E77CB5044643
:10BBF0000625E82013490870691C6B46114A124853
:10BC000005F0F6FF002803D11049114801F056FB5A
:10BC100068468078010268464078014308B2208077
:10BC20006846007901026846C078014308B2608026
:10BC300068468079000269464979084300B2A080CD
:10BC400001207CBDB820002000300040844202006A
:10BC5000B10500007CB5054600240021019169462C
:10BC6000402000F023F801A800F05FF86846007853
:10BC7000012801D1202001906846007980108100C0
:10BC80000191002407E006216143074A8818FFF765
:10BC9000ADFF601CC4B2684600798442F3DB68469D
:10BCA000007928707CBD0000602D002038B5054665
:10BCB0000C4669462F2000F003F9002800D138BD5A
:10BCC000802D0DD169460878802108400090002819
:10BCD00002D001202070F2E7002020700120EEE762
:10BCE000402D0DD169460878402108400090002879
:10BCF00002D001202070E2E7002020700120DEE762
:10BD0000202D10D101D1012000E0002069460978E2
:10BD100008400090002802D001202070CFE70020CA
:10BD200020700120CBE70020C9E738B504466946FA
:10BD30002F2000F0C5F8002800D138BD68460078F3
:10BD4000C106C90E00916846007820700120F4E712
:10BD500038B500221146104605F0E0FE0446002CDE
:10BD600000D138BD002005F0A9FE69460F2000F083
:10BD7000A7F8002803D143A1B62001F09FFA684636
:10BD80000078332803D03FA1B72001F097FA0021B3
:10BD9000202000F0CFF9002803D13AA1B92001F00A
:10BDA0008DFA0021212000F0C5F9002803D135A12A
:10BDB000BA2001F083FA0021222000F0BBF900280C
:10BDC00003D130A1BB2001F079FA0021232000F03B
:10BDD000B1F9002803D12BA1BC2001F06FFA00219A
:10BDE000242000F0A7F9002803D126A1BD2001F0EE
:10BDF00065FA0021252000F09DF9002803D121A13A
:10BE0000BE2001F05BFA0420FFF7ECFD002803D10F
:10BE10001CA1BF2001F052FA072000F073F800289F
:10BE200003D118A1C22001F049FA022000F0FAF86B
:10BE3000002803D113A1C32001F040FA052000F02F
:10BE40005BF9002803D10FA1C52001F037FA0120CA
:10BE500000F0AFF8012000F073F8002803D109A129
:10BE6000C72001F02BFA0220FFF7BCFD002000F0F4
:10BE700085F8002000F0BBF8002005F0E5FD01206A
:10BE80006FE700002E2E5C2E2E5C2E2E5C2E2E5C7C
:10BE90002E2E5C2E2E5C636F6D706F6E656E7473EC
:10BEA0005C49646561536F757263655C7372635C52
:10BEB000696465615F68616C5F6163632E63000044
:10BEC00070B504460D4602268020204309490870BB
:10BED000094B0A463146094805F08AFE002803D17D
:10BEE0000749392001F0EAF9034840782870012019
:10BEF00070BD0000B8200020C020002000300040AD
:10BF00008442020038B5044669462020FFF7D8FF76
:10BF1000002800D138BD68460178F8200140009122
:10BF20006107490F6846007801430091684601782F
:10BF3000202000F0FFF8002800D1EBE70120E9E71E
:10BF400038B5044669462320FFF7BAFF002800D120
:10BF500038BD684600784106490E0091E101684607
:10BF600000780143C9B2009168460178232000F0AF
:10BF7000E1F8002800D1EBE70120E9E738B50446F5
:10BF800069463820FFF79CFF002800D138BD68467D
:10BF90000178C0200140009168460178214300915A
:10BFA0000178382000F0C6F8002800D1EEE7012023
:10BFB000ECE738B5044669462320FFF781FF0028E7
:10BFC00000D138BD68460178CF20014000912101A1
:10BFD000684600780143C9B2009168460178232081
:10BFE00000F0A8F8002800D1EBE70120E9E738B518
:10BFF000044669463020FFF763FF002800D138BDB2
:10C00000684601784020014000916846017821434C
:10C0100000910178302000F08DF8002800D1EEE783
:10C020000120ECE71CB5044601A92020FFF748FFDA
:10C03000002800D11CBD69462320FFF741FF0028DE
:10C0400000D1F7E768460079F0210840002806D1C2
:10C050002848007808406946097908430190002C77
:10C0600004D0012C1ED0022C2FD109E068460079A3
:10C0700020490870684600790107090F019126E000
:10C0800068460179F72001400191684601790191E4
:10C090000178F720014000916846007808210843A4
:10C0A000009014E068460179F7200140019168464C
:10C0B000017908200143019168460178F720014089
:10C0C000009168460078009001E00020B2E700BFD0
:10C0D00068460179202000F02DF8002800D1A9E75A
:10C0E00068460178232000F025F8002800D1A1E758
:10C0F00001209FE7B420002038B50446694620207F
:10C10000FFF7DEFE002800D138BD68460078010741
:10C11000090F00912101684600780143C9B20091DE
:10C1200068460178202000F005F8002800D1EBE7F0
:10C130000120E9E770B504460D4602200B4908705E
:10C1400000200B4908700B48047045700A4B0246EA
:10C1500006480178094805F04BFD002803D108493D
:10C16000522001F0ABF8012070BD0000C920002072
:10C17000C8200020B8200020C0200020003000404F
:10C1800084420200C206D20E01219140014A116090
:10C190007047000080E200E0C206D20E012191400B
:10C1A000014A11607047000000E100E0C206D20EB3
:10C1B00001219140014A11607047000000E200E057
:10C1C00010B5002819DA1A4A03071B0F083B9B0811
:10C1D0009B00D2588307DC0EFF23A3409A438B07B2
:10C1E0001B0E8407E40EA3401A43114B0407240FCF
:10C1F000083CA408A4001A5118E00E4A03231B02AD
:10C20000D21883089B00D2588307DC0EFF23A3407B
:10C210009A438B071B0E8407E40EA3401A43054B79
:10C22000032424021B198408A4001A5110BD000025
:10C230001CED00E000E100E010B5002819DA1A4A10
:10C2400003071B0F083B9B089B00D2588307DC0E9B
:10C25000FF23A3409A438B071B0E8407E40EA340E1
:10C260001A43114B0407240F083CA408A4001A51D8
:10C2700018E00E4A03231B02D21883089B00D258F1
:10C280008307DC0EFF23A3409A438B071B0E840712
:10C29000E40EA3401A43054B032424021B1984080F
:10C2A000A4001A5110BD00001CED00E000E100E008
:10C2B00070B5002418E02046B030002100F05AF993
:10C2C0000021084600F056F90021122000F052F932
:10C2D000202505E00121002000F04CF9681CC5B2C2
:10C2E000602DF7DB601CC4B2042CE4DB70BD10B51C
:10C2F00000218D2000F03EF90021142000F03AF9D1
:10C300000021AF2000F036F910BDFFB583B006461E
:10C310000F461C46002002902046E117490F0918DD
:10C32000C910C900611A05D1E117490F091849055B
:10C330000D0E06E02046E117490F0918C910491CE7
:10C34000CDB23D4617E02946304600F08FF8019601
:10C350000BE002994A1C02920C9A505C012100F0F9
:10C3600009F90198401CC0B20190059901988842D2
:10C37000EFDD681CC5B2A542E5DD07B0F0BD10B524
:10C3800001211D2003F0AAFF01211C2003F0A6FFBC
:10C390001D2003F0D9FF1C2003F0D6FF642003F01A
:10C3A0009DFE0021AE2000F0E5F80021084600F0D7
:10C3B000E1F80021122000F0DDF80021084600F02D
:10C3C000D9F80021B02000F0D5F80021812000F03C
:10C3D000D1F80021FF2000F0CDF80021A12000F0CD
:10C3E000C9F80021A62000F0C5F80021A82000F01F
:10C3F000C1F800211F2000F0BDF80021C82000F086
:10C40000B9F80021D32000F0B5F80021084600F06B
:10C41000B1F80021D52000F0ADF80021802000F017
:10C42000A9F80021D92000F0A5F800211F2000F074
:10C43000A1F80021DA2000F09DF80021122000F080
:10C4400099F80021DB2000F095F80021402000F051
:10C4500091F800218D2000F08DF80021142000F0CB
:10C4600089F80021AF2000F085F810BD70B50446B2
:10C470000D4620462030C6B22846B030002100F0DC
:10C4800079F8F0213140091108461030002100F000
:10C4900071F83007000F002100F06CF870BD00004B
:10C4A000FFB581B007460D460026002403982038CA
:10C4B000C6B27F2F02DD0027A81CC5B20498102841
:10C4C00024D129463846FFF7D1FF002408E0310186
:10C4D0000919184A505C012100F04CF8601CC4B2E4
:10C4E000082CF4DB681CC1B23846FFF7BFFF0024FC
:10C4F00009E03101091908310E4A505C012100F0B0
:10C5000039F8601CC4B2082CF3DB11E02946384628
:10C51000FFF7ACFF002409E006217143064A8918A1
:10C52000085D012100F026F8601CC4B2062CF3DB84
:10C5300005B0F0BD90300200682E0200FFB581B05A
:10C5400004460F46154600260FE0AA5D39462046F0
:10C55000049BFFF7A5FF20460830C4B2782C02DD0B
:10C560000024B81CC7B2701CC6B2A85D0028ECD16C
:10C5700005B0F0BD70B504460D46002D03D0E0B205
:10C5800000F03DFA02E0E0B200F023FA70BD0000D6
:10C590000020074908600120064948600004064958
:10C5A00088600B2001218140044A116000BF704760
:10C5B00040B1004000B0004000B3004080E100E026
:10C5C00010B50020074908600021064841608160DD
:10C5D000C1600020034940390860486005F048FE0A
:10C5E00010BD00004011014038B504460D46002042
:10C5F000009000F035F9062003F068FE202000F0DE
:10C60000C9F8684604702807010E68464170002189
:10C61000817000F0E5F8062003F0A6FE00F0B4F803
:10C6200038BD10B505F0D4FC10BD000010B50848A9
:10C630000078012148400649087006480068002833
:10C6400004D00846007803490968884710BD0000F7
:10C65000FC2100200022002070B50C480068002852
:10C6600010D00A4800688047044600BF2546002DC8
:10C6700006D000BF00221146284600F0B5FB00BFDF
:10C6800000BF01E002F094FE70BD00009C2200207B
:10C69000FEB506460C461746002500200190009086
:10C6A000062003F013FE032000F074F8FF200004BE
:10C6B0002040010C68460171FF2000022040010A61
:10C6C00068464171847101A800F08AF800900098D2
:10C6D000002801D00220FEBD002503E000F00AF88A
:10C6E00070556D1CBD42F9D3062003F03DFE0020BD
:10C6F000F1E7000070B500250024042003F034FEAB
:10C7000000BF16E06006040E042003F02DFE072093
:10C710000B490969C140C907C90F002902D001208E
:10C72000044301E0FE200440042003F0CFFD681C18
:10C73000C5B2082DE6DB042003F016FE204670BDCE
:10C7400000050050F8B505460E461F460020009033
:10C75000062003F0BBFD032000F01CF868460570BE
:10C7600046700021817000F03BF8002404E0FFF7E0
:10C77000C1FF04490855641CBC42F8D3062003F0ED
:10C78000F3FDF8BD202E002010B5012003F0A6FC1B
:10C79000002010BD70B504460025042003F096FD6E
:10C7A00000BF14E0042003F091FD80202040002809
:10C7B00003D0032003F0D8FD02E0032003F086FD40
:10C7C0006006040E042003F0CFFD681CC5B2082DDE
:10C7D000E8DB042003F07AFD032003F0C5FD70BD03
:10C7E00070B50546002400BF03E0285DFFF7D2FFC7
:10C7F000641C032CF9D3002070BDFFB581B0064640
:10C800000F4600200090390303980002091804988D
:10C810000C1800F025F8062003F058FD0220FFF761
:10C82000B9FFFF2000042040010C68460170FF2082
:10C8300000022040010A684641708470FFF7D0FF73
:10C84000002503E0705DFFF7A5FF6D1C0A98854287
:10C85000F8D3062003F088FDFFF796FF05B0F0BD82
:10C8600010B5062003F032FD0620FFF793FF0620E7
:10C8700003F07AFD10BDF7B582B006460C460025E0
:10C88000002001900027FFF7EBFF062003F01EFDBC
:10C890000220FFF77FFFFF2000042040010C6846C4
:10C8A0000171FF2000022040010A68464171847135
:10C8B00001A8FFF795FF0746002F02D0022005B020
:10C8C000F0BD002503E0705DFFF764FF6D1C049868
:10C8D0008542F8D3062003F047FDFFF755FF0746D2
:10C8E000002F01D00320EAE70020E8E710B506207A
:10C8F00003F094FC042003F091FC032003F08EFC71
:10C90000072000218A0005231B0704021B1984004D
:10C910001A5100BF10BD000010B502F0D5FD00286F
:10C9200005D0104810494860C8131049886102F0CA
:10C930009DFD002802D001200D49886002F0FAFD1B
:10C9400000280ED00B480068012807D00A48094982
:10C95000086000BF074800680128FBD1C0200549D6
:10C96000486110BDDFFF07C000050040006C0040BB
:10C970000006004000EC06407593000010B5034827
:10C98000FEF7D4FE012005F0EDFD10BD612402008C
:10C99000F8B505462C461D2003F090FC002615E056
:10C9A000274680200740802F03D11C2003F0CCFCB9
:10C9B00002E01C2003F082FC6006040E1D2003F040
:10C9C000C3FC1D2003F07AFC701CC6B2082EE7DB06
:10C9D000F8BD10B50446FEF773FF7820FFF7D8FFC7
:10C9E000FEF787FF0020FFF7D3FFFEF782FF204608
:10C9F000FFF7CEFFFEF77DFFFEF770FF10BD10B50D
:10CA00000446FEF75DFF7820FFF7C2FFFEF771FFD7
:10CA10004020FFF7BDFFFEF76CFF2046FFF7B8FF91
:10CA2000FEF767FFFEF75AFF10BDF8B504148BB28E
:10CA3000264682B25E430D1410463714584336041E
:10CA400080190021794116466E4337143604801947
:10CA5000794126466E438919F8BD30B47446641E88
:10CA60002578641CAB4204D3635D5B00E31830BCE3
:10CA700018471D46F8E730380A2801D201207047D0
:10CA80000020704770B505460C46164600204B49FD
:10CA900008804B4805604B48006800F0C1F9002849
:10CAA00003D14848006800F0C1FB0C2D5BD009DCC5
:10CAB0002B00FFF7D2FF0C20252B30353A3F44499D
:10CAC0004E565772122D60D008DC28460D380300F0
:10CAD000FFF7C3FF054A4B50555A6300152D57D039
:10CAE00004DC132D52D0142D57D150E0162D08D050
:10CAF000642D52D132E06004000C334908804DE0CF
:10CB000000BFA00020183049088047E0A00020188E
:10CB10002D49088042E0A00020182B4908803DE004
:10CB20006004000C2849088038E06004000C2649A5
:10CB3000088033E06004000C234908802EE0600484
:10CB4000000C2149088029E06004000C1E4908807F
:10CB500024E06004000C1C4908801FE01A490C8086
:10CB60001CE000BF00BF00BF00BF6004000C1649FE
:10CB7000088013E0A004000C134908800EE0600454
:10CB8000000C1149088009E000BF00BF00BF00BFD2
:10CB90006004000C0C49088000E000BF00BF08489A
:10CBA0000068FF2808D0002002F03CFD002231463A
:10CBB0000448006800F004FB70BD00009E200020C7
:10CBC00098200020A02000209C200020F8B50446DA
:10CBD0000F4615460026002028702068002809D03E
:10CBE0002A463946204603F052F90646002E01D067
:10CBF0003046F8BD6079002808D02946384600F054
:10CC000037FB0646002E01D03046F2E7A079002817
:10CC10000ED002212A78501C2870B95401212A789C
:10CC2000501C2870B954A1792A78501C2870B95426
:10CC3000A06800280BD00020A16808562A46394673
:10CC400005F0A2FB0646002E01D03046D1E7A089B0
:10CC500000280CDD3B460622022120460C300095C0
:10CC600005F0FFFD0646002E01D03046C1E7A08A40
:10CC700000280CDD3B460722032120461430009596
:10CC800005F0EFFD0646002E01D03046B1E7A08B3F
:10CC900000280CDD3B461522142120461C3000954F
:10CCA00005F0DFFD0646002E01D03046A1E7606AA0
:10CCB000002809D02A463946606A01F0F9FA06468A
:10CCC000002E01D0304694E7A06A002809D02A46F9
:10CCD0003946A06A02F063FF0646002E01D03046B6
:10CCE00087E73020005D002809DD2A4639462046C6
:10CCF00004F054FC0646002E01D0304679E7304659
:10CD000077E70146887904221040002801D10720E6
:10CD100070470020FCE7000070B50024F82521468C
:10CD20002A460A4803F028FB00BFFF20913003F099
:10CD3000D5F900BF21462A460448001F03F01CFB1A
:10CD400000BFFF20913003F0C9F970BD0C05005001
:10CD500070B50546002408E028462041C107C90FE8
:10CD6000204604F0AFFD601CC4B2052CF4DB70BD9E
:10CD700010B50C480068002803D10BA1A12000F0D9
:10CD80009DFA002408E00C216143064A1268505CB9
:10CD9000012103F0B1F9641C124800788442F2D3F7
:10CDA000002010BD482200202E2E5C2E2E5C2E2E40
:10CDB0005C2E2E5C2E2E5C2E2E5C636F6D706F6E63
:10CDC000656E74735C6C69627261726965735C62D2
:10CDD0007574746F6E5C6170705F627574746F6E81
:10CDE0002E6300004C22002000BF00BF00BF00BF28
:10CDF00000BFBFF34F8F00BF00BF00BF0648074909
:10CE0000C86000BF00BF00BFBFF34F8F00BF00BFAF
:10CE100000BF00BF00BFFDE70400FA0500ED00E021
:10CE200001460B480068002801D1082070470948D6
:10CE30000078814201D30720F8E728204843044ABC
:10CE400012681058012801D10020EFE70820EDE713
:10CE50006422002060220020F8B505460E461746E1
:10CE60000520009000BF14490878144909788142D0
:10CE700001D1012100E0002100291BD10E480478D6
:10CE8000007803F06FF80C4908700D480088604383
:10CE90000C49096840182860E0000B4909684018EF
:10CEA00080883080E0000849096808583860002010
:10CEB000009000BF0098F8BD942200209522002029
:10CEC00096220020902200208C220020F7B584B00A
:10CED0000C463D480088844272DC3C4D00200390A3
:10CEE00001F0F0FA02900298012814D003A836DF6E
:10CEF0000746022F01D172B60CE000BF0197019FD7
:10CF0000002F06D000BF002211460198FFF76CFFEA
:10CF100000BF00BF00BF00BF2D4807782D48007834
:10CF200003F020F8B84201D1012000E000200028E1
:10CF300006D128480578007803F014F825490870D0
:10CF40000298012814D062B66846007B37DF074696
:10CF5000022F0CD000BF0197019F002F06D000BF09
:10CF6000002211460198FFF73FFF00BF00BF00BF3E
:10CF70001648854222D0E900174A06981268505098
:10CF80000498002811D0002C0FDD0F49098869434F
:10CF9000124A1268881822460499FCF73FFFE800FD
:10CFA0000D4909684018848005E00020E9000A4A1C
:10CFB000126889188880002601E001E0042600E05C
:10CFC0000926304607B0F0BD96220020FFFF000082
:10CFD00094220020952200208C2200209022002004
:10CFE0000EB504E068468188009A029890476A4628
:10CFF00001A902A8FFF730FF0028F3D00EBD000002
:10D0000030B50346481CC004040C10468507AD0F1C
:10D01000002D01D1012500E00025002D01D10720C0
:10D0200030BD084802601019074D28600020074DE8
:10D030002870074D287007480380074801800020AA
:10D04000EEE700008C220020902200209522002094
:10D0500094220020962200209822002070B50346DA
:10D060000C4619480068002801D1082070BD002A2C
:10D0700001D10720FAE7002B01D10720F6E70021B4
:10D080001CE028204843104D2D682858002814D152
:10D090000125282048430C4E366835502820484347
:10D0A000094D2D684019446028204843064D2D68DD
:10D0B0004019C26119600020D8E7491C0348007874
:10D0C0008142DEDB0420D1E76422002060220020C0
:10D0D000FFB581B00E4617461C4620468107890FD2
:10D0E000002901D1012100E00021002902D10720FF
:10D0F00005B0F0BD002C01D10720F9E703F046FD93
:10D1000026490A98086026480670264804600025CB
:10D110000CE0002128206843224A12681150282080
:10D120006843204A1268801801766D1CB542F0DB16
:10D1300028207043041903201B4908701B48046011
:10D14000183400250CE0E900184A126888180021FC
:10D150000170417087704460182179430C196D1C6F
:10D16000032DF0DB0020C043114908600020114965
:10D170000870114908701420FFF704F803211420E7
:10D18000FFF75AF81420FFF707F8019803F0D4FCD2
:10D1900003F0CCFC094908600020A9E784220020A4
:10D1A0006022002064220020682200206C220020DF
:10D1B0007022002080220020812200207422002082
:10D1C000FEB504460D46164616480068002801D1F3
:10D1D0000820FEBD14480078844201D2052D01D2FA
:10D1E0000720F6E7282060430E49096808580128FF
:10D1F00001D00820EDE7282060430A49096840185B
:10D200004068012801D1284600E00020074605F0CB
:10D21000FFFA3B462A4621460096019004F0DEFFC5
:10D22000D7E70000642200206022002070B5044689
:10D230000D480068002801D1082070BD0B48007817
:10D24000844201D30720F8E7282060430649096893
:10D250000858012801D00820EFE705F0D9FA054663
:10D26000214604F0E5FFE8E7642200206022002068
:10D27000F8B505460C462078001D1F2801DD0C205E
:10D28000F8BD684679DF0646002E01D03046F7E744
:10D2900003212278501C2070A95419212278501C97
:10D2A0002070A954207841196846008805F0CAF911
:10D2B0002178401820700020E2E7000070B5044695
:10D2C0000D462A4621460248FFF78EFD70BD00003C
:10D2D000EFBEADDEF7B586B006461746002E04D188
:10D2E000AD49FF20D030FFF7E9FF0798042804D0AC
:10D2F000A949FF20D130FFF7E1FFA84800680028C6
:10D3000002D1A64807601BE0A448006802280DD19E
:10D31000012F0BD1A2488088012807D1A14930688C
:10D3200008600120A049086009B0F0BD9B48006872
:10D33000012805D1022F03D102209B490860F3E7A1
:10D340000020059004900024002500BF9348006849
:10D35000022856D19548C078012851D1934A927835
:10D36000012A00D100E000221146904A108800F006
:10D37000CDFF04900820059005AA8D48049900F07F
:10D3800035FC0546002D15D1844908608749C870D1
:10D390008548006801280CD182480068002808D020
:10D3A00001207E49086000207F4908607D480468AC
:10D3B00035E0B9E77F4885420AD17F4801907B4834
:10D3C00002900220039001A807C804F02DF917E08D
:10D3D000002072490860744908607449C870724836
:10D3E000006801280CD16F480068002808D001208F
:10D3F0006A49086000206C4908606A4804680EE0C9
:10D4000092E766480068002800D18DE73468002C58
:10D4100004D1614987208000FFF750FF00BF00253D
:10D4200000200090B2E05E488088012806D1634861
:10D43000049008200590012000901BE060890028DE
:10D4400016D02068002803D153495D48FFF736FF06
:10D450006089142801DD142000E06089059020898E
:10D460006189401A2168401804900220009001E070
:10D47000002000900098002800D18AE005AA4C48BE
:10D48000049900F0B3FB0546002D4ED1009800280A
:10D4900006D0012805D002280FD0032843D138E058
:10D4A00042E03F488088012806D100203C4988801E
:10D4B000424800210160416036E060896946898AFE
:10D4C000401A60816089002822D101900290039067
:10D4D00001A807C804F0A8F80020304908602046D9
:10D4E00002F0DAFF22460121890436480068FFF77E
:10D4F00067FE2D48006802280AD12C48C078012810
:10D5000006D10220254908600020274908601DE750
:10D510000AE02648C078012804D100201F4908608D
:10D520002249C87000E000BF30E02248854210D197
:10D530002148019002940120039001A807C804F03B
:10D5400073F82246012189041E480068FFF738FE5F
:10D550001FE0002001900290039001A807C804F08A
:10D5600063F800200D4908606068002803D000209F
:10D57000A073616888470C480068022805D10749F4
:10D580000860002008490860E0E6CDE6002D00D1E3
:10D5900049E700BF00BFC7E63C4202002020002050
:10D5A0003820002034200020242000202E200020BD
:10D5B000E423002004300000510C02001820002059
:10D5C0003102000040200020034804494860002048
:10D5D0000349086070470000020400000075004025
:10D5E0000071004010B50120064948600121072064
:10D5F000FEF7E6FD072001218140034A116000BFCC
:10D6000010BD00000073004000E100E070B504466A
:10D6100000BF00F05FF80A2002F060FD02E00A207F
:10D6200002F05CFD104800680028F8D000200E4988
:10D6300008600E48856801200D4948604B210901AA
:10D64000694308460A21FCF74AFC2B214843064659
:10D650000849FCF744FC208000F0F0FB022802D0CF
:10D6600020883C38208070BD00710040007500406B
:10D6700000700040FF03000000B5024600F02AF8E9
:10D6800000BD000070B50F480088002802D10D4889
:10D69000FFF7BCFF00200C490860FFF7A3FF0B4A0F
:10D6A00001210B48FFF7DAFC044600BF2546002D98
:10D6B00006D000BF002211462846FFF795FB00BFA9
:10D6C00000BF70BD022000200075004079D6010027
:10D6D0000C20002001200449086000200349086054
:10D6E0000120034908607047007500400071004048
:10D6F00000700040F0B513460BE002460C78491C60
:10D700001512164666403606F60D054FBE5B75408F
:10D7100028461A465C1EA4B22346002AEDD1F0BD6D
:10D72000C42B0200F3B593B00D4600211291119164
:10D730001398002814D01398FFF7E3FA0446002C3E
:10D7400002D0204615B0F0BD12AA09A91398FFF720
:10D750003DFA0446002C01D02046F3E709AE00E074
:10D760000026002D13D0284604F0BEFA0446002CF3
:10D7700001D02046E6E711AA01A92846FFF726FABC
:10D780000446002C01D02046DCE701AF00E0002772
:10D7900010A803793A46017A304672DFD2E70000DA
:10D7A00010B507210148FCF796FB10BDCD210020E4
:10D7B00030B587B00546A248056000200090684655
:10D7C00002F04CFE0446082C02D10020009004E038
:10D7D000002C02D0204607B030BD0098002804D0AD
:10D7E0000120984908700020F5E7FFF7D9FF964817
:10D7F0004078002803D092480068012807D092485A
:10D800008078002812D08E48006802280ED18F48F8
:10D810000068002807D001208D49087008208B4936
:10D820000968884702E00020894908708448006838
:10D8300001280BD184484078002804D0854802F0A4
:10D84000BDFD002802D102207D4908607C480068A7
:10D8500002280BD17C488078002804D07D4802F053
:10D86000ADFD002802D10320754908607648007B91
:10D87000002806D172480068032802D104207049AC
:10D8800008607148007E002808D16D4800680428AF
:10D8900004D100206A4908606F4908606B4800683D
:10D8A000002817D066480068032803D06448006841
:10D8B00004280FD16448007800280BD0674800780E
:10D8C000002807D101206649087007205F490968D0
:10D8D000884702E0002062490870182101A8FCF77F
:10D8E000FCFA00216846017100200290684601732D
:10D8F0000020049052480068012806D0022811D068
:10D90000032823D0042879D150E05248401E0290C9
:10D910000121684601710021C182818201204E49A6
:10D92000086075E04B48401E029001216846017175
:10D930004548008981B26846C1824348808881B2E7
:10D940006846818202204449086061E03E48808A3E
:10D9500081B26846C1823C48008A81B268468182B1
:10D96000404805F035F800281CD0374800780028DA
:10D9700018D03A480078002814D10220694608736C
:10D980003848049004203849887100213648FFF750
:10D99000C9FE0446002C01D020461CE705202E4974
:10D9A000086002E003202C49086031E02648808BA3
:10D9B00081B2684681822448008C81B26846C18267
:10D9C000284805F005F800281DD01F4800780028D9
:10D9D00019D022480078002815D102206946087322
:10D9E0002048049004202049887100211E48FFF738
:10D9F00099FE0446002C02D02046ECE607E0062003
:10DA00001549086002E004201349086000E000BFE7
:10DA100000BF0B480068002806D001A873DF044649
:10DA2000002C01D02046D6E608480068002804D023
:10DA3000094800680549096888470020CBE60000CE
:10DA4000E0210020CC21002040310020D8210020FE
:10DA5000E6210020CE210020D4210020E421002056
:10DA6000E5210020643100200C310020F8B5054686
:10DA70000E461746002407E0A0003158284600F063
:10DA8000D3FD2D1D601C84B2BC42F5DB0020F8BD27
:10DA900070B503460C46002A01D10D4D00E01588F3
:10DAA0002846002111E0051206023543A8B25D5C4C
:10DAB000684005062D0F684005034540A8B20506DD
:10DAC0002D0D6D0068404D1CA9B2A142EBDB70BD6D
:10DAD000FFFF0000024601200007006980B25043AA
